:020000040800F2
:1000000078330020990100080F0C00080B0C000841
:100010000D0C0008F7070008D512000800000000CA
:1000200000000000000000000000000001010008C6
:100030000B0B00080000000045010008D12D00084E
:10004000AF010008AF010008AF010008AF010008D0
:10005000AF010008AF010008AF010008AF010008C0
:10006000AF010008AF010008AF010008AF010008B0
:10007000AF010008AF010008AF010008AF010008A0
:10008000AF010008AF010008AF010008AF01000890
:1000900059120008AF010008AF010008AF010008C5
:1000A000AF010008AF010008AF010008AF01000870
:1000B000090F0008AF010008AF010008AF010008F8
:1000C000AF010008AF010008AF010008AF01000850
:1000D000AF010008AF0100086D100008951000087E
:1000E000AF010008AF010008AF010008DFF80CD035
:1000F00000F03EFB0048004705220008783300204E
:10010000224B19680868B0E8F00F80F30988BFF344
:100110006F8F4FF0000080F311884EF00D0E704786
:100120000000000006480068006880F3088862B696
:1001300061B6BFF34F8FBFF36F8F00DF00BF00BF0B
:1001400008ED00E0EFF30980BFF36F8F0F4B1A68E3
:1001500020E9F00F106008B54FF0BF0080F3118860
:10016000BFF34F8FBFF36F8F02F0F8FD4FF0000029
:1001700080F31188BDE8084019680868B0E8F00FFE
:1001800080F30988BFF36F8F704700BF3C000020E9
:10019000EFF305807047000005480047FEE7FEE7E3
:1001A000FEE7FEE7FEE7FEE7FEE7FEE7FEE7FEE727
:1001B000ED00000840EA01039B0703D009E008C9ED
:1001C000121F08C0042AFAD203E011F8013B00F81C
:1001D000013B521EF9D270472DE9F04D81EA03042C
:1001E00004F0004B21F0004514464FF0000A23F0C4
:1001F000004150EA050220D054EA01021DD0C5F3A7
:100200000A570246C5F31303C1F31300C1F30A569C
:1002100040F4801543F48013A7EB0608101BD64664
:1002200008F2FD3873EB050002D308F1010801E084
:1002300092185B41B8F1000F03DA00200146BDE8D7
:10024000F08D00204FF48011064684460EE0171B07
:1002500073EB050705D3121B63EB050306434CEA5A
:10026000010C49084FEA300092185B4150EA01073F
:10027000EDD152EA030012D082EA040083EA0501BC
:10028000084303D100224FF0004308E0101BAB41AC
:1002900002D20122002302E06FF0010253101AEB98
:1002A00006004CEB085110EB0A0041EB0B01BDE8D6
:1002B000F04D00F0B9B80EB540F233410291002183
:1002C000CDE900110A460B4600F0BBF803B000BDB3
:1002D00000F0004230F000400AD0C10D01F560711D
:1002E000C0F3160042EA0151C208400711437047AB
:1002F00000200146704701F0004330B421F0004176
:1003000050EA010206D00A0DA2F56072C1F3130192
:10031000002A02DC30BC00207047440F44EAC104CC
:10032000C100E01830BC00EBC25000F047B830B557
:100330000B46014600202022012409E021FA02F5A3
:100340009D4205D303FA02F5491B04FA02F528443D
:10035000151EA2F10102F1DC30BD2DE9F05F05466A
:10036000002092469B4688460646814640241BE074
:10037000284641464746224600F01BFA53465A4655
:10038000C01A914110D311461846224600F002FAD5
:100390002D1A67EB01084F4622460120002100F08C
:1003A000F9F917EB00094E41201EA4F10104DFDC2E
:1003B000484631462A464346BDE8F09F0029A8BF7B
:1003C0007047401C490008BF20F00100704710B47E
:1003D000B0FA80FC00FA0CF050EA010404BF10BC33
:1003E000704749B1CCF1200421FA04F411FA0CF160
:1003F00018BF012121430843A3EB0C01CB1D0106CB
:10040000000A002BBEBF002010BC704700EBC35099
:1004100010440029A4BF10BC7047401C490008BF0D
:1004200020F0010010BC704710B5002B08DA401C0A
:1004300041F1000192185B411A4301D120F0010003
:1004400010BD2DE9F04D92469B4611B1B1FA81F2F3
:1004500002E0B0FA80F22032904600F09BF90446A8
:100460000F4640EA0A0041EA0B0153465A46084348
:1004700003D120463946BDE8F08D114653EA01000C
:1004800015D0C8F14002504600F093F905460E46DB
:1004900050465946424600F07DF9084301D00120FC
:1004A00000E00020054346EAE0762C4337430A98F3
:1004B0004FEA4453A0EB08004FEAD4240A304FF02F
:1004C000000244EA47544FEAD72502D500200146EE
:1004D000D1E7010510196941DDE9084500196941B5
:1004E000BDE8F04DA0E72DE9FE4F804681EA03000C
:1004F000C00F0C46009021F0004123F00045B8EBFE
:100500000200A94105D24046214690461C460B46B2
:10051000024623F00040104304D14046214603B078
:10052000BDE8F08F270DC7F30A00C3F30A5102900C
:10053000401A0190402866DAC3F3130040F4801B90
:100540000098924620B10023D2EB030A63EB0B0B19
:1005500001985946C0F14002504600F01BF906468A
:100560000D4650465946019A00F033F910EB080049
:100570006141002487EA115284EAE7731A433BD0B1
:10058000009A3AB3019A012A4FEA075210DC001B85
:1005900061EB02014FF0004202EA0752CDE900424E
:1005A000001C41F5801132462B46FFF74AFFB6E7A3
:1005B000001B61EB0201001C41F5801300185B4138
:1005C0002018A2F5001747EB030140EAD570B619D1
:1005D0006D4111E06D084FEA360645EAC0754FEAF5
:1005E0000752001B61EB0201001C41F58011490814
:1005F0004FEA30000019514132462B4603B0BDE8A6
:10060000F04FFFF711BF0098012240000023D0EB0C
:10061000020263EBE073009821464FEAE074B8EB06
:10062000000061EB0401E9E783F000435BE781F040
:10063000004158E72DE9FE4F81EA030404F000442D
:1006400021F0004100944FF0000B23F0004350EAEA
:10065000010402D052EA030404D10020014603B091
:10066000BDE8F08FC3F30A54C1F30A552C44A4F239
:10067000F3340194A0FB0254C1F3130141F480113F
:10068000C3F3130343F4801301FB024400FB034E46
:10069000840A970A44EA815447EA8357A4FB07680F
:1006A00002958D0A05FB07854FEA932C04FB0C5439
:1006B0002705029D4FEA065847EA1637B5EB0805AD
:1006C0006EEB070C870E920E47EA811742EA8312FF
:1006D000A7FB0201B6EB0B0164EB00042B0D43EA10
:1006E0000C335E1844EB1C50DA465146E7FB02011E
:1006F000C5F313044FEA0B3343EA14534FEA0432B1
:10070000019C43EA0603A4F10C040294009CCDE989
:1007100000B4FFF796FEA2E7C1F30A52C1F313013A
:1007200040F2FF3341F480119A4202DA0020014680
:10073000704740F233439A42A2F2334202DC524203
:1007400000F037B800F026B830B5002904DB4FF0D0
:100750000044404264EB0101002B04DB4FF00044F5
:10076000524264EB0303994208BF904230BD00003F
:10077000064C074D06E0E06840F0010394E80700EE
:1007800098471034AC42F6D3FFF7B4FC8832000827
:10079000A8320008202A04DB203A00FA02F10020E7
:1007A00070479140C2F1200320FA03F319439040AF
:1007B0007047202A04DB203A21FA02F0002170471A
:1007C00021FA02F3D040C2F12002914008431946B9
:1007D0007047202A06DBCB17203A41FA02F043EAA1
:1007E000E07306E041FA02F3D040C2F120029140EA
:1007F000084319467047FEE7074910B540180AD16B
:1008000001214C06204600F04BFA2046BDE810407E
:10081000002100F045BA10BD009CFFBF202209B1A5
:1008200002617047C2607047F0B5027801219140C3
:100830002D4A136843F0010313602B4B1C331C68D3
:100840008C431C60284C284D87780C3440352E1D75
:10085000A7B927688F432760C788B0F80AC047EA5E
:100860000C4790F800C045F83C708788B0F808C085
:1008700047EA0C4790F800C046F83C708778012F93
:100880000ED127680F432760446807784FEA344445
:1008900045F83740846805784FEA344446F83540D7
:1008A000114C4578241D002D256806D00D43256088
:1008B0000D4C8589143415B104E08D43F7E72568A4
:1008C0008D4325608589012D02D125680D43256062
:1008D000807B012802D1186808431860106820F056
:1008E00001001060F0BD000000660040002A42696F
:1008F00001D00A4300E08A434261704710B50268A4
:10090000002322F002020260026842F0010202604B
:100910004FF6FF7202E05B1C934202D04468E4078A
:10092000F9D04368DB073ED00B78012B03683CD03D
:1009300023F0800303604B78012B036838D023F049
:10094000400303608B78012B036834D023F020032D
:100950000360CB78012B036830D023F010030360D1
:100960000B79012B03682CD023F0080303604B792B
:10097000012B036828D023F0040303608B79CC7922
:100980009B0743EA04630C7A43EA04434C7A49899F
:1009900043EA0453491E0B43C361016821F001017E
:1009A0000160002116E0002010BD43F08003C1E784
:1009B00043F04003C5E743F02003C9E743F01003C9
:1009C000CDE743F00803D1E743F00403D5E7491C22
:1009D000914202D04368DB07F9D14068C007E2D1F9
:1009E000012010BD10B400EB0113D3F8B04114F096
:1009F00004041472D3F8B04128D0E408C2F80440CB
:100A000003F5D8731C6804F0020454725C6804F0A7
:100A10000F0494725C68240AD4749C68D4729C6835
:100A2000240A14739C68240C54739C68240E9473D9
:100A3000DC68D473DC68240A1474DC68240C5474F5
:100A4000DB681B0E937410BCFFF7E8BE640D1460E6
:100A5000D6E70021017041708170C1700171417150
:100A60008171C17103210172022141720121418111
:100A7000704730B50246002093685B0108D4906847
:100A8000000101D5012003E09068C00031D50220AB
:100A900002EB0012D2F8803103F00103C2F880317A
:100AA0000B7A43B3D2F880414D681C434B7A43EA3A
:100AB000C5031C43C2F880418B7A02F5C07203F073
:100AC0000F038B72536823F00F03536053688C7AC3
:100AD00023435360CB7ACC6843EA04239360CB7BF7
:100AE000096943EA0121D160116841F001011160F7
:100AF00030BD042030BDD2F880314C7A23430C88BD
:100B000043EA4453C2F88031D6E77047F0B5CA785B
:100B1000002502F00F03D20601D58A7813430C7822
:100B20004FF00F0E0122ECB1D0F800400F8802FA0E
:100B300005F63740B74211D14FEA850C0EFA0CF793
:100B400024EA070703FA0CF43C43CF78282F02D09D
:100B5000482F02D002E0466100E006616D1C082DBE
:100B6000E4D304600C88FF2C1ED944685FF00006B3
:100B700006F1080702FA07F50F882F40AF420FD1A0
:100B80004FEA860C0EFA0CF7BC4303FA0CF73C4311
:100B9000CF78282F00D14561CF78482F00D105614B
:100BA000761C082EE4D34460F0BD0000F0B5104D73
:100BB0006A68440D260184B2C0F30157B440C0F303
:100BC0000343032F05D0C0020AD503209840824377
:100BD00007E0686822F0706320F07060686002E0EF
:100BE000A24342F0706301B123436B60F0BD00008B
:100BF000000001400246002092680A4200D0012015
:100C000070474161704701617047FEE7FEE770473A
:100C1000F0B50F21C478027801234FF0E026DCB153
:100C2000124C2468457804F4E064C4F5E064240AB6
:100C3000C4F10407E1408478BD400C402C432101FD
:100C40000B4C1155007800F01F018B40400906EB5A
:100C50008000C0F80031F0BD02F01F008340500951
:100C600006EB8000C0F88031F0BD00000CED00E024
:100C700000E400E0024908430249086070470000B0
:100C80000000FA050CED00E0044A0029D16901D00A
:100C9000014300E08143D161704700000010024031
:100CA000044A0029116901D0014300E08143116128
:100CB0007047000000100240044A0029916901D0E9
:100CC000014300E081439161704700000010024041
:100CD000044A0029D16801D0014300E08143D1607A
:100CE000704700000010024030B51F494A6812F0FA
:100CF0000C031E4A03D0042B01D0082B22D0026023
:100D00004A680F231A4C03EA1212A35C0268DA4005
:100D100042604B68072505EA1323E35C22FA03F3DC
:100D200083604B6805EAD323E35C22FA03F2C260D6
:100D30004968032303EA9131231F595CB2FBF1F1A7
:100D4000016130BD4A68022302F4701203EB924243
:100D50004B6813F4803F02D04B689B0301D5054BD1
:100D600000E0024B5A43CAE70010024000127A002A
:100D70002800002000093D000029018802D041F030
:100D8000400101E021F0400101807047024600204F
:100D900012890A4200D0012070478181704730B526
:100DA00002884C8802F441530A88CD8822438C88FB
:100DB0002C4322430C8922434C8922438C892243B1
:100DC000CC8922431A430280828B22F40062828300
:100DD000098A018230BD00000CB50021264801912E
:100DE0000091026842F4803202604FF4A06302680E
:100DF00002F400320092019A521C0192009A12B938
:100E0000019A9A42F3D10268920333D501210091ED
:100E10001A490A6842F010020A600A6822F00302C6
:100E20000A600A6842F002020A6041684160416853
:100E30004160416841F480614160416821F47C1166
:100E40004160416841F4E8114160016841F08071FE
:100E5000016001688901FCD5416821F0030141600E
:100E6000416841F0020141604168C1F381010229FA
:100E7000FAD10CBD0091FEE70010024000200240B4
:100E80000C48016841F00101016041680A4A1140C3
:100E900041600168094A11400160016821F4802124
:100EA0000160416821F4FE01416000218160FFF78B
:100EB00093BF0000001002400000FFF8FFFFF6FEA5
:100EC0003EB501210846FFF7DFFE4FF08044204683
:100ED00000F040F84FF47A70ADF8040041F61F407E
:100EE000ADF800000020ADF802006946204600F091
:100EF0009FF80121204600F01BF8012211462046F0
:100F000000F08EF83EBD000010B501218C07204690
:100F100000F07AF8002807D00121204600F00BF8F5
:100F200002480168491C016010BD0000200000203B
:100F3000C94301827047C943018270470029018873
:100F400002D041F0010102E040F2FE321140018086
:100F5000704700002A4B10B51915C21A4C00984270
:100F60003BD010DCB0F1804F22D0264A801826D02A
:100F700088422BD0A04241D101210820FFF790FEEA
:100F80000021082036E08A422ED0B2F58E3F0DD0E7
:100F9000B2F5923F32D101214C032046FFF798FE73
:100FA0002046BDE810400021FFF792BE0121F4E782
:100FB00001210846FFF774FE002101201AE00121FB
:100FC0000220FFF76DFE0021022013E00121042022
:100FD000FFF766FE002104200CE001211020FFF73E
:100FE0005FFE0021102005E001212020FFF758FEC0
:100FF00000212020BDE81040FFF752BE10BD0000C8
:101000000010004000FCFFBF02460020138A9289B6
:101010000B4202EA010202D0002A00D001207047F0
:10102000002A828901D00A4300E08A438281704706
:10103000028802F08F020280CA884B881A43038814
:101040001A4302808A8882850A880285054A90426E
:1010500002D0054A904201D1097A0186012181829C
:1010600070470000002C01400034014070B5084D6D
:1010700040F225542146284600F055F8002805D0B6
:1010800021462846BDE8704000F018B870BD000049
:101090000044004070B5084D40F2255421462846D2
:1010A00000F041F8002805D021462846BDE87040F0
:1010B00000F004B870BD0000004800400A0A012199
:1010C0009140C943018070470029818902D041F4D1
:1010D000005101E021F40051818170471FB50446A1
:1010E00000910021ADF80810ADF804100C20ADF807
:1010F0000610ADF80C10ADF80A006946204600F065
:1011000049F8012240F22551204600F02BF8012138
:101110002046FFF7D9FF1FBD0246002012880A4271
:1011200000D00120704730B501F01F0201240025D6
:10113000C1F3421304FA02F2012B0FD0022B0FD09D
:10114000838A4FEA11210088134204FA01F400EA6D
:10115000040001D000B10125284630BD8389F0E7A5
:10116000038AEEE710B5C1F3421301F01F04012119
:10117000A140012B07D0022B07D01430002A0268AF
:1011800005D00A4304E00C30F8E71030F6E78A4354
:10119000026010BD30B50446008A85B00D464CF69D
:1011A000FF710840E98801432182A1894EF6F310BE
:1011B0000140A8882A8910436A890A431043A08104
:1011C000A08A4FF6FF410840A9890143A1826846E1
:1011D000FFF78AFD1148844201D1039800E002988C
:1011E000642200EBC00101EB001029686FF01805C4
:1011F0008900B0FBF1F0B0FBF2F109010B096B4380
:1012000000EB8300322303EB0010B0FBF2F000F0A0
:101210000F000843208105B030BD000000380140B8
:101220002DE9F04115460E46074600240BE0315DDE
:10123000384600F00CF840213846FFF76DFF0028D3
:10124000F9D0641CA4B2AC42F1D3BDE8F081C1F383
:10125000080181807047000000B587B000208DF83C
:1012600008008DF80C00059006908DF80A008DF8A6
:101270000D00009001908DF813008DF80B008DF893
:101280000E0001466A461048FFF7ACFBDDF80B0084
:101290009DF80E1000BA20F0FF00084305900B499E
:1012A0000198884207D009491031884203D0074984
:1012B0002031884206D10648002306AA05A9006805
:1012C00001F076FE07B000BD0064004002F51F1873
:1012D00010000020FEE700000FB4084B10B504A971
:1012E00002AA039800F0CAF8044602A9002000F000
:1012F00068FC204610BC5DF814FB0000C31B00080E
:1013000002E008C8121F08C1002AFAD170477047CE
:10131000002001E001C1121F002AFBD1704700002C
:101320002DE9FF5FDDE90220010DDDF838B0024351
:1013300010D10F9801244CA2012808D00021009858
:101340000F9BC0E90021C0E90243BDE8FF9F6FEA9F
:101350000B01F4E7A1F2FF3144F6105041430D14A4
:101360000F9801280ED0A5EB0B00401C4FF0000495
:101370003E4EDFF8FC90B0F1000AA04605DACAF153
:10138000000717E0CBF10000F0E7074612E0F8078E
:1013900007D02246334640464946FFF74BF9804680
:1013A00089462246334610461946FFF743F904465C
:1013B0000E467F10002FEAD1DDE90201BAF1000FDD
:1013C00042464B4602DAFFF735F901E0FEF704FF2B
:1013D00004460E460022274BFFF7B6F903D84FF01C
:1013E000FF30014607E00022234B20463146FFF73D
:1013F0007AF8FFF791F9102409E0002C0ADB0A22A1
:101400000023FEF7AAFF019B30321A55641E50EAF2
:101410000102F2D1641C019AC4F1110314440F9A21
:10142000012A09D00122084301D15B450FDD4FF0AD
:10143000000205F101050DE0084303D1A3EB0B0504
:101440006D1E09E000204FF0110B0F9088E701DAC4
:1014500000226D1E002A83D000980F99C0E9023146
:10146000C0E9004571E700003000000000002440A2
:101470000000F03F0000F0430000E03F2DE9FF4F87
:1014800095B09B4689460646002512E2252878D16C
:101490000024761CF94A2746012105943378203B25
:1014A00001FA03F0104202D00443761CF6E73078CC
:1014B0002A2811D06FF02F033078A0F13002092ACA
:1014C00016D8059A44F0020402EB820203EB4202B2
:1014D0001044761C0590EFE759F8042B0592002A7A
:1014E00003DA504244F40054059044F00204761CA0
:1014F00030782E2816D116F8010F44F004042A285B
:101500000DD06FF02F023078A0F13003092B09D8ED
:1015100007EB870302EB4303C718761CF3E759F880
:10152000047B761C30786C280FD006DC4C2817D052
:1015300068280DD06A2814D104E0742810D07A28C5
:101540000FD10DE044F400140AE044F4801401E0EB
:1015500044F440147278824202D1761C04F580145F
:10156000761C307866280BD013DC582877D009DC3D
:10157000002875D04528F6D04628F4D047281AD13F
:101580009FE118E0632835D0642879D0652812D10E
:1015900097E1702873D008DC6728F1D069286FD0F4
:1015A0006E280DD06F2806D1B5E073282CD0752891
:1015B00075D0782874D05A46179990476D1C76E1FB
:1015C000C4F30250022809D003280DD0D9F8001026
:1015D00004280DD00D6009F1040968E1D9F8001064
:1015E000EA17C1E90052F6E7D9F800100D80F2E7DA
:1015F0000D70F0E719F8041B8DF8001000208DF82D
:101600000100EA46012003E059F804AB4FF0FF3037
:1016100061074FF0000102D40DE008F10101884696
:10162000B9420FDA8045F8DB1AF808100029F4D126
:1016300008E008F1010188468142FADB1AF8081037
:101640000029F6D105985B46A0EB080721463846ED
:10165000179A00F09EFA284400EB080507E04DE0D9
:101660002BE10DE01AF8010B5A4617999047B8F193
:101670000108F7D25B4621463846179A14E142E04A
:101680000A220092C4F302524FF0000A022A08D044
:1016900059F804CB032A4FEAEC710AD00DE029E097
:1016A0002AE009F1070121F00702F2E802C19146A0
:1016B00009E00FFA8CFC4FEAEC71042A03D14FFACF
:1016C0008CFC4FEAEC71002907DA0A460021DCF1B4
:1016D000000C61EB02012D2202E0220504D52B2231
:1016E0008DF80420012203E0E20701D02022F7E771
:1016F000904653E00A2102E010220DE010214FF045
:10170000000A00910BE010224FF0000A44F004049C
:101710000827009203E008224FF0000A0092C4F369
:101720000252022A05D059F804CB0021032A08D01E
:1017300009E009F1070121F00702F2E802C1914630
:1017400005E01FFA8CFC042A01D10CF0FF0C4FF0CD
:101750000008220722D5702827D0009B83F01003B1
:1017600053EA0A0309D15CEA010206D030228DF85F
:1017700004208DF8050002229046009B83F00803A8
:1017800053EA0A030AD15CEA010201D1620705D5D6
:1017900030228DF804204FF001087F1E582809D010
:1017A00037A003900EA8029013E040228DF8042089
:1017B0000122E1E737A0F4E753466046009AFEF7BE
:1017C000CCFD84460398825C0298A0F1010002904F
:1017D00002705CEA0100EFD1029806A9A1EB0000BB
:1017E00000F1200A600702D524F4803400E00127CC
:1017F000574502DDA7EB0A0000E0002000EB0A01DC
:10180000009005984144A0EB01000590E00306D448
:101810005B462146179A059800F0BBF9054400275E
:1018200006E001A85A46C05D179990476D1C7F1CC1
:101830004745F6DBE0030CD55B462146179A059831
:1018400000F0A7F9054404E030205A461799904764
:101850006D1C0099481E00900029F5DC08E00298F4
:1018600002995A460078491C0291179990476D1CBD
:10187000BAF10001AAF1010AF1DC6BE109280100CB
:1018800030313233343536373839616263646566F6
:1018900000000000303132333435363738394142B8
:1018A000434445460000000000F060F9054406F19D
:1018B0000106307800287FF4E9AD19B02846BDE86C
:1018C000F08F620700D4062709F1070222F0070C07
:1018D000FCE80223E14603F000485FEA080C02D06E
:1018E0000FF27C2C0DE05FEA045C02D50FF2742C41
:1018F00007E05FEAC47C02D00FF26C2C01E0AFF28B
:10190000700C4FF0FF3823F00043CDF850C065282D
:101910000CD006DC452809D046281DD047283ED1EA
:101920003EE0662818D0672839D139E00021112F10
:1019300001DB112000E0781CCDE9000106A90EA80A
:10194000FFF7EEFCDDE90F010E9A039100210092F2
:1019500007F1010A04914EE04FF000400097CDE9F5
:10196000011006A90EA8FFF7DBFCDDE90F020392C8
:101970000E9B11990022DDF80CA00093049219B976
:1019800007F1010100EB010AB7EB0A0004D4C0F132
:10199000FF3007F1010A0490AAEB0700019046E02E
:1019A000012F00DA01270021112F01DD112000E0B5
:1019B0003846CDE9000106A90EA8FFF7B1FCDDE924
:1019C0000F010E9A0391002104910092BA4621075B
:1019D0000CD40399514500DA8A46BAF1010F05DDAE
:1019E000009AAAF10101515C302908D0B84202DA0C
:1019F00010F1040F06DA0121CDE9011017E0AAF178
:101A00000101E9E7002805DC049901440491AAEBEF
:101A1000000102E0411C514500DD8A460499A0EB1B
:101A2000010000F1010001904FF0004002902007FA
:101A300004D40198504501DBCDF8048000208DF8D6
:101A40004F0002980DF14F07B0F1004F25D02B2029
:101A50000E9002984FF0020800280CDA40420290E3
:101A60002D200E9007E00A210298FEF760FC30312D
:101A7000029007F8011DB8F10001A8F10108F2DC9D
:101A800002980028EFD1791E0E980870307800F087
:101A9000200040F0450007F8020D12A8A0EB070057
:101AA00000F107081498007800B1012000EB0A014A
:101AB000019801EBE07105984144A0EB0100A0F111
:101AC00001000590E00306D45B462146179A05986D
:101AD00000F05FF805441498007820B15A46179931
:101AE000904705F10105E00323D55B462146179A8F
:101AF000059800F04EF805441BE00498002807DB29
:101B0000DDE90301884203DD0098405C179901E09C
:101B1000179930205A46904704986D1C401C049039
:101B20000198401E019004D12E205A4617999047E3
:101B30006D1CBAF10001AAF1010ADEDC05E017F81C
:101B4000010B5A46179990476D1CB8F10001A8F196
:101B50000108F4DC5B462146179A0598A4E60000CC
:101B60002D0000002B000000200000002DE9F041B6
:101B7000044600251E461746880405D406E039466B
:101B80002020B04705F10105641EF8D52846BDE8C0
:101B9000F0812DE9F041044600251E469046C80319
:101BA00001D5302700E02027880405D506E041460E
:101BB0003846B04705F10105641EF8D52846BDE852
:101BC000F0810A68531C0B601070704770B5074CA9
:101BD000054602212046FFF7D9F80028F9D029460A
:101BE0002046BDE87040FFF7D8B800000030014043
:101BF0000C4F0D4D00244FF400464FF4FA7800BF0F
:101C000094F001043146384602D0FEF7FCFF01E0B3
:101C1000FEF7F7FF00F088F82870404601F036F82C
:101C2000EEE70000000C01400000002038B5012163
:101C30000920FFF741F801214806FFF725F84FF486
:101C40008070ADF8000048200B4C8DF80300694609
:101C50002046FEF75BFF6015ADF8000018208DF8F8
:101C6000030069462046FEF751FF01214FF4EA10B8
:101C7000FEF79CFF38BD0000000C014070B51A4E05
:101C800088B03046FEF7B8FD04A8FEF7E2FE022059
:101C90008DF81800012500248DF819501820ADF892
:101CA0001A000494059404A93046FEF727FE8DF827
:101CB00000508DF80140ADF80440ADF80840ADF893
:101CC0000C408DF80250ADF80640ADF80A408DF892
:101CD0000E506846FEF7A8FD012202213046FEF7AD
:101CE00005FE08B070BD00000064004030B585B04E
:101CF0000B4C019404248DF8084000258DF8095000
:101D00008DF80C108DF80A408DF80B008DF80D2021
:101D10008DF80E3069460348FEF7ABFE05B030BDC6
:101D2000F5021F1800640040F8B5404C20780128E7
:101D300009D0A06838B1401EA0604FF4FA7000F0DE
:101D4000A5FF0120F8BD3A4E4FF400552946304614
:101D5000FEF750FF38B9052000F098FF29463046BD
:101D6000FEF748FF50B100254FF480713148FEF76F
:101D700041FF68B1207801280FD012E020780128B7
:101D800004D100BF00F05CF80028FBD10220F8BDB0
:101D900000F004F938B10420F8BD00F051F8002833
:101DA000FBD10320F8BD312304220121F12000954D
:101DB000FFF79CFF204D002350226946286801F060
:101DC00039F81E49009888421CD10A2000F05EFFB5
:101DD000312304221946F120FFF788FF0023322225
:101DE0006946286801F026F860B1207860B100F0FB
:101DF000FDF898B16078B8B100F022F80028FBD166
:101E00000820F8BD0520F8BD00F036FD0028FBD104
:101E100000F086FA0028FBD10620F8BD00F010F88B
:101E20000028FBD10720F8BD0920F8BD14000020D0
:101E3000000C01400008014010000020310401F1B5
:101E400038B50024872304220221F1200094FFF7F3
:101E50004DFF184D002332226946286800F0EAFF42
:101E600015490098884201D0081738BD0A2000F0B3
:101E70000DFF012300221221F120FFF737FF00237D
:101E800032226946286800F0D5FF0C490098884244
:101E900001D0C81638BD0A48C821816004700021ED
:101EA0004FF08040FFF74AF800210120FEF7ECFEDA
:101EB000002038BD10000020870402F1010012F15B
:101EC0001400002070B50D4D044640212846FEF751
:101ED0009AFEF820FFF77AFE04F0F000FFF776FE96
:101EE0002007000EFFF772FE012000F0CFFE28460B
:101EF000BDE870404021FEF784BE000000080140AC
:101F000070B50D4D044640212846FEF77CFEFA20B0
:101F1000FFF75CFE04F0F000FFF758FE2007000E0C
:101F2000FFF754FE012000F0B1FE2846BDE87040E6
:101F30004021FEF766BE0000000801400148C0884D
:101F4000704700001400002010B509A1802000F0A7
:101F50002FF90CA1912000F02BF90CA1892000F0A1
:101F600027F9BDE810400BA1992000F021B900002D
:101F7000B9FEB9A4B4F3BBFAC6F7C8CBBCAFCDC5A4
:101F800000000000D7B4CCACA3BA0000CAB1BCE4D6
:101F9000A3BA0000B5E7C1F7A3BA0000F8B5114E27
:101FA00000240094B0782546012807D0302304226D
:101FB0000121F120FFF79AFE0B4F03E00020F8BD4E
:101FC000641CE4B2002364226946386800F032FFE2
:101FD0000128F5D01CB1B5800120B070EEE7B570D6
:101FE0000120F8BD140000201000002038B50020AA
:101FF0000090302304220121F120FFF777FE164CD8
:10200000002332226946206800F014FF134900982B
:10201000884201D0002038BD0A2000F037FE30236E
:1020200004223121F120FFF761FE002332226946AC
:10203000206800F0FFFE0028EDD00949094A009809
:10204000C8801268B2F5966F04D3074A904201D255
:1020500001204870012038BD10000020300401F13B
:102060001400002020000020E00031F138B50121EB
:102070000420FEF721FE01210820FEF71DFE4FF48B
:102080004050ADF8000001248DF8024048258DF83D
:10209000035069460748FEF739FD2002ADF80000FD
:1020A0008DF802408DF8035069460348FEF72EFD77
:1020B00038BD0000000C01400008014010B540216F
:1020C0000948FEF79EFD3020FFF7FCFE0C20FFF7CD
:1020D000F9FE0120FFF7F6FE0220FFF7F3FEBDE850
:1020E00010408020FFF7EEBE0008014010B5FFF75A
:1020F00025FF0146BDE810409C2000F001B800001B
:102100007CB5064600200D4600906C460A460190BC
:102110000AA12046FFF7E0F83046FFF7D3FE0A2D6C
:1021200007D22020FFF7ECFE03E0C0B2FFF7E8FE85
:10213000641C20780028F8D17CBD000020257800A0
:102140007CB5064600200C4600906D46019011F1CA
:10215000FF4F01D381F000442046FEF7B9F8024654
:102160000B460FA16846FFF7B7F83046FFF7AAFE07
:102170000D48844202DA2020FFF7C2FE0B48844259
:102180000ADA2020FFF7BCFE2020FFF7B9FE03E0AB
:10219000C0B2FFF7B5FE6D1C28780028F8D17CBDD1
:1021A00020252E3166000000000020410000C842BA
:1021B00010B50C46FFF786FE03E000BFFFF7A0FE58
:1021C000641C20780028F9D110BD000038B5012129
:1021D0000820FEF771FD4FF44044ADF80040102098
:1021E0008DF803000320064D8DF80200694628464D
:1021F000FEF78CFC21462846FEF705FD38BD0000A1
:10220000000C01401CB5FEF73BFEFFF72FFFFFF768
:10221000DDFFFFF70BFDFFF731FD00F005FC00F0DF
:10222000DBFB00F04DF8FEF74BFE002204211120ED
:1022300000F0E4FD1249022400230861081DCDE9E5
:10224000004064220FA1134800F00AFF0C4800234D
:102250000830CDE9004064220FA1134800F000FFD0
:10226000074901200C31CDE9000100234FF496729B
:102270000EA1124800F0F4FE00F03EFD00201CBD4F
:102280000000002055736172744C63645461736B79
:1022900000000000192B00085573617274497264C4
:1022A000615461736B000000D92A000843616E43DA
:1022B00068617267655461736B000000F11B000870
:1022C00038B54FF4C060FEF7D5FC26208DF800002D
:1022D00000248DF8024001258DF803506846FEF772
:1022E00097FC27208DF800008DF802408DF80350F0
:1022F0006846FEF78DFC14208DF800008DF8024032
:102300008DF803506846FEF783FC1C208DF8000012
:102310008DF802408DF803506846FEF779FC38BD11
:1023200038B50024872304220221F1200094FFF70E
:10233000DDFC184D002332226946286800F07AFD42
:1023400015490098884201D0081738BD0A2000F0CE
:102350009DFC00231A461221F120FFF7C7FC002341
:1023600032226946286800F065FD0C4900988842D1
:1023700001D0C81638BD0A480121447001700948CF
:1023800004600846FEF780FC01218807FEF7D6FDB1
:10239000002038BD10000020870402F1000012F177
:1023A00014000020200000202DE9F041184C0F46B9
:1023B0000546E6682068001D00F0E2FB38B9206899
:1023C00090F82C1001208840216981432161681C0C
:1023D00007D137B12168BDE8F041091D0D4800F073
:1023E00007BC20683544B5424560216801F104010D
:1023F00004D2A06BBDE8F04100F0E2BB606B00F0DE
:10240000DFFBA06A854200D2A562BDE8F081000032
:102410003C000020600300202DE9F041054600F05B
:10242000F3FB2D4CA068401CA06020682B4F10B11E
:10243000606930B32BE02560A068012827D1002611
:1024400006EB860007EB800000F0ACFB761C202E2C
:10245000F6D3234800F0A6FB2148143000F0A2FB7D
:102460001F48283000F09EFB1D483C3000F09AFBCE
:102470001B48503000F096FB194860631430A0638D
:1024800005E02068E96AC06A884200D82560606A71
:10249000401C6062E96A0120226988401043206183
:1024A00001EB810007EB8000291D00F0A1FB00F08B
:1024B000B9FB606900280CD02068E96AC06A8842CC
:1024C00007D208494FF080500860BFF34F8FBFF329
:1024D0006F8FBDE8F08100003C00002090000020DC
:1024E0001003002004ED00E070B5114E114C17E010
:1024F00000F02CFC3068B8B100F06CFE00F084FBFA
:10250000F068C568281D00F03BFBA068401EA06075
:102510006068401E606000F085FB284600F04CF8C3
:1025200060680028E4D170BD00F054FEF8E70000B8
:102530004C0300203C00002030B4026C0B46002A03
:102540000BD0C1681144C1604468A14201D3016845
:10255000C16030BC1846FDF72DBE30BC70472DE978
:10256000F041856B164604460027026CFAB17EB135
:10257000E068FDF71FFEE168206C091AE16022683F
:10258000914202D26168081AE060022E0DD00EE07E
:10259000A068FDF70FFE216CA0680844A060616888
:1025A000884204D32068A06001E005B16D1E6D1C57
:1025B000A5633846BDE8F08110B50446006B00F015
:1025C0003BFB2046BDE8104000F036BB10484FF4FE
:1025D0002051420706D0C01D0D4920F00700411AC6
:1025E000C1F520510B4A00230144C2E90003083918
:1025F000103A21F0070111604B600B600B1AC0E923
:10260000001393604FF000405360D06070470000AB
:102610007403002088000020074C4FF08056074DBF
:10262000FFF762FF20680128FAD92E60BFF34F8FB1
:10263000BFF36F8FF4E700009000002004ED00E08E
:102640002DE9F0479A46DDE9096481466FF00303FE
:10265000206B03EB82021044089D20F00707002046
:1026600023180A5C83F834200A5C12B1401C10283D
:10267000F6D34FF0000884F84380202D00D31F25A7
:10268000201DE56200F099FA04F1180000F095FAB7
:10269000C5F120002461A0616462C4F8448084F81C
:1026A000488052464946384600F0D4F82060002E53
:1026B00000D03460BDE8F08730B5114900E0114624
:1026C0000A688242FBD34B685C18844203D140689D
:1026D00018444860084643681C18944209D1084CC5
:1026E000103C2468A24209D052681A4442600A6829
:1026F00012680260814200D0086030BD0460F9E7D2
:102700008800002010B5044600F07EFAA06B28B1C6
:102710005FF0000400F086FA204610BD0124F9E7BE
:102720000648416B096829B1416BC968C9684968A5
:10273000816270474FF0FF31FAE700003C00002053
:10274000BF2080F31188BFF34F8FBFF36F8FFEE779
:102750002DE9F041044600F057FA94F9455004F190
:10276000240609E0606A48B1304600F0FFFC08B179
:1027700000F0A4FA6D1E6DB2002DF3DC4FF0FF36B1
:1027800084F8456000F04EFA00F03EFA94F94450A7
:1027900004F1100709E0206948B1384600F0E6FC72
:1027A00008B100F08BFA6D1E6DB2002DF3DC84F8D9
:1027B0004460BDE8F04100F035BA00002DE9F04179
:1027C0000546002700F0C2FA214E306808B9FFF72D
:1027D000FDFEF068054236D1ADB30835680704D078
:1027E00005F00700C0F10800054465B37068854234
:1027F00029D81748103001460C6801E020460C46E5
:102800006168A94202D221680029F7D131688C425F
:1028100019D007682168016060680837411B1029DA
:1028200004D9601941606560FFF746FF6168706810
:10283000401A7060B268904200D2B060F068014304
:102840000020C4E9000100F0C5FC3846BDE8F08175
:102850007800002010B5031F4FF080741C601B1F10
:1028600021F001011960191F024B0B601439403827
:102870000A6010BD4127000838B5002000902123D0
:1028800004220221F120FFF731FA284C00233222E2
:102890006946206800F0CEFA25490098884201D0A8
:1028A000081738BD0A2000F0F1F9B3230E221221D7
:1028B000F120FFF71BFA002332226946206800F05E
:1028C000B9FA1C490098884201D0C81638BD0A20C0
:1028D00000F0DCF9232304220221F120FFF706FA9D
:1028E000002332226946206800F0A4FA10490098BB
:1028F000891C884202D06FF0020038BD0A2000F027
:10290000C5F900230A221221F120FFF7EFF9002375
:1029100032226946206800F08DFA07490098884203
:1029200001D0881638BD002038BD000010000020FE
:10293000210402F1B30E12F1000A12F110B50121C7
:1029400086B00803FEF7B8F90020ADF800004FF498
:102950008271ADF802100121ADF808104902ADF8FE
:102960000A101021ADF80C10ADF80400ADF8060007
:10297000ADF80E000720064CADF810006946204661
:10298000FEF70DFA01212046FEF7F6F906B010BD5C
:102990000030014038B501210520FEF78DF9A02057
:1029A000ADF8000003248DF802401820094D8DF881
:1029B000030069462846FEF7A9F84020ADF800005C
:1029C0008DF8024010208DF8030069462846FEF776
:1029D0009DF838BD0008014010B5FFF7DBFFBDE8EA
:1029E0001040FFF7ABBF000070B50D4E0C4605461A
:1029F00001213046FEF707F902213046FEF703F9C0
:102A0000224629460748FEF70BFC01213046FEF717
:102A1000F8F83046BDE870400221FEF7F2B8000039
:102A2000000C014000480040F8B501210D20FEF7E0
:102A300043F901214804FEF727F94FF4E131224818
:102A4000FEF74CFB18268DF8036004241F4FADF8E9
:102A5000004003258DF8025069463846FEF756F8C7
:102A60008DF803400820ADF8000069463846FEF7AF
:102A70004DF801218804FEF707F94FF41661144858
:102A8000FEF72CFB8DF803602002ADF80000114E1C
:102A90008DF8025069463046FEF738F88DF803404D
:102AA0006002ADF8000069463046FEF72FF8ADF839
:102AB000005001208DF8020010208DF803006946B7
:102AC0003046FEF723F8F8BD0044004000080140FE
:102AD00000480040000C01400A4D4FF480444FF480
:102AE0007A7621462846FEF78CF80C2106A0FFF7DF
:102AF0007BFF21462846FEF786F8304600F0C6F8F0
:102B0000EFE70000000C014048656C6C6F776F7256
:102B10006C640D0A0000000008B500208DF800006C
:102B2000124CC82000F0B2F8FFF7C8FAFFF70CFA11
:102B30000F4D104E104F2A7810A16846FEF7CCFBBF
:102B400069469520FFF734FB3068FDF7B4FB00229F
:102B50003B46FDF741FBFDF7CEFB01468C20FFF71E
:102B6000EFFA2046FFF7C2FAE5E7000033332341CE
:102B700000000020200000200000244025780000F4
:102B8000D0E9013201699A60D0E901235A604A68AC
:102B9000824201D182684A60002202610868401EB8
:102BA0000860704700F108014FF0FF32C0E90112E0
:102BB000C16001610021016070470021016170471F
:102BC00030B50B685A1C02D000F1080202E002691D
:102BD00004E02246546825689D42FAD953684B6048
:102BE00099608A60516008610168491C016030BDCC
:102BF00042684A6093688B6093685960916008618D
:102C00000168491C01607047BF2080F31188BFF341
:102C10004F8FBFF36F8F02480168491C01607047F6
:102C20003800002003490868401E086001D180F385
:102C3000118870473800002070B5002818D00D4D5D
:102C4000A0F108046068E968084211D02268002AEF
:102C50000ED18843606000F079F8606869680844C4
:102C600068602046FFF728FDBDE8704000F0B2BA6A
:102C700070BD0000780000204FF0E0200249416163
:102C800007210161704700003F19010010B50200E3
:102C900009D000F05BF800211046FFF785FB00F03B
:102CA00099FA002807D104494FF080500860BFF31B
:102CB0004F8FBFF36F8F10BD04ED00E0014901207D
:102CC000C86170473C00002010B50C4605490968F2
:102CD0001831FFF775FF2046BDE810400121FFF7CE
:102CE00063BB00003C00002002490A6A0260C96818
:102CF000416070473C0000201CB510480024CDE91D
:102D00000040234680220EA10F4800F0A9F90128B7
:102D100012D1BF2080F31188BFF34F8FBFF36F8FA5
:102D200006484FF0FF312C38816201214161C460B7
:102D3000BDE81C4000F034B81CBD00006800002055
:102D400049444C4500000000192600080248016B68
:102D5000491C0163704700003C0000200E48016BD5
:102D600011B10121C16170470021C16101690B4AA4
:102D7000B1FA81F1C1F11F0101EB810102EB810187
:102D800001F108034A6852684A609A4201D15268C8
:102D90004A60D168016070473C000020900000202C
:102DA000094810B5016841F47F010160016841F0F4
:102DB0007F410160FFF760FF044900200860FDF7D4
:102DC000B1F9002010BD000020ED00E03800002027
:102DD00010B5BF2080F31188BFF34F8FBFF36F8F03
:102DE00000F06AF918B104494FF0805008600020E3
:102DF00080F3118810BD000004ED00E070B50E00F6
:102E0000054612D005FB06F04830FFF7D7FC04005A
:102E100009D004F1480120464EB10160C0E90F56C7
:102E2000012100F08BF8204670BD0020ECE7006027
:102E3000F4E700002DE9FF4F002783B09A468B4648
:102E40000446B9464FF08056DFF8EC80FFF7DCFE11
:102E5000A56B25B359462046E768FFF76DFBBAF12D
:102E6000000F14D0E760606A58B104F1240000BF7D
:102E700000F07CF928B1C8F80060BFF34F8FBFF3B2
:102E80006F8FFFF7CFFE012007B0BDE8F08F6D1EFA
:102E9000A56320690028F4D004F11000E8E7059844
:102EA00008B11FB106E0FFF7BDFE27E06846FFF757
:102EB0001BFF0127FFF7B6FEFFF748FFFFF7A4FE51
:102EC00094F94400401C01D184F8449094F94500E1
:102ED000401C01D184F84590FFF7A4FE05A968467F
:102EE00000F09AF8002820460AD0FFF731FC00F0E5
:102EF00071F92046FFF706FC0028A7D00020C3E7A1
:102F0000FFF700FC90B104F124000599FFF7DCFE07
:102F10002046FFF71DFC00F05DF9002896D1C8F8A7
:102F20000060BFF34F8FBFF36F8F8FE72046FFF72F
:102F30000FFC00F04FF989E704ED00E070B50D4695
:102F40000446FFF761FED4E90F12206801FB02007E
:102F500060600020A0632068A0600146E06B401E16
:102F600000FB0210E0604FF0FF3084F8440084F86A
:102F7000450004F110004DB1FFF714FE04F12400E8
:102F8000FFF710FEFFF74EFE012070BD21690029FA
:102F9000F8D000F0EBF80028F4D004494FF080504E
:102FA0000860BFF34F8FBFF36F8FEBE704ED00E0D6
:102FB0002DE9F04104461746BF20EFF3118680F358
:102FC0001188BFF34F8FBFF36F8FA26BE06B82420C
:102FD00006D3022B04D0002086F31188BDE8F081CF
:102FE00094F945501A462046FFF7B9FA681C04D0F8
:102FF0006D1C84F845500120EEE7606A0028FAD085
:1030000004F1240000F0B2F80028F4D0002FF2D030
:1030100001203860EFE7000070B50D460446FFF769
:10302000F3FD0E4AD1682868431C0FD02368126A4A
:10303000934202D062688A420AD96268891A814240
:1030400006D2401A28602046FFF74EFE002400E01A
:103050000124FFF7E7FD204670BD00003C00002082
:103060002DE9FF5F8346DDE90E87994616468A46BD
:103070009000FFF7A3FB05001AD04C20FFF79EFB42
:10308000040012D025630021CDE90241CDE900877B
:103090004B46324651465846FFF7D2FA2046FFF7D4
:1030A000BBF9012004B0BDE8F09F2846FFF7C4FD3E
:1030B0004FF0FF30F6E700002DE9F041294C0027E2
:1030C000206B40B1A069401CA061E06900B10127FC
:1030D0003846BDE8F081E668761CE66008D1606B92
:1030E000A16B6163A063206A401C2062FFF718FB9C
:1030F000A06ADFF87480864209D3606B006880B1F3
:10310000606BC068C568686886420DD2A06220689E
:10311000C06A00EB800158F821000128D5D90127A9
:10312000D3E74FF0FF30F1E7281DFFF729FDA86A2C
:1031300018B105F11800FFF723FDE86A01212269A3
:1031400081401143216100EB800108EB8100291DC2
:10315000FFF74EFDE86A2168C96A8842CDD301278E
:10316000CBE700003C000020900000202DE9F0415A
:10317000C068C46804F118000746FFF701FD124D4E
:10318000286B012668B11148394600BFFFF730FDB2
:10319000E06A2968C96A884213D90120EE61BDE856
:1031A000F081201DFFF7ECFCE16A2A6906FA01F0C4
:1031B0001043286101EB8100054901EB8000211DCE
:1031C000E4E70020EBE700003C000020380300208B
:1031D000900000202DE9F04700242646FFF714FD5B
:1031E000264D286B401E2863286BE0BBA968244F3E
:1031F0000120C1B3A7F52A7980463868E8B1F8689C
:10320000C46804F11800FFF7BBFC201DFFF7B8FCF1
:10321000E06A2A6908FA00F11143296100EB800194
:1032200009EB8100211DFFF7E3FCE06A2968C96A08
:103230008842E2D3C5F81C80DFE70CB1FFF770FAD3
:10324000AC694CB14FEA0807FFF736FF00B1EF61F8
:10325000641EF9D10020A861E86920B1094901265E
:103260003007086000E003E0BFF34F8FBFF36F8FBC
:10327000FFF7D8FC3046BDE8F08700003C00002096
:103280003803002004ED00E0A83200080000002010
:103290009000000000130008383300089000002060
:1032A000E8320000101300080000000000000000D9
:1032B000000000000000000000000000000000000E
:1032C00000000000000000000000000002040608EA
:1032D00000000000010203040102030406070809BC
:1032E000AAAAAAAA00000000000000000000000036
:1032F00000000000000000000000000000000000CE
:1033000000000000000000000000000000000000BD
:1033100000000000000000000000000000000000AD
:10332000000000000000000000000000000000009D
:08333000000000000000000095
:040000050800019955
:00000001FF
