:020000040800F2
:1000000070190020990100080D0400080F04000871
:1000100013040008170400081B0400080000000077
:1000200000000000000000000000000001010008C6
:100030001F0400080000000045010008FD2700081B
:10004000AF010008AF010008AF010008AF010008D0
:10005000AF010008AF010008AF010008AF010008C0
:10006000AF010008AF010008AF010008AF010008B0
:10007000AF010008AF010008AF010008AF010008A0
:10008000AF010008AF010008AF010008AF01000890
:10009000390F0008AF010008AF010008AF010008E8
:1000A000AF010008AF010008AF010008AF01000870
:1000B000AF010008AF010008AF010008AF01000860
:1000C000AF010008AF010008AF010008AF01000850
:1000D000AF010008AF010008730900088D0900088E
:1000E000AF010008AF010008AF010008DFF80CD035
:1000F00004F09CFA00480047D7020008701900205D
:10010000224B19680868B0E8F00F80F30988BFF344
:100110006F8F4FF0000080F311884EF00D0E704786
:100120000000000006480068006880F3088862B696
:1001300061B6BFF34F8FBFF36F8F00DF00BF00BF0B
:1001400008ED00E0EFF30980BFF36F8F0F4B1A68E3
:1001500020E9F00F106008B54FF0BF0080F3118860
:10016000BFF34F8FBFF36F8F03F02DFA4FF00000F6
:1001700080F31188BDE8084019680868B0E8F00FFE
:1001800080F30988BFF36F8F704700BF34000020F1
:10019000EFF305807047000005480047FEE7FEE7E3
:1001A000FEE7FEE7FEE7FEE7FEE7FEE7FEE7FEE727
:1001B000ED00000800BF04E000F08BFE142003F007
:1001C00056F9F9E700BF11E04FF40041614801F032
:1001D0001AF80C2160A000F0FEFB4FF400415D48CE
:1001E00001F00FF84FF47A7003F041F9ECE710B525
:1001F000044621469C2000F0DBFA0021204603F053
:10020000D9FF04D258A19C2000F00FFB03E057A1B6
:100210009C2000F00AFB10BD10B555A1802000F015
:1002200004FB58A1912000F000FB58A1972000F09A
:10023000FCFA57A1892000F0F8FA57A18F2000F0AE
:10024000F4FA56A1992000F0F0FA56A19F2000F090
:10025000ECFA10BD544C4FF4FA6003F008F9082290
:1002600052A1554800F09FFB00F0EEFA4FF4FA70EF
:1002700003F0FDF8082251A14F4800F094FB4FF421
:10028000FA6003F0F4F8FFF7C7FF23E0214694205B
:1002900000F08EFA21468C2000F08AFA2046FFF703
:1002A000A6FF4949002000F0E1FB0021012000F0F9
:1002B000DDFB0021022000F0D9FB0021032000F02B
:1002C000D5FB4FF07E51042000F0D0FB002105202B
:1002D00000F0CCFBDAE71CB502F0C7F900F055F9E5
:1002E00000F02EF900F09CF800F0BFF800F0EDFAF5
:1002F00000F013FA00F090FB00220421012002F02C
:10030000EDFA324908603248022100236422CDE927
:10031000001030A1AFF2C30002F08AFE3148022182
:1003200000236422CDE900102FA1AFF2671002F084
:100330007FFE3148012100234FF49672CDE9001071
:100340002EA1AFF28F1002F073FE03F09FFA00208F
:100350001CBD0000000C014048656C6C6F776F722B
:100360006C640D0A000000002B0000002D0000004E
:10037000B9FEB9A4B4F3BBFAC6F7C8CBBCAFCDC5C0
:1003800000000000B5E7C1BFA3BA000025000000CF
:10039000B5E7D1B9A3BA000056000000B5E7C1F730
:1003A000A3BA0000410000003333234153504728D3
:1003B00032290D0A00000000004400405350472835
:1003C00033290D0A00000000000020411000002029
:1003D0000000002055736172744C63645461736B48
:1003E00000000000040000205573617274497264BB
:1003F000615461736B0000000800002043616E438C
:1004000068617267655461736B000000704700BFDC
:10041000FEE700BFFEE700BFFEE700BFFEE7704754
:1004200008B50121092001F0D7F80121480601F0A3
:10043000E0F84FF48070ADF8000048208DF803001C
:1004400069463C4800F032FE4FF40070ADF8000001
:1004500018208DF803006946364800F027FE012178
:100460004FF4EA1000F0F1FE08BD00B587B0324845
:1004700001F0D2FA04A801F0ECFB00208DF8100086
:100480008DF811008DF812008DF813008DF814000E
:100490008DF815008DF816008DF8170002208DF8E4
:1004A000180001208DF819001820ADF81A0004A9D1
:1004B000214801F0C3FA01208DF8000000208DF8DA
:1004C000010001208DF802000020ADF80400ADF815
:1004D0000600ADF80800ADF80A00ADF80C000120E8
:1004E0008DF80E00684601F033FB0122022112480C
:1004F00001F0BFFB07B000BDF0B585B004460F4664
:1005000015461E460D48009000208DF808008DF815
:10051000090004208DF80A008DF80B408DF80C704E
:100520008DF80D508DF80E606946034801F0AAFB66
:1005300005B0F0BD000C014000640040F5021F183A
:1005400008B50121082001F047F84FF44040ADF80C
:10055000000010208DF8030003208DF8020069468A
:10056000044800F0A3FD4FF44041024800F049FE6A
:1005700008BD0000000C014001B502E00098401EDB
:10058000009000980028F9D108BD08B50121042089
:1005900001F022F80121082001F01EF84FF440502C
:1005A000ADF8000001208DF8020048208DF803000E
:1005B0006946314800F07AFD4FF48070ADF80000D4
:1005C00001208DF8020048208DF8030069462B4871
:1005D00000F06CFD08BD10B54FF40051264800F046
:1005E000F6FD00BB2648FFF7C7FF4FF40051224835
:1005F00000F0EDFDB8B900BF4FF400511E4800F007
:10060000E6FD0028F8D00223012277215520FFF7CC
:1006100073FF4FF40041184800F0F3FD4FF48041A0
:10062000154800F0EEFD4FF48051134800F0CFFD67
:1006300000BB1348FFF7A0FF4FF480510E4800F0B5
:10064000C6FDB8B900BF4FF480510B4800F0BFFDA4
:100650000028F8D002230122BB219920FFF74CFF8C
:100660004FF40041044800F0CCFD4FF480410248B3
:1006700000F0C7FD10BD0000000C01400008014063
:1006800040420F0000B585B00121080300F0A4FF2F
:100690000020ADF800004FF48270ADF80200002099
:1006A000ADF80400ADF806000120ADF808004002E6
:1006B000ADF80A001020ADF80C000020ADF80E00D7
:1006C0000720ADF810006946174801F009FE012126
:1006D000154801F0A2FE05B000BD08B501210520B6
:1006E00000F07AFFA020ADF8000003208DF8020092
:1006F00018208DF8030069460C4800F0D7FC022052
:10070000ADF8000003208DF8020010208DF80300E2
:100710006946064800F0CAFC08BD10B5FFF7DDFFCA
:10072000FFF7B0FF10BD000000300140000801409D
:1007300010B5044600BF02214E4801F0F2FE002829
:10074000F9D021464B4801F099FE10BD10B5044682
:100750000221494800F055FDF820FFF7E9FF04F0B9
:10076000F000FFF7E5FF2107080EFFF7E1FF01208A
:1007700002F07DFE0221404800F045FD10BD10B59D
:10078000044602213C4800F03CFDFA20FFF7D0FF70
:1007900004F0F000FFF7CCFF2107080EFFF7C8FFB9
:1007A000012002F064FE0221334800F02CFD10BD50
:1007B0002DE9FC4180460D460020009001906C46DA
:1007C0000021284603F0ECFC05D22946002003F066
:1007D000CEFC05460AE004E02849284603F0C7FCA1
:1007E00005462649284603F0E5FCF5D3284603F0E4
:1007F000C4FC064632460B4621A1684603F0B8FF0A
:100800004046FFF7A3FF2049284603F0C9FC02D267
:100810002020FFF7B4FF03E02078FFF7B0FF641C4F
:1008200020780028F8D1BDE8FC8170B505460C465B
:100830002846FFF78BFF03E02078FFF7A0FF641C3A
:1008400020780028F8D170BD10B502210A4800F0C8
:10085000DAFC3020FFF77AFF0C20FFF777FF01204A
:10086000FFF774FF0220FFF771FF8020FFF76EFF94
:1008700010BD000000300140000801400000C842E7
:1008800020252E3166000000000020417FB505467E
:100890000C4600940020ADF80400ADF80600ADF859
:1008A0000800ADF80C000C20ADF80A006946284697
:1008B00000F043FF012240F22551284600F0B7FF27
:1008C0000121284600F0A7FF7FBD08B501210D20BA
:1008D00000F082FE0121480400F08BFE4FF4E1316C
:1008E0004948FFF7D3FF18208DF803000420ADF826
:1008F000000003208DF802006946444800F0D6FB52
:1009000004208DF803000820ADF8000069463F4838
:1009100000F0CCFB0121880400F06BFE4FF416615F
:100920003B48FFF7B3FF18208DF803004FF48060B9
:10093000ADF8000003208DF802006946354800F04C
:10094000B5FB04208DF803004002ADF800006946B5
:10095000304800F0ABFB0320ADF8000001208DF81B
:10096000020010208DF8030069462A4800F09EFB23
:1009700008BD10B540F22551234801F017F820B109
:1009800040F22551204801F037F810BD10B540F273
:1009900025511F4801F00AF820B140F225511C48AA
:1009A00001F02AF810BD2DE9F04107460D46164624
:1009B00000240CE0295D384600F095FF00BF40217F
:1009C000384600F0E7FF0028F9D0601C84B2B4423A
:1009D000F0DBBDE8F08170B504460D4601210D48FD
:1009E00000F00FFC02210B4800F00BFC2A462146C8
:1009F0000748FFF7D8FF0121064800F004FC022158
:100A0000044800F000FC70BD0044004000080140B4
:100A100000480040000C014008B54FF4C06001F0F0
:100A2000C5FB26208DF8000000208DF80200012073
:100A30008DF80300684601F0BEFB27208DF800000A
:100A400000208DF8020001208DF80300684601F0B7
:100A5000B2FB14208DF8000000208DF80200012068
:100A60008DF80300684601F0A6FB08BDF0B58DB017
:100A700004460D461C2106A803F007FB0020039046
:100A8000049005903A49284603F08AFB0AD228468A
:100A900003F073FB37A2CDE9000137A103A803F0EF
:100AA00067FE09E0284603F068FB064632460B461F
:100AB00033A103A803F05CFE062C48D2DFE804F063
:100AC000030C151E273730A003AB30A233A10090D2
:100AD00006A803F04DFE3BE032A003AB32A22FA1EB
:100AE000009006A803F044FE32E033A003AB33A22B
:100AF0002AA1009006A803F03BFE29E033A106A836
:100B000003F0DAFA03A906A803F0CAFA20E04FF0CE
:100B10007E51284603F044FB04D130A106A803F01F
:100B2000CBFA03E032A106A803F0C6FA10E04FF0BA
:100B30007E51284603F034FB04D132A106A803F00D
:100B4000BBFA03E034A106A803F0B6FA00E000BF48
:100B500000BF37A106A803F0A3FA1A2206A9364857
:100B6000FFF721FF642002F082FC0DB0F0BD000011
:100B700000002041200000002573252E3166000072
:100B8000252E316600000000205600004453333209
:100B9000283137342C3136382C2700002573257343
:100BA0002573000020410000445333322836333887
:100BB0002C3136382C270000207300004453333288
:100BC000283137342C3237392C2700004453333244
:100BD000283633382C3237392C270000445333322F
:100BE000283137342C3430382C27205945532000F5
:100BF00044533332283137342C3430382C272020DA
:100C00004E4F200044533332283633382C3430389A
:100C10002C27205945532000445333322831363392
:100C2000382C3430382C2720204E4F200000000074
:100C3000272C31293B0D0A0000440040D948DA49ED
:100C40000860704708B50020009087230422022125
:100C5000F120FFF751FC002332226946D348006897
:100C600002F006F8D2490098884200D008BD01235E
:100C700000221221F120FFF73FFC002332226946B7
:100C8000CA48006801F0F4FFCA490098884200D0C1
:100C9000ECE7FFF7D3FF0020C749087000BFE5E786
:100CA000C648007870470120C4490870704708B5ED
:100CB00000200090302304220121F120FFF71CFCCA
:100CC000002332226946B948006801F0D1FFBC49CF
:100CD0000098884201D0002008BD30230422312131
:100CE000F120FFF709FC002332226946AF48006873
:100CF00001F0BEFF08B90020EEE7B2490098884233
:100D000001D2FFF7D0FF0120E6E70020AB490870D1
:100D1000704708B500200090872304220221F120AB
:100D2000FFF7EAFB002332226946A048006801F081
:100D30009FFF9F490098884200D008BD00231A46B3
:100D40001221F120FFF7D8FB002332226946974891
:100D5000006801F08DFF9749491E0098884200D035
:100D6000EBE7FFF7D2FF01209349087000BFE4E7EB
:100D700008B500200090212304220221F120FFF772
:100D8000BBFB0023322269468848006801F070FFEF
:100D9000874966390098884200D008BDB3230E22E7
:100DA0001221F120FFF7A8FB0023322269467F4879
:100DB000006801F05DFF84490098884200D0ECE7AC
:100DC000232304220221F120FFF796FB0023322285
:100DD00069467648006801F04BFF75496439009810
:100DE000884200D0D9E700230A221221F120FFF720
:100DF00083FB0023322269466C48006801F038FF0B
:100E000072490098884200D0C7E700BFC5E76A482A
:100E10000078704708B5002000903123042201219A
:100E2000F120FFF769FB4FF48041694800F0EBF9CE
:100E30000023502269465D48006801F019FF6049AF
:100E4000491C0098884206D04FF48041604800F069
:100E5000D8F9002008BD312304221946F120FFF7FC
:100E60004BFB0023322269465048006801F000FF26
:100E700008B90020EEE70120ECE738B50024002097
:100E80000090302304220121F120FFF735FB00BF41
:100E90000BE00023322269464448006801F0E8FE76
:100EA00008B9012038BD601CC4B2102CF1DB002051
:100EB000F8E701207047002070473B48006808B9F8
:100EC0000020704738480068401E374908600120FC
:100ED000F7E710B5FFF7F1FF08B1012010BDFFF7EC
:100EE000EAFF08B10220F9E7FFF7E3FF08B90320A2
:100EF000F4E7FFF7C2FF08B10420EFE7FFF78AFF2E
:100F000008B90520EAE7FFF782FF28B9FFF730FFAD
:100F1000FFF7FFFE0620E1E7FFF7C9FE18B9FFF76C
:100F200091FE0720DAE7FFF7BBFE18B1FFF78AFE54
:100F30000820D3E70920D1E700B587B00020019051
:100F40000090029003908DF810008DF812008DF83B
:100F50001B008DF8130000218DF814108DF815106A
:100F60008DF8161002AA1B4800F099FF9DF8130097
:100F700001069DF8140041EA00419DF8150041EA80
:100F800000209DF8131008430190134902988842ED
:100F900006D100236A4601A90448006801F0C5FD96
:100FA00007B000BDF049020014000020100000202E
:100FB000870402F1010012F118000020190000203E
:100FC000300401F1FF0031F1B30E12F1000A12F109
:100FD000000C01400064004002F51F1810B50446E3
:100FE000C549601A8C422FD009DCC448201810D0A3
:100FF000B0F5806F16D0B0F5006F4AD11BE0B0F5A8
:10100000806F2AD0B0F5006F30D0B0F5406F40D17E
:1010100035E00121042000F0F9FA0021042000F05D
:10102000F5FA37E00121082000F0F0FA002108204D
:1010300000F0ECFA2EE00121102000F0E7FA002188
:10104000102000F0E3FA25E00121202000F0DEFA74
:101050000021202000F0DAFA1CE00121402000F0FD
:10106000D5FA0021402000F0D1FA13E001218020C0
:1010700000F0CCFA0021802000F0C8FA0AE001213B
:10108000080200F0C3FA00214FF4807000F0BEFAAD
:1010900000E000BF00BF10BD10B50121084600F000
:1010A000B5FA0021012000F0B1FA10BD2DE9F041A0
:1010B000024600250026002000230024002791F886
:1010C00003C00CF00F0591F803C01CF0100F03D003
:1010D00091F802C04CEA050591F800C0BCF1000F80
:1010E00031D0146800202BE04FF0010C0CFA00F313
:1010F000B1F800C00CEA03069E4220D183004FF0F5
:101100000F0C0CFA03F7BC4305FA03FC4CEA040489
:1011100091F803C0BCF1280F06D14FF0010C0CFA76
:1011200000FCC2F814C00AE091F803C0BCF1480FFB
:1011300005D14FF0010C0CFA00FCC2F810C0401CA5
:101140000828D1D31460B1F800C0BCF1FF0F34DD22
:10115000546800202EE000F1080C4FF0010808FA56
:101160000CF3B1F800C00CEA03069E4221D18300C3
:101170004FF00F0C0CFA03F7BC4305FA03FC4CEAE2
:10118000040491F803C0BCF1280F05D100F1080C4C
:1011900008FA0CF8C2F8148091F803C0BCF1480FAB
:1011A00007D100F1080C4FF0010808FA0CF8C2F85A
:1011B0001080401C0828CED35460BDE8F0814FF663
:1011C000FF710180022181700421C17070470246C5
:1011D000002093680B4201D0012000E000207047FE
:1011E0000146886880B2704702460020D3680B42EF
:1011F00001D0012000E0002070470146C86880B29D
:10120000704701617047416170470AB1016100E0B8
:1012100041617047C16070474FF480320A43826178
:101220008161826182698269704702460020344B85
:1012300018684FF68073184040EA02100843304B9C
:10124000186070472F49C8617047F0B50A460023FF
:101250000024002100252A4E7168C0F3034583B2A3
:1012600000F44016B6F5401F08D121F07061244EFD
:10127000766826F07066224F7E6012E000F48016D9
:10128000B6F5801F06D1032606FA05F4A14341F006
:10129000706106E0460D360103FA06F6B14341F0EF
:1012A000706122B1460D360103FA06F63143144E41
:1012B0007160F0BD30B500228B071C0F0F2303FABD
:1012C00004F20F4B08338C1053F8243093430C4C2A
:1012D00008348D1044F8253023468C1053F8243000
:1012E0008C07240F00FA04F42343054C08348D10B6
:1012F00044F8253030BD00000014014000F8FEBF66
:101300000000014000002042DC48006840F001007D
:10131000DA49086008464068D9490840D74948601A
:1013200008460068D7490840D44908600846006864
:1013300020F4802008600846406820F4FE004860E1
:10134000002088607047CD49096821F48031CB4A7C
:1013500011601146096821F480211160B0F5803FC9
:1013600003D0B0F5802F0ED106E0C449096841F4DE
:101370008031C24A116007E0C049096841F4A021E8
:10138000BE4A116000E000BF00BF704710B50146C3
:101390000022002300204A11012A02D1B74C236801
:1013A00006E0022A02D1B54C236A01E0B34C636A1D
:1013B00001F01F02012494401C4201D0012000E0F2
:1013C000002010BD38B5002000900024002500BF8B
:1013D0003120FFF7DBFF05460098401C00901DB947
:1013E0000098B0F5A06FF3D13120FFF7CFFF08B11F
:1013F000012400E00024204638BD014600209F4A19
:10140000106820F0F80040EAC100106070479E4963
:101410000860704702460020984B586820F47C1002
:1014200042EA01031843954B586070479649086695
:10143000704701460020914A506820F0030008439D
:10144000506070478D48406800F00C0070470146BE
:1014500000208A4A506820F0F0000843506070472E
:1014600001460020854A506820F4E060084350603F
:10147000704701460020814A506820F4605040EADD
:10148000C1005060704729B17C4A527A02437B4BBD
:101490005A7204E0794A527A8243784B5A72704702
:1014A0007A490860704701460020744A506820F469
:1014B00040400843506070470021754A11706F4AE0
:1014C00082F82010012802D0042808D103E001216D
:1014D0006F4A117004E005216D4A117000E000BFF1
:1014E00000BF70476B49086070476449096A01434F
:1014F000624A11627047674944390860704730B5E5
:1015000000210022002400235C4D6D6805F00C01D1
:1015100021B1042905D0082923D105E05E4D0560DD
:1015200022E05D4D05601FE0544D6D6805F47012BA
:10153000022505EB9242514D6D6805F480341CB9CB
:10154000564D554305600BE04C4D6D6815F4003F5A
:1015500003D0524D5543056002E04F4D55430560A1
:1015600002E04D4D056000BF00BF444D6D6805F0C1
:10157000F00109094A4D6B5C0568DD4045603F4D4F
:101580006D6805F4E061090A454D6B5C4568DD4016
:1015900085603A4D6D6805F46051C90A404D6B5C39
:1015A0004568DD40C560354D6D6805F44041890BE7
:1015B0003C4D6B5CC568B5FBF3F5056130BD29B1E9
:1015C0002E4A526902432D4B5A6104E02B4A52695C
:1015D00082432A4B5A61704729B1284A92690243D3
:1015E000264B9A6104E0254A92698243234B9A6113
:1015F000704729B1214AD2690243204BDA6104E0E5
:101600001E4AD26982431D4BDA61704729B11B4AD9
:10161000D2680243194BDA6004E0184AD268824368
:10162000164BDA60704729B1144A12690243134B12
:101630001A6104E0114A12698243104B1A61704723
:1016400014494039086070470F49C86470470B4916
:10165000C87170470948406A40F080700749486285
:10166000704701460020054A92680A4201D00120D5
:1016700000E0002070470149887270470010024066
:101680000000FFF8FFFFF6FE00004242D800424291
:10169000201002408004424200127A0000093D00FE
:1016A0001A0000202A00002010B50446D749601A0D
:1016B0008C422BD006DCD648201813D0B0F5806FB2
:1016C00038D119E0B0F5806F2AD0B0F56C4F31D128
:1016D00001218803FFF79AFF00214FF48040FFF7B4
:1016E00095FF28E001214804FFF79DFF00214FF4FA
:1016F0000030FFF798FF1EE001218804FFF793FFF9
:1017000000214FF48020FFF78EFF14E00121C80470
:10171000FFF789FF00214FF40020FFF784FF0AE064
:1017200001210805FFF77FFF00214FF48010FFF72C
:101730007AFF00E000BF00BF10BD2DE9F04786B082
:1017400005460E460024A24600BF00BF00272F46D4
:101750002C8A4CF6FF700440F08804432C82AC893C
:101760004EF6F3100440B08831890843718908436C
:101770000443AC81AC8A4FF6FF400440B089044377
:10178000AC8201A8FFF7BBFEA248874202D1DDF878
:1017900010A001E0DDF80CA00AEBCA0000EB0A1073
:1017A00031688900B0FBF1F86420B8FBF0F0040167
:1017B0002009642101FB1089322000EB0910B0FBE5
:1017C000F1F000F00F0004432C8106B0BDE8F08773
:1017D0004FF41651016000218180C18001810C21EC
:1017E000418100218181704710B502460020108A96
:1017F0004FF2FF0318400B884C8823438C88234307
:10180000CC8823431843108210BD00210180418001
:101810008180C180704721B1828942F40052828167
:1018200004E082894DF6FF731A4082817047F0B55B
:10183000034600240026002500201846C1F3421468
:1018400001F01F06012707FA06F5012C01D10C3023
:1018500004E0022C01D1103000E014301AB1076806
:101860002F43076002E00768AF430760F0BD1AB17D
:10187000838A0B43838202E0838A8B43838270478F
:10188000028A4FF6F0731A400282028A0A430282E9
:10189000704782894FF2FF731A40828182890A431E
:1018A0008281704721B1828942F00202828104E084
:1018B00082894FF6FD731A4082817047028A4FF683
:1018C000DF731A400282028A0A430282704721B102
:1018D000028A42F48042028204E0028A4BF6FF73DD
:1018E0001A4002827047C1F30802828070470146A5
:1018F0008888C0F308007047818941F00101818127
:101900007047028BD2B20283028B42EA0122028329
:101910007047028B02F47F420283028B0A430283E8
:10192000704721B1828A42F02002828204E0828ADA
:101930004FF6DF731A408282704721B1828A42F0EB
:101940001002828204E0828A4FF6EF731A4082828C
:10195000704721B1828A42F00802828204E0828AC2
:101960004FF6F7731A4082827047828A4FF6FB73F4
:101970001A408282828A0A438282704721B1828A17
:1019800042F00202828204E0828A4FF6FD731A401E
:10199000828270470246002013880B4201D001204A
:1019A00000E000207047CA430280704770B50246CD
:1019B0000B460024002100250020C3F3421503F04C
:1019C0001F01012606FA01F1012D02D1968931404D
:1019D00006E0022D02D1168A314001E0968A31409C
:1019E0001C12012606FA04F41688344011B10CB119
:1019F000012000E0002070BD10B5002200230A1273
:101A000001249440A3B2DC43048010BD004C00408C
:101A100000BCFFBF0038014010B50446FD48201847
:101A200009D101214806FFF7FEFD00214FF00070AB
:101A3000FFF7F9FD00E000BF00BF10BD30B5024662
:101A400000200023146824F002041460146844F099
:101A50000104146000E05B1CA3F57F44FF3C03D04D
:101A6000546814F0010FF6D0546814F0010F01D13E
:101A700000206CE00C78012C04D1146844F0800440
:101A8000146003E0146824F0800414604C78012C86
:101A900004D1146844F04004146003E0146824F096
:101AA000400414608C78012C04D1146844F02004A4
:101AB000146003E0146824F020041460CC78012C36
:101AC00004D1146844F01004146003E0146824F096
:101AD000100414600C79012C04D1146844F008043B
:101AE000146003E0146824F0080414604C79012C9D
:101AF00004D1146844F00404146003E0146824F072
:101B0000040414608C79A407CD7944EA05640D7A45
:101B100044EA05444D7A44EA05544D896D1E2C4330
:101B2000D461146824F001041460002300E05B1CFD
:101B3000A3F57F44FF3C03D0546814F0010FF6D1A5
:101B4000546814F0010F01D0002000E0012030BDE6
:101B500010B500210378012202FA03F1AE4A12689F
:101B600042F00102AC4B1A60AB4A1C3212688A4345
:101B7000A94B1C331A608278CAB9A74A0C32126882
:101B80008A43A54B0C331A60C288438942EA034357
:101B9000A14A4032047842F834308288038942EA0C
:101BA00003439D4A4032047802EBC40253608278BA
:101BB000012A19D1984A0C3212680A43964B0C3309
:101BC0001A60C288838842EA0343934A4032047809
:101BD00042F834304289038942EA03438E4A403254
:101BE000047802EBC402536042783AB98A4A121D63
:101BF00012688A43884B1B1D1A6006E0864A121D34
:101C000012680A43844B1B1D1A60828932B9824ACA
:101C1000143212688A43804B14331A608289012A75
:101C200006D17D4A143212680A437B4B14331A6082
:101C3000827B012A06D1784A1C3212680A43764B0D
:101C40001C331A60744A126822F00102724B1A6047
:101C500010BD0021017041708170C170017141712E
:101C60008171C171032101720221417201214181FF
:101C700070471AB143690B43436102E043698B43E8
:101C80004361704710B502460020936803F08063FB
:101C9000B3F1806F00D110E0936803F00063B3F1FB
:101CA000006F01D1012008E0936803F08053B3F185
:101CB000805F01D1022000E00420042874D002F5E6
:101CC000C07303EB00131B6803F0010402F5C0733B
:101CD00003EB00131C600B7A7BB94B7A0C8843EA48
:101CE000445302F5C07404EB00142468234302F546
:101CF000C07404EB0014236010E00B7A4C6843EAD4
:101D0000C4034C7A234302F5C07404EB0014246826
:101D1000234302F5C07404EB001423608B7A03F0B4
:101D20000F038B7202F5C07303EB00135B6823F0A3
:101D30000F0402F5C07303EB00135C6002F5C0737F
:101D400003EB00135B688C7A234302F5C07404EB49
:101D5000001463608B7B1C064B7B44EA03440B7BC3
:101D600044EA0323CC7A234302F5C07404EB001445
:101D7000A3608B7C1C064B7C44EA03440B7C44EA46
:101D80000323CC7B234302F5C07404EB0014E3600F
:101D900002F5C07303EB00131B6843F0010402F566
:101DA000C07303EB00131C6010BD0246002021B17C
:101DB000012910D0022931D11CE0936803F00103FE
:101DC00040EA8300936803F0020318439368C3F367
:101DD0008063184324E0936803F4807340EA93100F
:101DE000936803F4007340EA13209368C3F3C0635D
:101DF000184315E0936803F4803340EA9330936806
:101E000003F4003340EA13409368C3F300731843AC
:101E100006E00000009CFFBF00660040002000BFFD
:101E200000BF20B1052804D0072806D103E0022016
:101E300005E0002003E0012001E0002000BF00BF1A
:101E4000704721B1012907D002290FD109E082682A
:101E500042F0800282600AE0826842F400428260BE
:101E600005E0826842F40002826000E000BF00BF2B
:101E7000704711B92022C26001E020220261704740
:101E80000246002019B9D36803F0030006E00129D7
:101E900003D1136903F0030000E00020704730B560
:101EA00005460C46134605F5D87000EB0410006893
:101EB00000F004001872187A50B905F5D87000EBDC
:101EC0000410006840F2FF7101EA5050186009E008
:101ED00005F5D87000EB041000686FF0604101EA6E
:101EE000D000586005F5D87000EB0410006800F0D1
:101EF0000200587205F5D87000EB0410406800F03D
:101F00000F00987205F5D87000EB04104068000AC5
:101F1000D87405F5D87000EB04108068D87205F508
:101F2000D87000EB04108068010A197305F5D870A9
:101F300000EB04108068010C597305F5D87000EBB4
:101F400004108068000E987305F5D87000EB04103B
:101F5000C068D87305F5D87000EB0410C068010A9A
:101F6000197405F5D87000EB0410C068010C5974A1
:101F700005F5D87000EB0410C068000E9874214677
:101F80002846FFF776FF30BD21B1026842F4803267
:101F9000026003E0026822F480320260704701466A
:101FA00000200A6822F0010242F002020A604A6838
:101FB00002F00302022A00D10120704701464FF6C9
:101FC000FF7200200B6823F002030B6000E0521E3A
:101FD0004B6803F00203022B01D1002AF7D14B68B2
:101FE00003F00203022B00D00120704702460020BC
:101FF00093690B4201D0012000E000207047826904
:102000008A4382617047024600200A4201D00120C3
:1020100000E00020704770B504460D460026402DB4
:1020200047D00EDC072D2BD006DC042D2FD0052D3C
:1020300019D0062D61D11CE0082D2ED0202D5CD1A9
:1020400031E0B5F5806F46D006DCB5F5807F36D03F
:10205000B5F5007F51D138E0B5F5803F47D0B5F5F3
:10206000003F4AD13DE0A0680121FFF7CCFF0646C2
:1020700045E0A0684FF48071FFF7C5FF06463EE0DB
:10208000A0684FF48031FFF7BEFF064637E0E068F6
:102090000821FFF7B8FF064631E0E0681021FFF79E
:1020A000B2FF06462BE020690821FFF7ACFF064689
:1020B00025E020691021FFF7A6FF06461FE0A06972
:1020C0000121FFF7A0FF064619E0A0690221FFF7F2
:1020D0009AFF064613E0A0690421FFF794FF064625
:1020E0000DE060681021FFF78EFF064607E060688C
:1020F0000821FFF788FF064601E0002600BF00BF69
:10210000304670BD402935D00EDC072925D006DCCD
:10211000042926D0052919D0062943D119E0082918
:1021200022D020293ED122E0B1F5806F2FD006DCED
:10213000B1F5807F21D0B1F5007F33D122E0B1F538
:10214000803F29D0B1F5003F2CD128E001228260E8
:1021500029E04FF48072826025E04FF48032826083
:1021600021E00822C2601EE01022C2601BE00822AB
:10217000026118E01022026115E0826922F001027A
:10218000826110E0826922F0020282610BE08269C2
:1021900022F00402826106E00822426003E010227D
:1021A000426000E000BF00BF7047000031490143BA
:1021B000314A1160704770B5002100230F22C478A6
:1021C0000CB32D4C246804F4E064C4F5E064210AE7
:1021D000C1F10403CA40447804FA03F1847814403E
:1021E00021430901254C0678A155047804F01F0508
:1021F0000124AC4005786D114FF0E02606EB850513
:10220000C5F8004109E0047804F01F050124AC4042
:102210001B4D0678761145F8264070BD194A0A40D4
:102220000243154B1B1F1A60704739B1124A121D29
:1022300012680243104B1B1D1A6006E00E4A121D65
:10224000126882430C4B1B1D1A607047042808D18A
:102250004FF0E021096941F004014FF0E0221161E3
:1022600007E04FF0E021096921F004014FF0E0227E
:10227000116170470000FA050CED00E000E400E099
:1022800080E100E080FFFF1F10B50446BD48201824
:102290000FD0B0F5806F16D0B0F5784F1DD1012169
:1022A0000803FFF7B3F900214FF48050FFF7AEF9B0
:1022B00014E001218803FFF7B6F900214FF48040B4
:1022C000FFF7B1F90AE00121C803FFF7ACF90021DB
:1022D0004FF40040FFF7A7F900E000BF00BF10BDBA
:1022E00010B50022028802F441520B884C88234327
:1022F0008C882343CC8823430C8923434C89234374
:102300008C892343CC8923431A430280838B4FF269
:10231000FF74234083830B8A038210BD2DE9F047AD
:1023200086B005460C464FF0000902274FF0000822
:102330004FF0010A0026A88B4FF240010840A88305
:1023400002202884B5F81C902089022801D100BF02
:1023500031E0A08810B94FF0010A01E04FF0020A05
:1023600001A8FFF7CCF8E088B0F5007F0AD101980A
:1023700000EB8000400021890902B0FBF1F0401D14
:1023800086B20BE04FEA4A1021894843019901EBDC
:1023900081014900B1FBF0F0401D86B20A20B6FB76
:1023A000F0F606F00108A6EB0800C0F34F074FF661
:1023B000FF7000EA0828022F01DBFF2F02DD022751
:1023C0004FF0000847EA0800E18808432884208885
:1023D00040F4006061880843A1880843618908438C
:1023E00040EA0909A5F81C9006B0BDE8F087002175
:1023F000018041808180C180018141818181C181D1
:102400000721018270470021018041808180C180C5
:102410000221018100214181704721B1028842F0EF
:102420004002028004E002884FF6BF731A40028027
:10243000704721B1828B42F48062828304E0828BF8
:102440004FF6FF331A408283704730B500240023D3
:102450000C110125A540ABB21AB185881D438580BA
:1024600002E085889D43858030BD1AB183880B4387
:10247000838002E083888B4383807047818170472B
:10248000014688897047A1F57E42FF3A04D0028850
:1024900042F48072028004E002884FF6FF631A4023
:1024A0000280704721B1828842F00402828004E0F9
:1024B00082884FF6FB731A408280704702884FF281
:1024C000FF731A40028002880A4302807047018825
:1024D00041F480510180704721B1028842F40052DA
:1024E000028004E002884DF6FF731A4002807047B4
:1024F00002460020012901D0108B00E0908A70472D
:102500000146088A7047B1F5804F04D1028842F431
:102510008042028004E002884BF6FF731A4002807A
:1025200070470246002013890B4201D0012000E0D1
:1025300000207047CA4302817047F0B50246002070
:1025400000240023002501F00F070126BE40B4B28D
:102550000B1101269E40B3B2968806EA0305168940
:10256000264202D00DB1012000E00020F0BD10B5E0
:10257000002201F00F040123A3409AB2D343038148
:1025800010BD000000C8FFBF0CB5002001900090F6
:102590004748006840F480304549086000BF44481F
:1025A000006800F4003000900198401C01900098F1
:1025B00018B90198B0F5A06FF1D13D48006810F44A
:1025C000003F02D00120009001E000200090009820
:1025D000012843D13748006840F0100035490860B1
:1025E0000846006820F0030008600846006840F0D4
:1025F000020008602E4840682D494860084640683F
:1026000048600846406840F480604860084640687A
:1026100020F47C1048600846406840F4E8104860A8
:102620000846006840F08070086000BF20480068DD
:1026300010F0007FFAD01E48406820F003001C49CB
:1026400048600846406840F00200486000BF1848F3
:10265000406800F00C000828F9D101E000BFFEE757
:102660000CBD10B5FFF790FF10BD10B51048006805
:1026700040F001000E490860084640680E490840D5
:102680000B494860084600680C4908400849086042
:102690000846006820F4802008600846406820F45E
:1026A000FE00486000208860FFF7DBFF10BD0000DF
:1026B00000100240002002400000FFF8FFFFF6FE7D
:1026C00000F1080141604FF0FF31816000F1080125
:1026D000C160016100210160704700210161704704
:1026E00042684A6093688B609368596091600861A2
:1026F00003685B1C0360704710B502460B685C1CE6
:1027000001D1106907E002F1080000E04068446868
:1027100024689C42FAD944684C604C68A160886087
:1027200041600A611468641C146010BD01460A69A6
:10273000D1E901309860D1E90103586050688842BE
:1027400001D188685060002008611068401E106048
:102750001068704700BFBF2080F31188BFF34F8F10
:10276000BFF36F8F00BF00BFFEE7001F4FF0807305
:102770000360001F21F001030360001F2B4B036067
:10278000143802602038704729484FF0E021486132
:1027900007200861704710B52648006840F47F00A4
:1027A000244908600846006840F07F400860FFF751
:1027B000EBFF002020490860FDF7B4FC002010BDAD
:1027C000704700BFBF2080F31188BFF34F8FBFF366
:1027D0006F8F00BF18480068401C17490860704799
:1027E00015480068401E144908600846006820B972
:1027F000002080F3118800BF00BF704710B500BFF4
:10280000BF2080F31188BFF34F8FBFF36F8F00BFDE
:1028100000F0AFFC20B14FF0805006491C39086031
:1028200000BF002080F3118800BF10BD55270008AD
:102830003F19010020ED00E03000002070B5054692
:102840000E462C46FFF7BDFFD4E90F12206801FBAE
:10285000020060600020A0632068A060E06B401E62
:10286000226C216800FB0210E060FF2084F8440025
:1028700084F845009EB9206908B9012000E00020D5
:10288000A8B904F1100001F06BF880B14FF080504E
:10289000F6490860BFF34F8FBFF36F8F07E004F175
:1028A0001000FFF70DFF04F12400FFF709FFFFF709
:1028B00097FF012070BD2DE9F04106460D461746F1
:1028C0009846069C0DB9246000E02760E663256405
:1028D00001212046FFF7B2FFBDE8F0812DE9F84362
:1028E00007460D4690460DB9002601E007FB05F6A8
:1028F00006F1480001F01FFB044644B104F1480909
:1029000043464A46294638460094FFF7D4FF2046FE
:10291000BDE8F88370B50446FFF753FF94F94550BE
:1029200010E0606A08B9012000E0002038B904F125
:10293000240001F015F818B101F0A6F800E003E05A
:10294000681E45B2002DECDC00BFFF2084F8450076
:10295000FFF746FFFFF735FF94F9445010E0206978
:1029600008B9012000E0002048B904F1100000F08F
:10297000F7FF08B101F088F8681E45B200E001E0F9
:10298000002DECDC00BFFF2084F84400FFF728FF97
:1029900070BD70B50546FFF714FFA86BE96B884260
:1029A00001D1012400E00024FFF71AFF204670BD8A
:1029B0002DE9F04104460F4615464FF00008A66B7E
:1029C000206C28B37DB93946226CA06801F044FB25
:1029D000216CA0680844A060D4E90110884217D394
:1029E0002068A06014E03946226CE06801F034FBF6
:1029F000216CE068401AE0602168E068884203D2F8
:102A0000216C6068401AE060022D01D106B1761E8B
:102A1000701CA0634046BDE8F0812DE9FF4383B000
:102A2000074688461D464FF000093C4600BFFFF7A9
:102A3000C8FEA06BE16B884201D3022D28D12A4643
:102A400041462046FFF7B4FF0646606A08B90120F8
:102A500000E0002068B904F1240000F081FF88B193
:102A60004FF0805081490860BFF34F8FBFF36F8FE5
:102A700008E03EB14FF080507C490860BFF34F8FB3
:102A8000BFF36F8FFFF7ACFE012007B0BDE8F08306
:102A9000059818B9FFF7A4FE0020F6E7B9F1000F7A
:102AA00004D101A800F0BFFF4FF00109FFF798FE25
:102AB00000F0A2FCFFF785FE94F94400401C01D110
:102AC00084F8440094F94500401C01D184F8450085
:102AD000FFF786FE05A901A800F0ACFFF0B920467B
:102AE000FFF757FFA0B104F11000059900F016FFA1
:102AF0002046FFF70FFF00F0B3FB002897D14FF0FF
:102B000080505A490860BFF34F8FBFF36F8F8EE735
:102B10002046FFF7FFFE00F0A3FB88E72046FFF703
:102B2000F9FE00F09DFB0020AFE72DE9F05F0546C0
:102B30008A4616461F462C4600BFBF21EFF3118080
:102B400081F31188BFF34F8FBFF36F8F00BF8146B2
:102B5000A06BE16B884201D3022F20D194F945B0DC
:102B60003A4651462046FFF723FF1BF101000ED1E4
:102B7000606A08B9012000E0002068B904F124006F
:102B800000F0EEFE40B13EB10120306004E00BF1F8
:102B9000010040B284F845004FF0010801E04FF019
:102BA000000800BF89F3118800BF4046BDE8F09FD0
:102BB0002DE9F04705460E462C4600BFBF21EFF336
:102BC000118081F31188BFF34F8FBFF36F8F00BF68
:102BD0008046D4F83890E06B48451DD994F945A05B
:102BE00009F10100A0631AF101000ED1606A08B971
:102BF000012000E0002068B904F1240000F0B0FEDC
:102C000040B13EB10120306004E00AF1010040B261
:102C100084F84500012700E0002700BF88F31188F1
:102C200000BF3846BDE8F08770B50546FFF7C9FD1F
:102C3000A86B08B9012400E00024FFF7D1FD20466D
:102C400070BD70B504460D46206C70B1216CE06813
:102C50000844E0606168E068884201D32068E06071
:102C60002846226CE16801F0F7F970BD04ED00E040
:102C70002DE9FF4782B0054689461E464FF0000AFF
:102C80002C4600BFFFF79DFDD4F83880B8F1000F47
:102C900036D0E76849462046FFF7D3FFB6B9A8F11A
:102CA0000100A063206908B9012000E0002008BBF2
:102CB00004F1100000F054FEE0B14FF08050844960
:102CC0000860BFF34F8FBFF36F8F13E0E760606A58
:102CD00008B9012000E0002060B904F1240000F0F0
:102CE0003FFE38B14FF0805079490860BFF34F8FF5
:102CF000BFF36F8FFFF774FD012006B0BDE8F087CA
:102D0000049818B9FFF76CFD0020F6E7BAF1000F40
:102D100004D1684600F087FE4FF0010AFFF760FD1E
:102D200000F06AFBFFF74DFD94F94400401C01D10F
:102D300084F8440094F94500401C01D184F8450012
:102D4000FFF74EFD04A9684600F074FEF0B9204676
:102D5000FFF76AFFA0B104F12400049900F0DEFD42
:102D60002046FFF7D7FD00F07BFA00288AD14FF00C
:102D7000805057490860BFF34F8FBFF36F8F81E7D3
:102D80002046FFF7C7FD00F06BFA7BE72046FFF710
:102D9000C1FD00F065FA2046FFF746FF0028EED09F
:102DA0000020AAE72DE9F05F05468A4616462C4624
:102DB00000BFBF21EFF3118081F31188BFF34F8F64
:102DC000BFF36F8F00BF8046D4F83890B9F1000F81
:102DD00021D094F944B051462046FFF732FFA9F1C3
:102DE0000100A0631BF101000ED1206908B9012088
:102DF00000E0002068B904F1100000F0B1FD40B11E
:102E00003EB10120306004E00BF1010040B284F8D3
:102E10004400012700E0002700BF88F3118800BFAD
:102E20003846BDE8F09F2DE9F047054689462C4617
:102E300000BFBF21EFF3118081F31188BFF34F8FE3
:102E4000BFF36F8F00BF0746A06B48B1D4F80C806A
:102E500049462046FFF7F5FEC4F80C80012600E045
:102E6000002600BF87F3118800BF3046BDE8F08719
:102E700070B50446FFF7A5FCA56BFFF7B1FC28462B
:102E800070BD70B504462546FFF79BFCD5E90E10D2
:102E9000461AFFF7A5FC304670BD0146886B7047A7
:102EA00070B504462546284601F0A2F870BD0146DB
:102EB0008A6B0AB9012000E00020704701468A6B46
:102EC000CB6B9A4201D1012000E000207047000046
:102ED00004ED00E010B5002407E004EB8401FE4A95
:102EE00002EB8100FFF7ECFB641C202CF5D3FB48C0
:102EF000FFF7E6FBFA48FFF7E3FBFA48FFF7E0FBD2
:102F0000F948FFF7DDFBF948FFF7DAFBF348F8492A
:102F10000860F348F749086010BD10B50446FFF794
:102F200050FCF5480068401CF3490860F34800680D
:102F300040B9F24804600846006801280DD1FFF747
:102F4000C9FF0AE0EE48006838B9EC480068C06A7A
:102F5000E16A884201D8E9480460EA480068401CF8
:102F6000E849086094F82C1001208840E649096877
:102F70000843E5490860E16A01EB8101D64A02EBAA
:102F80008100211DFFF7ACFBFFF72AFCDC4800683D
:102F900068B1DA480068C06AE16A884207D24FF037
:102FA0008050DA490860BFF34F8FBFF36F8F10BDB9
:102FB0002DE9FF5F80460E469146DDE90E7A109CB2
:102FC000A9F10100216B01EB800B2BF0070B002511
:102FD00007E0715D04F134004155705D00B902E015
:102FE0006D1C102DF5D300BF002143200155202F6B
:102FF00000D31F27E762201DFFF76FFB04F11800C5
:10300000FFF76BFB2461C7F12000A0616462002020
:10301000606484F8480041465846039AFFF7A5FBD0
:103020002060BAF1000F01D0CAF80040BDE8FF9F50
:103030002DE9FF4F85B0804689461746DDE912AB82
:10304000B80000F078FF064656B14C2000F073FF40
:1030500004460CB1266304E0304600F0C9FF00E0EE
:1030600000247CB10020CDE900ABCDE902403A4616
:1030700049464046089BFFF79BFF2046FFF74DFF60
:10308000012501E04FF0FF35284609B0BDE8F08F7B
:1030900097490968096809B9012100E0002121B1B7
:1030A0004FF0FF319A4A116006E091490968C968FA
:1030B000C868974A41681160704710B50446206B94
:1030C00000F096FF204600F093FF10BD70B5054656
:1030D000FFF777FB15B98948006800E028460446E9
:1030E000201DFFF723FB78B9E06A00EB80007A49E6
:1030F00051F8200040B994F82C10012088408249F2
:103100000968814380480160A06A18B104F1180081
:10311000FFF70CFB7B480068401C7A490860774841
:103120000068844209D1211D6F48FFF7D9FA794818
:103130000068401C7749086009E06F480068401E3D
:103140006D4908602046FFF7B8FFFFF7A1FFFFF7C2
:1031500047FB6B48006858B168480068844207D153
:103160004FF0805069490860BFF34F8FBFF36F8FF6
:1031700070BD2DE9F041002767480068002863D141
:1031800066480068451C654805608DB95848D0F808
:10319000008058480068564908605648C0F80080CA
:1031A0005F480068401C5E490860FFF771FF00BF80
:1031B0005748006885423BD300BF4D48006800680F
:1031C00008B9012000E0002020B14FF0FF30504945
:1031D00008602CE046480068C068C4686668B5426C
:1031E00002D24B48066022E0201DFFF79FFAA06A3A
:1031F00018B104F11800FFF799FA94F82C10012087
:1032000088404149096808433F490860E16A01EB89
:103210008101314A02EB8100211DFFF761FA374934
:10322000E06A0968C96A8842C7D30127C5E700BFB9
:1032300032480068C06A00EB8000274951F820003E
:10324000012800D9012704E036480068401C3549B0
:1032500008603548006800B101273846BDE8F081B4
:1032600070B500240026FFF7ACFA2B480068401E1A
:10327000294908600846006800287BD11E4800687C
:10328000002877D024E01748C068C46804F118000B
:10329000FFF74CFA201DFFF749FA94F82C10012093
:1032A000884019490968084317490860E16A01EB39
:1032B0008101094A02EB8100211DFFF711FA0F4934
:1032C000E06A0968C96A884202D301201649086089
:1032D0000448006850BB2AE0880000200803002052
:1032E0001C0300203003002044030020580300206A
:1032F000680000206C0000203C000020340000200A
:1033000048000020580000204400002004ED00E0A8
:103310005C000020380000206400002040000020F5
:10332000540000204C0000205000002001E001204B
:1033300000E000200028A6D00CB1FFF7A9FEFD4850
:10334000056865B100BFFFF714FF10B10120FA490D
:1033500008606D1E002DF6D10020F6490860F64881
:10336000006838B101263007F4490860BFF34F8F79
:10337000BFF36F8FFFF734FA304670BD2DE9F0418F
:1033800005460E46EE480768EE480068001DFFF748
:10339000CDF950B9EB48006890F82C100120884016
:1033A000E94909688143E8480160681C07D136B1E2
:1033B000E4480168091DE548FFF792F91AE07C1915
:1033C000E04800684460BC4207D2DE480168091D3D
:1033D000DF480068FFF790F90CE0DA480168091D42
:1033E000DC480068FFF788F9DB480068844201D2B6
:1033F000D9480460BDE8F081D8480068401CD7492E
:10340000086070472DE9F047044688464FF00009F0
:10341000FFF7F2FFCA480668206800EB080520683D
:10342000B04207D92068A8420BD9B54209D94FF05C
:10343000010906E02068A84201D8B54201D94FF041
:1034400001092560B9F1000F03D0A81B0021FFF787
:1034500095FFFFF705FF07463FB94FF08050B7498A
:103460000860BFF34F8FBFF36F8FBDE8F08770B573
:103470000446002544B1FFF7BFFF00212046FFF7B7
:103480007DFFFFF7EDFE05463DB94FF08050AB499B
:103490000860BFF34F8FBFF36F8F70BD70B50446E8
:1034A000FFF78FF914B9A748006800E020460646E8
:1034B000F56AFFF795F9284670BD70B5024600BF62
:1034C000BF25EFF3118485F31188BFF34F8FBFF34E
:1034D0006F8F00BF214612B99A4C246800E0144651
:1034E0002346D86A00BF81F3118800BF70BD2DE963
:1034F000F04780460D464FF00009202D00D31F25D0
:10350000FFF75FF9B8F1000F02D18E48006800E0C4
:1035100040460446E66AAE4251D0B5420BD98948CE
:10352000006884420DD087480068C06AA84208D865
:103530004FF0010905E083480068844201D14FF053
:103540000109E76AE562A06910F0004F02D1C5F1F8
:103550002000A06107EB8701814A02EB81016069CD
:10356000884201D1012000E00020E0B1201DFFF7DA
:10357000DDF830B90120B8407349096881437248C9
:10358000016094F82C10012088406F4909680843B5
:103590006D490860E16A01EB8101714A02EB81002B
:1035A000211DFFF79DF8B9F1000F07D04FF08050B3
:1035B00062490860BFF34F8FBFF36F8F00BFFFF703
:1035C0000FF9BDE8F0876548006818B101205A4935
:1035D00008601DE00020584908605B480068B0FAA8
:1035E00080F0C0F11F0101EB81025D4B03EB820013
:1035F00042685268426000F108024368934202D177
:103600004268526842604268D2684E4B1A6000BFFE
:10361000704770B50546FFF7D4F815B949480068FA
:1036200000E028460446201DFFF780F878B9E06ADC
:1036300000EB80004A4951F8200040B994F82C1062
:10364000012088404049096881433F480160A06AE1
:1036500018B104F11800FFF769F8211D3B48FFF786
:103660003FF8FFF7BDF83F48006828B1FFF7A9F819
:10367000FFF70EFDFFF7B4F832480068844217D117
:103680003848006840B14FF080502C490860BFF3C3
:103690004F8FBFF36F8F0BE02C48006832490968E9
:1036A000884203D100202749086001E0FFF78BFF23
:1036B00070BD10B5014600200A46244C5369A34250
:1036C00001D1012300E0002373B1284C936AA34287
:1036D00001D1012300E0002333B9936A0BB9012320
:1036E00000E0002303B1012010BD70B505462C4653
:1036F000F4B31448006884424BD0FFF762F82046C8
:10370000FFF7D7FFA8B3201DFFF710F894F82C108F
:10371000012088400C49096808430B490860E16AA8
:1037200001EB81010E4A02EB8100211DFEF7D8FF5B
:1037300004491FE04C0000205000002004ED00E090
:1037400040000020340000204400002058030020E6
:103750006C000020680000205C0000206400002055
:1037600088000020480000203C000020300300209A
:103770000FE00CE0E06A0968C96A884207D34FF09D
:103780008050FE490860BFF34F8FBFF36F8FFFF784
:1037900027F870BD2DE9F04106460027344600BFEA
:1037A000BF21EFF3118081F31188BFF34F8FBFF377
:1037B0006F8F00BF05462046FFF77BFF20B3F04820
:1037C0000068E0B9EF49E06A0968C96A884200D335
:1037D0000127201DFEF7AAFF94F82C100120884035
:1037E000E94909680843E8490860E16A01EB810199
:1037F000E64A02EB8100211DFEF772FF04E004F1AE
:103800001801E348FEF76CFF00BF85F3118800BF85
:103810003846BDE8F08170B523E0FFF7EDFDDD48E7
:10382000006808B9012000E000200546FFF718FDF8
:10383000BDB9FEF7C6FFD748C068C468201DFEF7B3
:1038400075FFD5480068401ED3490860D34800681A
:10385000401ED2490860FEF7C3FF2046FFF72DFC4B
:1038600000BFCE4800680028D7D170BD00BFFFF769
:10387000D2FFC64800680128F9D94FF08050BF49EF
:103880000860BFF34F8FBFF36F8FF0E71CB5C448DC
:1038900000210B468022CDE90010C2A1C348FFF7EA
:1038A000C7FB0446012C14D100BFBF2080F3118850
:1038B000BFF34F8FBFF36F8F00BF4FF0FF30BC4996
:1038C00008600120BB4908600020BB490860FEF782
:1038D00062FF1CBD10B500BFBF2080F31188BFF38D
:1038E0004F8FBFF36F8F00BF0020B2490860FEF713
:1038F00067FF10BDB049086870470021AE4A1068E4
:103900007047A54800687047014611B99D48006896
:1039100000E00846024602F13400704770B50546E3
:103920000C469848016818312846FEF7E5FE01214B
:103930002046FFF723FD70BD70B506460C461546C0
:1039400044F000408F49096888618E480168183149
:103950003046FEF7C5FE01212846FFF70FFD70BD7A
:1039600070B50646F068C46804F11800FEF7DEFE84
:1039700083480068A8B9201DFEF7D8FE94F82C10E3
:10398000012088408049096808437F490860E16A4E
:1039900001EB81017D4A02EB8100211DFEF7A0FEB3
:1039A00004E004F118017A48FEF79AFE7549E06ACE
:1039B0000968C96A884204D9012501207F49086045
:1039C00000E00025284670BD2DE9F04105460F4670
:1039D00047F000402860EC682846FEF7A7FE201D4F
:1039E000FEF7A4FE94F82C1001208840664909686F
:1039F000084365490860E16A01EB8101634A02EB13
:103A00008100211DFEF76CFE5E49E06A0968C96A03
:103A1000884204D9012601206849086000E0002698
:103A20003046BDE8F081664909680160624909686D
:103A30004160704770B504460D46FEF7C2FE5E4811
:103A400002682868401C01D1002619E05C49206802
:103A50000968884204D06068904201D801260FE0CE
:103A60006068101A2968884209D228686168511A6A
:103A7000401A28602046FFF7D6FF002600E0012606
:103A8000FEF7AEFE304670BD01204C49086070471D
:103A90003C49096888693B490968C96AC1F1200144
:103AA000384A12689161704770B506460D46FEF7B8
:103AB00088FE34480068406C88B9012031490968A3
:103AC00081F848005DB101212846FFF757FC4FF00F
:103AD00080502A490860BFF34F8FBFF36F8FFEF706
:103AE0007FFEFEF76EFE27480068446C4CB126B19D
:103AF000002024490968486403E0601E21490968E0
:103B0000486400201F49096881F84800FEF768FEF4
:103B1000204670BD2DE9F0410746884614461D46F3
:103B2000FEF74FFE1748006890F84800022818D0AA
:103B30001449096801F14400496CB943016001204E
:103B40001049096881F848005DB101212846FFF756
:103B500015FC4FF0805009490860BFF34F8FBFF349
:103B60006F8FFEF73DFEFEF72CFE1CB10548006886
:103B7000406C20600348006824E0000004ED00E091
:103B80006400002034000020440000208800002051
:103B900030030020440300203C00002038000020B7
:103BA0006000002049444C45000000006D380008CA
:103BB0005C00002048000020400000205000002051
:103BC0005400002090F84800012801D1002608E0A8
:103BD000A149096801F14400496C21EA080101602A
:103BE000012600209C49096881F84800FEF7F8FD8D
:103BF0003046BDE8F0812DE9F04781460D46164676
:103C00001F464FF0010A4C46FEF7DBFD0FB1606C1A
:103C1000386094F84880022084F84800052E17D2B6
:103C2000DFE806F01503070B0D00606C28436064A5
:103C30000EE0606C401C60640AE0656408E0B8F166
:103C4000020F01D0656401E04FF0000A00E000BF00
:103C500000BFB8F1010F22D1201DFEF767FD94F8D7
:103C60002C10012088407D49096808437B49086081
:103C7000E16A01EB81017A4A02EB8100211DFEF726
:103C80002FFD7549E06A0968C96A884207D94FF073
:103C9000805074490860BFF34F8FBFF36F8FFEF7FA
:103CA0009FFD5046BDE8F0872DE9F84F83460D464D
:103CB00016461F46DDF828A0012000905C4600BF94
:103CC000BF21EFF3118081F31188BFF34F8FBFF352
:103CD0006F8F00BF81460FB1606C386094F84880E8
:103CE000022084F84800052E17D2DFE806F01503FD
:103CF000070B0D00606C284360640EE0606C401C94
:103D000060640AE0656408E0B8F1020F01D0656400
:103D100001E00020009000E000BF00BFB8F1010FFB
:103D20002DD151480068A8B9201DFEF7FFFC94F87A
:103D30002C10012088404949096808434749086018
:103D4000E16A01EB8101464A02EB8100211DFEF789
:103D5000C7FC04E004F118014448FEF7C1FC3E49E9
:103D6000E06A0968C96A884209D9BAF1000F03D02C
:103D70000120CAF8000002E001203D49086000BFB0
:103D800089F3118800BF0098BDE8F88F2DE9F04154
:103D900005460E462C4600BFBF21EFF3118081F38C
:103DA0001188BFF34F8FBFF36F8F00BF074694F8A2
:103DB0004880022084F84800606C401C6064B8F1C0
:103DC000010F2AD128480068A8B9201DFEF7AEFCD3
:103DD00094F82C10012088402049096808431F49A5
:103DE0000860E16A01EB81011D4A02EB8100211D9F
:103DF000FEF776FC04E004F118011C48FEF770FCA5
:103E00001549E06A0968C96A884206D916B10120D5
:103E1000306002E001201649086000BF87F3118876
:103E200000BFBDE8F08170B5054615B90A480068C5
:103E300000E028460646FEF7C4FC96F84800022833
:103E400004D1002086F84800012400E00024FEF799
:103E5000C7FC204670BD0000340000204400002054
:103E60008800002004ED00E0640000203003002002
:103E70005000002010B50146714800E0006803685A
:103E80008B42FBD30246436813448B4204D1436800
:103E90004C682344436001460A464B681344046857
:103EA000A34211D1674C03682468A34208D04B6831
:103EB0000468646823444B6003681B680B6005E07A
:103EC000604B1B680B6001E003680B60884200D008
:103ED000016010BD30B54FF4A0535B4810F0070FE0
:103EE00005D0C01D20F00700574C041B1B1B0246C9
:103EF000534C22600024524D6C60D018083820F0DA
:103F00000700504C206000244E4D2D686C604D4DD4
:103F10002D682C601146441A4C604A4C24680C6091
:103F20004A4D4C682C604A4D4C682C604FF0004460
:103F3000484D2C6030BD2DE9F04105464FF000089A
:103F4000FFF75AFA3F48006808B9FFF7C3FF414836
:103F50000068054247D145B1083515F0070F04D078
:103F600005F00700C0F108000544002D3BD038489B
:103F70000068854237D8324E3046046801E0264654
:103F800024686068A84202D220680028F7D12D4832
:103F90000068844227D0306800F10808206830604B
:103FA0006068401B102807D967196068401B78605B
:103FB00065603846FFF75EFF254960680968081AA2
:103FC000234908600846006820490968884203D2EE
:103FD0001F4800681D4908601E4960680968084359
:103FE000606000202060FFF73BF94046BDE8F081AB
:103FF00070B506463546D6B1083D2C461549606871
:104000000968084213D0206888B9124960680968B5
:1040100088436060FFF7F0F90D496068096808445B
:104020000B4908602046FFF725FFFFF719F970BD1F
:1040300007480068704705480068704770470000EF
:1040400080000020700000206C0300207800002019
:10405000740000207C00002040EA01039B0703D08D
:1040600009E008C9121F08C0042AFAD203E011F8B7
:10407000013B00F8013B521EF9D27047D2B201E079
:1040800000F8012B491EFBD270470022F6E710B55D
:1040900013460A4604461946FFF7F0FF204610BDB6
:1040A000421E12F8013F002BFBD111F8013B02F830
:1040B000013B002BF9D17047034611F8012B00F8A2
:1040C000012B002AF9D118467047F0B480EA0102AA
:1040D000D40F4200B2EB410F02D20246084611460D
:1040E0004A0042D0C30DDDB2C1F3C752AD1A202D34
:1040F00035DAC1F3160141F4000204B15242C5F1B0
:10410000200602FA06F12A411044B3EBD05F23D017
:10411000C4B1012DA0EBC35009DCF0BC4FF000424C
:1041200002EAC35200F50000DBB200F09DB8400087
:1041300000F1807000EBC350A0F1807040EAD170B4
:10414000490009E0490841EAC071A0EBC35000F5FD
:104150000000400800EBC350F0BC00F07CB86142A6
:10416000012202EB4101001BF6E7F0BC704781F031
:104170000041AAE780F00040A7E700F0004230F0DD
:1041800000400AD0C10D01F56071C0F3160042EA8B
:104190000151C20840071143704700200146704793
:1041A000002801DBC0F10040002901DBC1F1004122
:1041B00081427047002801DBC0F10040002901DB8B
:1041C000C1F100418842704730B50B4601460020DE
:1041D0002022012409E021FA02F59D4205D303FAC9
:1041E00002F5491B04FA02F52844151EA2F101024A
:1041F000F1DC30BD2DE9F05F0546002092469B467C
:1042000088460646814640241BE0284641464746EC
:10421000224600F02CFA53465A46C01A914110D358
:1042200011461846224600F013FA2D1A67EB0108D2
:104230004F4622460120002100F00AFA17EB000940
:104240004E41201EA4F10104DFDC484631462A46D7
:104250004346BDE8F09F0029A8BF7047401C4900B5
:1042600008BF20F00100704710B4B0FA80FC00FADB
:104270000CF050EA010404BF10BC704749B1CCF106
:10428000200421FA04F411FA0CF118BF0121214392
:104290000843A3EB0C01CB1D0106000A002BBEBF97
:1042A000002010BC704700EBC35010440029A4BF8D
:1042B00010BC7047401C490008BF20F0010010BC32
:1042C00070472DE9FE4F804681EA0300C00F0C467F
:1042D000009021F0004123F00045B8EB0200A94115
:1042E00005D24046214690461C460B46024623F026
:1042F0000040104304D14046214603B0BDE8F08F92
:10430000270DC7F30A00C3F30A510290401A019027
:10431000402866DAC3F3130040F4801B00989246ED
:1043200020B10023D2EB030A63EB0B0B0198594633
:10433000C0F14002504600F08BF906460D4650464B
:104340005946019A00F0A3F910EB080061410024DE
:1043500087EA115284EAE7731A433BD0009A3AB3D2
:10436000019A012A4FEA075210DC001B61EB02019F
:104370004FF0004202EA0752CDE90042001C41F52D
:10438000801132462B4600F0A1F9B6E7001B61EB25
:104390000201001C41F5801300185B412018A2F5B2
:1043A000001747EB030140EAD570B6196D4111E0E3
:1043B0006D084FEA360645EAC0754FEA0752001B02
:1043C00061EB0201001C41F5801149084FEA300001
:1043D0000019514132462B4603B0BDE8F04F00F0C2
:1043E00068B90098012240000023D0EB020263EB81
:1043F000E073009821464FEAE074B8EB000061EBEF
:104400000401E9E783F000435BE781F0004158E7EE
:104410002DE9FE4F81EA030404F0004421F000413D
:1044200000944FF0000B23F0004350EA010402D047
:1044300052EA030404D10020014603B0BDE8F08F26
:10444000C3F30A54C1F30A552C44A4F2F334019483
:10445000A0FB0254C1F3130141F48011C3F3130311
:1044600043F4801301FB024400FB034E840A970AC5
:1044700044EA815447EA8357A4FB076802958D0AF2
:1044800005FB07854FEA932C04FB0C542705029D7E
:104490004FEA065847EA1637B5EB08056EEB070CEE
:1044A000870E920E47EA811742EA8312A7FB0201A8
:1044B000B6EB0B0164EB00042B0D43EA0C335E18E2
:1044C00044EB1C50DA465146E7FB0201C5F31304E6
:1044D0004FEA0B3343EA14534FEA0432019C43EA98
:1044E0000603A4F10C040294009CCDE900B400F092
:1044F000EDF8A2E72DE9F04D81EA030404F0004B4A
:1045000021F0004514464FF0000A23F0004150EA24
:10451000050220D054EA01021DD0C5F30A57024615
:10452000C5F31303C1F31300C1F30A5640F4801519
:1045300043F48013A7EB0608101BD64608F2FD389B
:1045400073EB050002D308F1010801E092185B410A
:10455000B8F1000F03DA00200146BDE8F08D00201D
:104560004FF48011064684460EE0171B73EB0507D7
:1045700005D3121B63EB050306434CEA010C490803
:104580004FEA300092185B4150EA0107EDD152EA40
:10459000030012D082EA040083EA0501084303D134
:1045A00000224FF0004308E0101BAB4102D2012271
:1045B000002302E06FF0010253101AEB06004CEBEF
:1045C000085110EB0A0041EB0B01BDE8F04D00F083
:1045D00070B8C1F30A52C1F3130140F2FF3341F442
:1045E00080119A4202DA00200146704740F23343BC
:1045F0009A42A2F2334202DC524200F038B800F094
:1046000027B8000030B5002904DB4FF000444042D9
:1046100064EB0101002B04DB4FF00044524264EBD9
:104620000303994208BF904230BD0000064C074D7D
:1046300006E0E06840F0010394E807009847103472
:10464000AC42F6D3FBF756FD6450000884500008D6
:10465000202A04DB203A00FA02F100207047914042
:10466000C2F1200320FA03F3194390407047202A37
:1046700004DB203A21FA02F00021704721FA02F30C
:10468000D040C2F120029140084319467047202AC9
:1046900006DBCB17203A41FA02F043EAE07306E06A
:1046A00041FA02F3D040C2F120029140084319467A
:1046B000704710B5002B08DA401C41F10001921838
:1046C0005B411A4301D120F0010010BD2DE9F04DEE
:1046D00092469B4611B1B1FA81F202E0B0FA80F243
:1046E00020329046FFF7B4FF04460F4640EA0A0026
:1046F00041EA0B0153465A46084303D12046394646
:10470000BDE8F08D114653EA010015D0C8F1400212
:104710005046FFF7ACFF05460E4650465946424606
:10472000FFF796FF084301D0012000E00020054379
:1047300046EAE0762C4337430A984FEA4453A0EB0D
:1047400008004FEAD4240A304FF0000244EA4754EC
:104750004FEAD72502D500200146D1E701051019FF
:104760006941DDE9084500196941BDE8F04DA0E760
:104770000FB4084B10B504A902AA039800F0CAF8B8
:10478000044602A9002000F068FC204610BC5DF839
:1047900014FB00005B50000802E008C8121F08C1AB
:1047A000002AFAD170477047002001E001C1121FB2
:1047B000002AFBD1704700002DE9FF5FDDE90220F0
:1047C000010DDDF838B0024310D10F9801244CA23E
:1047D000012808D0002100980F9BC0E90021C0E902
:1047E0000243BDE8FF9F6FEA0B01F4E7A1F2FF313E
:1047F00044F6105041430D140F9801280ED0A5EB3C
:104800000B00401C4FF000043E4EDFF8FC90B0F16E
:10481000000AA04605DACAF1000717E0CBF1000054
:10482000F0E7074612E0F80707D022463346404635
:104830004946FFF7EDFD804689462246334610463D
:104840001946FFF7E5FD04460E467F10002FEAD11A
:10485000DDE90201BAF1000F42464B4602DAFFF7EA
:10486000D7FD01E0FFF746FE04460E460022274B27
:10487000FFF7C8FE03D84FF0FF30014607E00022E3
:10488000234B20463146FFF71CFDFFF7A2FE102404
:1048900009E0002C0ADB0A220023FFF7ABFC019B96
:1048A00030321A55641E50EA0102F2D1641C019A9A
:1048B000C4F1110314440F9A012A09D001220843BC
:1048C00001D15B450FDD4FF0000205F101050DE060
:1048D000084303D1A3EB0B056D1E09E000204FF048
:1048E000110B0F9088E701DA00226D1E002A83D099
:1048F00000980F99C0E90231C0E9004571E7000056
:1049000030000000000024400000F03F0000F043B1
:104910000000E03F2DE9FF4F95B09B4689460646D3
:10492000002512E2252878D10024761CF94A274672
:10493000012105943378203B01FA03F0104202D0A4
:104940000443761CF6E730782A2811D06FF02F0345
:104950003078A0F13002092A16D8059A44F00204F2
:1049600002EB820203EB42021044761C0590EFE753
:1049700059F8042B0592002A03DA504244F40054FB
:10498000059044F00204761C30782E2816D116F8D3
:10499000010F44F004042A280DD06FF02F02307864
:1049A000A0F13003092B09D807EB870302EB43037F
:1049B000C718761CF3E759F8047B761C30786C280E
:1049C0000FD006DC4C2817D068280DD06A2814D1E7
:1049D00004E0742810D07A280FD10DE044F40014BC
:1049E0000AE044F4801401E044F4401472788242F6
:1049F00002D1761C04F58014761C307866280BD022
:104A000013DC582877D009DC002875D04528F6D06B
:104A10004628F4D047281AD19FE118E0632835D002
:104A2000642879D0652812D197E1702873D008DC0A
:104A30006728F1D069286FD06E280DD06F2806D175
:104A4000B5E073282CD0752875D0782874D05A46D4
:104A5000179990476D1C76E1C4F30250022809D0E3
:104A600003280DD0D9F8001004280DD00D6009F1ED
:104A7000040968E1D9F80010EA17C1E90052F6E725
:104A8000D9F800100D80F2E70D70F0E719F8041B5B
:104A90008DF8001000208DF80100EA46012003E0A7
:104AA00059F804AB4FF0FF3061074FF0000102D41A
:104AB0000DE008F101018846B9420FDA8045F8DBC4
:104AC0001AF808100029F4D108E008F1010188461D
:104AD0008142FADB1AF808100029F6D105985B46E6
:104AE000A0EB080721463846179A00F09EFA2844A2
:104AF00000EB080507E04DE02BE10DE01AF8010B93
:104B00005A4617999047B8F10108F7D25B462146FB
:104B10003846179A14E142E00A220092C4F3025286
:104B20004FF0000A022A08D059F804CB032A4FEAB2
:104B3000EC710AD00DE029E02AE009F1070121F02B
:104B40000702F2E802C1914609E00FFA8CFC4FEA35
:104B5000EC71042A03D14FFA8CFC4FEAEC71002966
:104B600007DA0A460021DCF1000C61EB02012D227C
:104B700002E0220504D52B228DF80420012203E057
:104B8000E20701D02022F7E7904653E00A2102E035
:104B900010220DE010214FF0000A00910BE01022CE
:104BA0004FF0000A44F004040827009203E00822B2
:104BB0004FF0000A0092C4F30252022A05D059F8BD
:104BC00004CB0021032A08D009E009F1070121F0F4
:104BD0000702F2E802C1914605E01FFA8CFC042AA4
:104BE00001D10CF0FF0C4FF00008220722D57028ED
:104BF00027D0009B83F0100353EA0A0309D15CEA33
:104C0000010206D030228DF804208DF80500022222
:104C10009046009B83F0080353EA0A030AD15CEA3A
:104C2000010201D1620705D530228DF804204FF032
:104C300001087F1E582809D037A003900EA80290C3
:104C400013E040228DF804200122E1E737A0F4E7C9
:104C500053466046009AFFF7CDFA84460398825C7B
:104C60000298A0F10100029002705CEA0100EFD10D
:104C7000029806A9A1EB000000F1200A600702D506
:104C800024F4803400E00127574502DDA7EB0A0039
:104C900000E0002000EB0A01009005984144A0EBE1
:104CA00001000590E00306D45B462146179A05985B
:104CB00000F0BBF90544002706E001A85A46C05D94
:104CC000179990476D1C7F1C4745F6DBE0030CD518
:104CD0005B462146179A059800F0A7F9054404E0C1
:104CE00030205A46179990476D1C0099481E009035
:104CF0000029F5DC08E0029802995A460078491C20
:104D00000291179990476D1CBAF10001AAF1010AAE
:104D1000F1DC6BE1092801003031323334353637AC
:104D200038396162636465660000000030313233F7
:104D30003435363738394142434445460000000097
:104D400000F060F9054406F10106307800287FF490
:104D5000E9AD19B02846BDE8F08F620700D40627F8
:104D600009F1070222F0070CFCE80223E14603F0F8
:104D700000485FEA080C02D00FF27C2C0DE05FEADD
:104D8000045C02D50FF2742C07E05FEAC47C02D009
:104D90000FF26C2C01E0AFF2700C4FF0FF3823F0F3
:104DA0000043CDF850C065280CD006DC452809D05A
:104DB00046281DD047283ED13EE0662818D06728F7
:104DC00039D139E00021112F01DB112000E0781CDE
:104DD000CDE9000106A90EA8FFF7EEFCDDE90F0101
:104DE0000E9A03910021009207F1010A04914EE00E
:104DF0004FF000400097CDE9011006A90EA8FFF77B
:104E0000DBFCDDE90F0203920E9B11990022DDF815
:104E10000CA00093049219B907F1010100EB010AFB
:104E2000B7EB0A0004D4C0F1FF3007F1010A049087
:104E3000AAEB0700019046E0012F00DA01270021CC
:104E4000112F01DD112000E03846CDE9000106A94F
:104E50000EA8FFF7B1FCDDE90F010E9A03910021C6
:104E600004910092BA4621070CD40399514500DA07
:104E70008A46BAF1010F05DD009AAAF10101515CE1
:104E8000302908D0B84202DA10F1040F06DA012105
:104E9000CDE9011017E0AAF10101E9E7002805DCDE
:104EA000049901440491AAEB000102E0411C514520
:104EB00000DD8A460499A0EB010000F10100019099
:104EC0004FF000400290200704D40198504501DBC8
:104ED000CDF8048000208DF84F0002980DF14F07A7
:104EE000B0F1004F25D02B200E9002984FF0020811
:104EF00000280CDA404202902D200E9007E00A2193
:104F00000298FFF761F93031029007F8011DB8F1FE
:104F10000001A8F10108F2DC02980028EFD1791E07
:104F20000E980870307800F0200040F0450007F837
:104F3000020D12A8A0EB070000F1070814980078F2
:104F400000B1012000EB0A01019801EBE071059826
:104F50004144A0EB0100A0F101000590E00306D45C
:104F60005B462146179A059800F05FF805441498AF
:104F7000007820B15A461799904705F10105E003E2
:104F800023D55B462146179A059800F04EF8054454
:104F90001BE00498002807DBDDE90301884203DDFC
:104FA0000098405C179901E0179930205A469047C5
:104FB00004986D1C401C04900198401E019004D17F
:104FC0002E205A46179990476D1CBAF10001AAF19C
:104FD000010ADEDC05E017F8010B5A4617999047E5
:104FE0006D1CB8F10001A8F10108F4DC5B46214614
:104FF000179A0598A4E600002D0000002B00000081
:10500000200000002DE9F041044600251E46174609
:10501000880405D406E039462020B04705F1010593
:10502000641EF8D52846BDE8F0812DE9F04104461C
:1050300000251E469046C80301D5302700E02027F2
:10504000880405D506E041463846B04705F101051C
:10505000641EF8D52846BDE8F0810A68531C0B6031
:105060001070704784500008000000208800000085
:10507000984700080C51000888000020E81800003C
:10508000A847000800000000000000000000000029
:105090000000000000000000000000000000000010
:1050A00000000102030401020304060708090204C8
:1050B00006080000AAAAAAAA00000000000000003A
:1050C00000000000000000000000000000000000E0
:1050D00000000000000000000000000000000000D0
:1050E00000000000000000000000000000000000C0
:1050F00000000000000000000000000000000000B0
:0C510000000000000000000000000000A3
:040000050800019955
:00000001FF
