:020000040800F2
:10000000804B0020990100087F0C00087B0C000841
:100010007D0C000831080008E9130008000000000A
:1000200000000000000000000000000001010008C6
:10003000790B00080000000045010008313100087C
:10004000AF010008AF010008AF010008AF010008D0
:10005000AF010008AF010008AF010008AF010008C0
:10006000AF010008AF010008AF010008AF010008B0
:10007000AF010008AF010008AF010008AF010008A0
:10008000AF010008AF010008AF010008AF01000890
:100090006D130008AF010008AF010008AF010008B0
:1000A000AF010008AF010008AF010008AF01000870
:1000B000790F0008E90F0008AF010008AF01000840
:1000C000AF010008AF010008AF010008AF01000850
:1000D000AF010008AF0100085511000881110008A8
:1000E000AF010008AF010008AF010008DFF80CD035
:1000F00000F0FCFA0048004775240008804B0020FF
:10010000224B19680868B0E8F00F80F30988BFF344
:100110006F8F4FF0000080F311884EF00D0E704786
:100120000000000006480068006880F3088862B696
:1001300061B6BFF34F8FBFF36F8F00DF00BF00BF0B
:1001400008ED00E0EFF30980BFF36F8F0F4B1A68E3
:1001500020E9F00F106008B54FF0BF0080F3118860
:10016000BFF34F8FBFF36F8F02F0A8FF4FF0000077
:1001700080F31188BDE8084019680868B0E8F00FFE
:1001800080F30988BFF36F8F704700BF48000020DD
:10019000EFF305807047000005480047FEE7FEE7E3
:1001A000FEE7FEE7FEE7FEE7FEE7FEE7FEE7FEE727
:1001B000ED00000840EA01039B0703D009E008C9ED
:1001C000121F08C0042AFAD203E011F8013B00F81C
:1001D000013B521EF9D2704730B480EA010202F0AE
:1001E000004530F0004221F0004015D0A0B1C0F32E
:1001F000C753C2F3C754C2F31601C0F31600E41A82
:1002000041F4000140F400027D34914201D3641CAA
:1002100000E04900002C02DA30BC002070474FF4A7
:1002200000000023914201D3891A034340084FEA9A
:100230004101F7D151B1914202D14FF0004105E0A7
:1002400002D24FF0010101E06FF0010103EBC45055
:10025000284430BC00F05FB896230022114600F01D
:1002600063B800F0004230F000400AD0C10D01F543
:100270006071C0F3160042EA0151C2084007114301
:10028000704700200146704730B50B4601460020FC
:100290002022012409E021FA02F59D4205D303FA48
:1002A00002F5491B04FA02F52844151EA2F10102C9
:1002B000F1DC30BD2DE9F05F0546002092469B46FB
:1002C00088460646814640241BE02846414647466C
:1002D000224600F02CFA53465A46C01A914110D3D8
:1002E00011461846224600F013FA2D1A67EB010852
:1002F0004F4622460120002100F00AFA17EB0009C0
:100300004E41201EA4F10104DFDC484631462A4656
:100310004346BDE8F09F0029A8BF7047401C490034
:1003200008BF20F00100704710B4B0FA80FC00FA5A
:100330000CF050EA010404BF10BC704749B1CCF185
:10034000200421FA04F411FA0CF118BF0121214311
:100350000843A3EB0C01CB1D0106000A002BBEBF16
:10036000002010BC704700EBC35010440029A4BF0C
:1003700010BC7047401C490008BF20F0010010BCB1
:1003800070472DE9FE4F804681EA0300C00F0C46FE
:10039000009021F0004123F00045B8EB0200A94194
:1003A00005D24046214690461C460B46024623F0A5
:1003B0000040104304D14046214603B0BDE8F08F11
:1003C000270DC7F30A00C3F30A510290401A0190A7
:1003D000402866DAC3F3130040F4801B009892466D
:1003E00020B10023D2EB030A63EB0B0B01985946B3
:1003F000C0F14002504600F08BF906460D465046CB
:100400005946019A00F0A3F910EB0800614100245D
:1004100087EA115284EAE7731A433BD0009A3AB351
:10042000019A012A4FEA075210DC001B61EB02011E
:100430004FF0004202EA0752CDE90042001C41F5AC
:10044000801132462B4600F0A1F9B6E7001B61EBA4
:100450000201001C41F5801300185B412018A2F531
:10046000001747EB030140EAD570B6196D4111E062
:100470006D084FEA360645EAC0754FEA0752001B81
:1004800061EB0201001C41F5801149084FEA300080
:100490000019514132462B4603B0BDE8F04F00F041
:1004A00068B90098012240000023D0EB020263EB00
:1004B000E073009821464FEAE074B8EB000061EB6E
:1004C0000401E9E783F000435BE781F0004158E76E
:1004D0002DE9FE4F81EA030404F0004421F00041BD
:1004E00000944FF0000B23F0004350EA010402D0C7
:1004F00052EA030404D10020014603B0BDE8F08FA6
:10050000C3F30A54C1F30A552C44A4F2F334019402
:10051000A0FB0254C1F3130141F48011C3F3130390
:1005200043F4801301FB024400FB034E840A970A44
:1005300044EA815447EA8357A4FB076802958D0A71
:1005400005FB07854FEA932C04FB0C542705029DFD
:100550004FEA065847EA1637B5EB08056EEB070C6D
:10056000870E920E47EA811742EA8312A7FB020127
:10057000B6EB0B0164EB00042B0D43EA0C335E1861
:1005800044EB1C50DA465146E7FB0201C5F3130465
:100590004FEA0B3343EA14534FEA0432019C43EA17
:1005A0000603A4F10C040294009CCDE900B400F011
:1005B000EDF8A2E72DE9F04D81EA030404F0004BC9
:1005C00021F0004514464FF0000A23F0004150EAA4
:1005D000050220D054EA01021DD0C5F30A57024695
:1005E000C5F31303C1F31300C1F30A5640F4801599
:1005F00043F48013A7EB0608101BD64608F2FD381B
:1006000073EB050002D308F1010801E092185B4189
:10061000B8F1000F03DA00200146BDE8F08D00209C
:100620004FF48011064684460EE0171B73EB050756
:1006300005D3121B63EB050306434CEA010C490882
:100640004FEA300092185B4150EA0107EDD152EABF
:10065000030012D082EA040083EA0501084303D1B3
:1006600000224FF0004308E0101BAB4102D20122F0
:10067000002302E06FF0010253101AEB06004CEB6E
:10068000085110EB0A0041EB0B01BDE8F04D00F002
:1006900070B8C1F30A52C1F3130140F2FF3341F4C1
:1006A00080119A4202DA00200146704740F233433B
:1006B0009A42A2F2334202DC524200F038B800F013
:1006C00027B8000030B5002904DB4FF00044404259
:1006D00064EB0101002B04DB4FF00044524264EB59
:1006E0000303994208BF904230BD0000064C074DFD
:1006F00006E0E06840F0010394E8070098471034F2
:10070000AC42F6D3FFF7F6FC08380008283800089A
:10071000202A04DB203A00FA02F1002070479140C1
:10072000C2F1200320FA03F3194390407047202AB6
:1007300004DB203A21FA02F00021704721FA02F38B
:10074000D040C2F120029140084319467047202A48
:1007500006DBCB17203A41FA02F043EAE07306E0E9
:1007600041FA02F3D040C2F12002914008431946F9
:10077000704710B5002B08DA401C41F100019218B7
:100780005B411A4301D120F0010010BD2DE9F04D6D
:1007900092469B4611B1B1FA81F202E0B0FA80F2C2
:1007A00020329046FFF7B4FF04460F4640EA0A00A5
:1007B00041EA0B0153465A46084303D120463946C5
:1007C000BDE8F08D114653EA010015D0C8F1400292
:1007D0005046FFF7ACFF05460E4650465946424686
:1007E000FFF796FF084301D0012000E000200543F9
:1007F00046EAE0762C4337430A984FEA4453A0EB8D
:1008000008004FEAD4240A304FF0000244EA47546B
:100810004FEAD72502D500200146D1E7010510197E
:100820006941DDE9084500196941BDE8F04DA0E7DF
:10083000FEE70000074910B540180AD101214C0617
:10084000204600F065FA2046BDE81040002100F087
:100850005FBA10BD009CFFBF202209B10261704742
:10086000C2607047F0B50278012191402D4A1368AB
:1008700043F0010313602B4B1C331C688C431C603A
:10088000284C284D87780C3440352E1DA7B9276891
:100890008F432760C788B0F80AC047EA0C4790F832
:1008A00000C045F83C708788B0F808C047EA0C479C
:1008B00090F800C046F83C708778012F0ED1276869
:1008C0000F432760446807784FEA344445F83740BF
:1008D000846805784FEA344446F83540114C457831
:1008E000241D002D256806D00D4325600D4C8589FB
:1008F000143415B104E08D43F7E725688D43256076
:100900008589012D02D125680D432560807B012852
:1009100002D1186808431860106820F001001060C8
:10092000F0BD000000660040002A426901D00A4381
:1009300000E08A434261704710B50268002322F04C
:1009400002020260026842F0010202604FF6FF728A
:1009500002E05B1C934202D04468E407F9D043688C
:10096000DB073ED00B78012B03683CD023F08003DB
:1009700003604B78012B036838D023F040030360F9
:100980008B78012B036834D023F020030360CB78ED
:10099000012B036830D023F0100303600B79012B87
:1009A00003682CD023F0080303604B79012B036804
:1009B00028D023F0040303608B79CC799B0743EAAA
:1009C00004630C7A43EA04434C7A498943EA0453AA
:1009D000491E0B43C361016821F001010160002140
:1009E00016E0002010BD43F08003C1E743F0400350
:1009F000C5E743F02003C9E743F01003CDE743F018
:100A00000803D1E743F00403D5E7491C914202D023
:100A10004368DB07F9D14068C007E2D1012010BD6F
:100A200010B400EB0113D3F8B04114F004041472B5
:100A3000D3F8B04128D0E408C2F8044003F5D873D5
:100A40001C6804F0020454725C6804F00F04947291
:100A50005C68240AD4749C68D4729C68240A147359
:100A60009C68240C54739C68240E9473DC68D473C3
:100A7000DC68240A1474DC68240C5474DB681B0ED4
:100A8000937410BCFFF7E8BE640D1460D6E7002134
:100A9000017041708170C170017141718171C171CA
:100AA000032101720221417201214181704730B559
:100AB0000246002093685B0108D49068000101D5CC
:100AC000012003E09068C00031D5022002EB001243
:100AD000D2F8803103F00103C2F880310B7A43B3BE
:100AE000D2F880414D681C434B7A43EAC5031C434E
:100AF000C2F880418B7A02F5C07203F00F038B724B
:100B0000536823F00F03536053688C7A2343536078
:100B1000CB7ACC6843EA04239360CB7B096943EA30
:100B20000121D160116841F00101116030BD042044
:100B300030BDD2F880314C7A23430C8843EA4453C9
:100B4000C2F88031D6E7000070B50A4DFF231A467F
:100B500005F5807606E000BF10F8014B54402A5D91
:100B60005A40335D0C00A1F1010189B2F4D142EA8F
:100B7000032070BDE835000870470000F0B5CA7862
:100B8000002502F00F03D20601D58A7813430C78B2
:100B90004FF00F0E0122ECB1D0F800400F8802FA9E
:100BA00005F63740B74211D14FEA850C0EFA0CF723
:100BB00024EA070703FA0CF43C43CF78282F02D02D
:100BC000482F02D002E0466100E006616D1C082D4E
:100BD000E4D304600C88FF2C1ED944685FF0000643
:100BE00006F1080702FA07F50F882F40AF420FD130
:100BF0004FEA860C0EFA0CF7BC4303FA0CF73C43A1
:100C0000CF78282F00D14561CF78482F00D10561DA
:100C1000761C082EE4D34460F0BD0000F0B5104D02
:100C20006A68440D260184B2C0F30157B440C0F392
:100C30000343032F05D0C0020AD503209840824306
:100C400007E0686822F0706320F07060686002E07E
:100C5000A24342F0706301B123436B60F0BD00001A
:100C6000000001400246002092680A4200D00120A4
:100C700070474161704701617047FEE7FEE77047CA
:100C8000F0B50F21C478027801234FF0E026DCB1E3
:100C9000124C2468457804F4E064C4F5E064240A46
:100CA000C4F10407E1408478BD400C402C4321018D
:100CB0000B4C1155007800F01F018B40400906EBEA
:100CC0008000C0F80031F0BD02F01F0083405009E1
:100CD00006EB8000C0F88031F0BD00000CED00E0B4
:100CE00000E400E002490843024908607047000040
:100CF0000000FA050CED00E0044A0029D16901D09A
:100D0000014300E08143D1617047000000100240C0
:100D1000044A0029116901D0014300E081431161B7
:100D20007047000000100240044A0029916901D078
:100D3000014300E0814391617047000000100240D0
:100D4000044A0029D16801D0014300E08143D16009
:100D5000704700000010024030B51F494A6812F089
:100D60000C031E4A03D0042B01D0082B22D00260B2
:100D70004A680F231A4C03EA1212A35C0268DA4095
:100D800042604B68072505EA1323E35C22FA03F36C
:100D900083604B6805EAD323E35C22FA03F2C26066
:100DA0004968032303EA9131231F595CB2FBF1F137
:100DB000016130BD4A68022302F4701203EB9242D3
:100DC0004B6813F4803F02D04B689B0301D5054B61
:100DD00000E0024B5A43CAE70010024000127A00BA
:100DE0003300002000093D000029018802D041F0B5
:100DF000400101E021F040010180704702460020DF
:100E000012890A4200D0012070478181704730B5B5
:100E100002884C8802F441530A88CD8822438C888A
:100E20002C4322430C8922434C8922438C89224340
:100E3000CC8922431A430280828B22F4006282838F
:100E4000098A018230BD00000CB5002126480191BD
:100E50000091026842F4803202604FF4A06302689D
:100E600002F400320092019A521C0192009A12B9C7
:100E7000019A9A42F3D10268920333D5012100917D
:100E80001A490A6842F010020A600A6822F0030256
:100E90000A600A6842F002020A60416841604168E3
:100EA0004160416841F480614160416821F47C11F6
:100EB0004160416841F4E8114160016841F080718E
:100EC000016001688901FCD5416821F0030141609E
:100ED000416841F0020141604168C1F3810102298A
:100EE000FAD10CBD0091FEE7001002400020024044
:100EF0000C48016841F00101016041680A4A114053
:100F000041600168094A11400160016821F48021B3
:100F10000160416821F4FE01416000218160FFF71A
:100F200093BF0000001002400000FFF8FFFFF6FE34
:100F30003EB501210846FFF7DFFE4FF08044204612
:100F400000F07CF842F21070ADF8040041F61F404A
:100F5000ADF800000020ADF802006946204600F020
:100F6000DBF80121204600F057F801221146204607
:100F700000F0CAF83EBD000010B501218C072046E4
:100F800000F0B6F8002807D00121204600F047F80D
:100F900002480168491C016010BD000020000020CB
:100FA0003EB501210220FFF7A7FE0E4C204600F0BF
:100FB00045F84FF47A70ADF8040041F61F40ADF8E3
:100FC00000000020ADF802006946204600F0A4F8B9
:100FD0000121204600F020F801221146204600F0B1
:100FE00093F83EBD0004004010B5094C0121204695
:100FF00000F07EF800280AD00121204600F00FF80A
:1010000004484168002902D04168491E416010BD72
:101010000004004020000020C94301827047C943FA
:10102000018270470029018802D041F0010102E0ED
:1010300040F2FE3211400180704700002A4B10B58B
:101040001915C21A4C0098423BD010DCB0F1804F09
:1010500022D0264A801826D088422BD0A04241D1E7
:1010600001210820FFF754FE0021082036E08A42C3
:101070002ED0B2F58E3F0DD0B2F5923F32D1012184
:101080004C032046FFF75CFE2046BDE810400021DF
:10109000FFF756BE0121F4E701210846FFF738FEAD
:1010A000002101201AE001210220FFF731FE00217A
:1010B000022013E001210420FFF72AFE0021042072
:1010C0000CE001211020FFF723FE0021102005E095
:1010D00001212020FFF71CFE00212020BDE8104048
:1010E000FFF716BE10BD00000010004000FCFFBF5F
:1010F00002460020138A92890B4202EA010202D0C2
:10110000002A00D001207047002A828901D00A43BA
:1011100000E08A4382817047028802F08F020280D9
:10112000CA884B881A4303881A4302808A888285BA
:101130000A880285054A904202D0054A904201D1B0
:10114000097A01860121818270470000002C01404C
:101150000034014070B5094C40F22555294620461F
:1011600000F067F8002808D0204600F0F6F829467D
:101170002046BDE8704000F027B870BD0044004034
:1011800070B50F4C40F225552946204600F051F825
:10119000002814D0204600F0E0F80A4B1A78591CB9
:1011A0008E18521C1A7030700878552801D0002013
:1011B000187029462046BDE8704000F005B870BDA3
:1011C00000480040280000200A0A01219140C9433C
:1011D000018070470029818902D041F4005101E06B
:1011E00021F40051818170471FB504460091002110
:1011F000ADF80810ADF804100C20ADF80610ADF8ED
:101200000C10ADF80A006946204600F049F80122AA
:1012100040F22551204600F02BF801212046FFF72F
:10122000D9FF1FBD0246002012880A4200D00120CB
:10123000704730B501F01F0201240025C1F34213AD
:1012400004FA02F2012B0FD0022B0FD0838A4FEA4F
:1012500011210088134204FA01F400EA040001D0CD
:1012600000B10125284630BD8389F0E7038AEEE707
:1012700010B5C1F3421301F01F040121A140012B5D
:1012800007D0022B07D01430002A026805D00A4389
:1012900004E00C30F8E71030F6E78A43026010BD36
:1012A00030B50446008A85B00D464CF6FF71084003
:1012B000E98801432182A1894EF6F3100140A888F4
:1012C0002A8910436A890A431043A081A08A4FF6F5
:1012D000FF410840A9890143A1826846FFF73CFD10
:1012E0001148844201D1039800E00298642200EB87
:1012F000C00101EB001029686FF018058900B0FBF0
:10130000F1F0B0FBF2F109010B096B4300EB830034
:10131000322303EB0010B0FBF2F000F00F000843A3
:10132000208105B030BD0000003801402DE9F041BA
:1013300015460E46074600240BE0315D384600F0A6
:1013400010F840213846FFF76DFF0028F9D0641CE3
:10135000A4B2AC42F1D3BDE8F0818088C0F30800AC
:101360007047C1F3080181807047000000B587B065
:1013700000208DF808008DF80C00059006908DF87F
:101380000A008DF80D00009001908DF813008DF883
:101390000B008DF80E0001466A461048FFF740FB2F
:1013A000DDF80B009DF80E1000BA20F0FF00084396
:1013B00005900B490198884207D0094910318842AD
:1013C00003D007492031884206D10648002306AAE7
:1013D00005A9006801F09CFF07B000BD0064004053
:1013E00002F51F1810000020FEE700000FB4084BA4
:1013F00010B504A902AA039800F0CAF8044602A98D
:10140000002000F068FC204610BC5DF814FB0000D2
:10141000D71C000802E008C8121F08C1002AFAD130
:1014200070477047002001E001C1121F002AFBD164
:10143000704700002DE9FF5FDDE90220010DDDF8B6
:1014400038B0024310D10F9801244CA2012808D0D3
:10145000002100980F9BC0E90021C0E90243BDE8CC
:10146000FF9F6FEA0B01F4E7A1F2FF3144F6105041
:1014700041430D140F9801280ED0A5EB0B00401C22
:101480004FF000043E4EDFF8FC90B0F1000AA04699
:1014900005DACAF1000717E0CBF10000F0E70746D4
:1014A00012E0F80707D02246334640464946FFF788
:1014B0000FF8804689462246334610461946FFF704
:1014C00007F804460E467F10002FEAD1DDE902013D
:1014D000BAF1000F42464B4602DAFEF7F9FF01E08F
:1014E000FFF768F804460E460022274BFFF7EAF89C
:1014F00003D84FF0FF30014607E00022234B20467F
:101500003146FEF73EFFFFF7C4F8102409E0002C37
:101510000ADB0A220023FEF7CDFE019B30321A556A
:10152000641E50EA0102F2D1641C019AC4F1110355
:1015300014440F9A012A09D00122084301D15B45C6
:101540000FDD4FF0000205F101050DE0084303D166
:10155000A3EB0B056D1E09E000204FF0110B0F905F
:1015600088E701DA00226D1E002A83D000980F99C7
:10157000C0E90231C0E9004571E700003000000019
:10158000000024400000F03F0000F0430000E03F76
:101590002DE9FF4F95B09B4689460646002512E28D
:1015A000252878D10024761CF94A27460121059484
:1015B0003378203B01FA03F0104202D00443761C3A
:1015C000F6E730782A2811D06FF02F033078A0F199
:1015D0003002092A16D8059A44F0020402EB82026E
:1015E00003EB42021044761C0590EFE759F8042BF8
:1015F0000592002A03DA504244F40054059044F066
:101600000204761C30782E2816D116F8010F44F00B
:1016100004042A280DD06FF02F023078A0F1300397
:10162000092B09D807EB870302EB4303C718761C85
:10163000F3E759F8047B761C30786C280FD006DC71
:101640004C2817D068280DD06A2814D104E07428DB
:1016500010D07A280FD10DE044F400140AE044F4CD
:10166000801401E044F440147278824202D1761C66
:1016700004F58014761C307866280BD013DC5828CB
:1016800077D009DC002875D04528F6D04628F4D05C
:1016900047281AD19FE118E0632835D0642879D013
:1016A000652812D197E1702873D008DC6728F1D043
:1016B00069286FD06E280DD06F2806D1B5E0732849
:1016C0002CD0752875D0782874D05A461799904731
:1016D0006D1C76E1C4F30250022809D003280DD016
:1016E000D9F8001004280DD00D6009F1040968E153
:1016F000D9F80010EA17C1E90052F6E7D9F800104E
:101700000D80F2E70D70F0E719F8041B8DF800105A
:1017100000208DF80100EA46012003E059F804ABEF
:101720004FF0FF3061074FF0000102D40DE008F1E7
:1017300001018846B9420FDA8045F8DB1AF8081033
:101740000029F4D108E008F1010188468142FADB62
:101750001AF808100029F6D105985B46A0EB080797
:1017600021463846179A00F09EFA284400EB0805F7
:1017700007E04DE02BE10DE01AF8010B5A461799EE
:101780009047B8F10108F7D25B4621463846179AD0
:1017900014E142E00A220092C4F302524FF0000A20
:1017A000022A08D059F804CB032A4FEAEC710AD078
:1017B0000DE029E02AE009F1070121F00702F2E833
:1017C00002C1914609E00FFA8CFC4FEAEC71042A41
:1017D00003D14FFA8CFC4FEAEC71002907DA0A4674
:1017E0000021DCF1000C61EB02012D2202E0220558
:1017F00004D52B228DF80420012203E0E20701D05A
:101800002022F7E7904653E00A2102E010220DE083
:1018100010214FF0000A00910BE010224FF0000A57
:1018200044F004040827009203E008224FF0000A65
:101830000092C4F30252022A05D059F804CB0021C9
:10184000032A08D009E009F1070121F00702F2E8B4
:1018500002C1914605E01FFA8CFC042A01D10CF06C
:10186000FF0C4FF00008220722D5702827D0009BDC
:1018700083F0100353EA0A0309D15CEA010206D09F
:1018800030228DF804208DF8050002229046009B3E
:1018900083F0080353EA0A030AD15CEA010201D18A
:1018A000620705D530228DF804204FF001087F1E15
:1018B000582809D037A003900EA8029013E04022C8
:1018C0008DF804200122E1E737A0F4E75346604693
:1018D000009AFEF7EFFC84460398825C0298A0F120
:1018E0000100029002705CEA0100EFD1029806A9A3
:1018F000A1EB000000F1200A600702D524F4803437
:1019000000E00127574502DDA7EB0A0000E00020B8
:1019100000EB0A01009005984144A0EB01000590FE
:10192000E00306D45B462146179A059800F0BBF900
:101930000544002706E001A85A46C05D1799904764
:101940006D1C7F1C4745F6DBE0030CD55B4621464A
:10195000179A059800F0A7F9054404E030205A468C
:10196000179990476D1C0099481E00900029F5DCDE
:1019700008E0029802995A460078491C029117998A
:1019800090476D1CBAF10001AAF1010AF1DC6BE18C
:101990000928010030313233343536373839616245
:1019A0006364656600000000303132333435363709
:1019B00038394142434445460000000000F060F9D8
:1019C000054406F10106307800287FF4E9AD19B02E
:1019D0002846BDE8F08F620700D4062709F1070208
:1019E00022F0070CFCE80223E14603F000485FEA1E
:1019F000080C02D00FF27C2C0DE05FEA045C02D5EB
:101A00000FF2742C07E05FEAC47C02D00FF26C2C5A
:101A100001E0AFF2700C4FF0FF3823F00043CDF837
:101A200050C065280CD006DC452809D046281DD0BA
:101A300047283ED13EE0662818D0672839D139E0E2
:101A40000021112F01DB112000E0781CCDE90001FD
:101A500006A90EA8FFF7EEFCDDE90F010E9A03912F
:101A60000021009207F1010A04914EE04FF000407E
:101A70000097CDE9011006A90EA8FFF7DBFCDDE910
:101A80000F0203920E9B11990022DDF80CA0009327
:101A9000049219B907F1010100EB010AB7EB0A0042
:101AA00004D4C0F1FF3007F1010A0490AAEB07004B
:101AB000019046E0012F00DA01270021112F01DDFE
:101AC000112000E03846CDE9000106A90EA8FFF775
:101AD000B1FCDDE90F010E9A0391002104910092FF
:101AE000BA4621070CD40399514500DA8A46BAF167
:101AF000010F05DD009AAAF10101515C302908D0DF
:101B0000B84202DA10F1040F06DA0121CDE9011022
:101B100017E0AAF10101E9E7002805DC0499014476
:101B20000491AAEB000102E0411C514500DD8A4608
:101B30000499A0EB010000F1010001904FF000407A
:101B40000290200704D40198504501DBCDF80480B1
:101B500000208DF84F0002980DF14F07B0F1004FB3
:101B600025D02B200E9002984FF0020800280CDAA6
:101B7000404202902D200E9007E00A210298FEF7C5
:101B800083FB3031029007F8011DB8F10001A8F184
:101B90000108F2DC02980028EFD1791E0E98087037
:101BA000307800F0200040F0450007F8020D12A840
:101BB000A0EB070000F107081498007800B101209D
:101BC00000EB0A01019801EBE07105984144A0EB9C
:101BD0000100A0F101000590E00306D45B46214618
:101BE000179A059800F05FF805441498007820B122
:101BF0005A461799904705F10105E00323D55B4646
:101C00002146179A059800F04EF805441BE0049809
:101C1000002807DBDDE90301884203DD0098405C12
:101C2000179901E0179930205A46904704986D1C87
:101C3000401C04900198401E019004D12E205A4669
:101C4000179990476D1CBAF10001AAF1010ADEDC78
:101C500005E017F8010B5A46179990476D1CB8F12B
:101C60000001A8F10108F4DC5B462146179A0598AB
:101C7000A4E600002D0000002B0000002000000062
:101C80002DE9F041044600251E461746880405D478
:101C900006E039462020B04705F10105641EF8D55D
:101CA0002846BDE8F0812DE9F041044600251E4696
:101CB0009046C80301D5302700E02027880405D5C9
:101CC00006E041463846B04705F10105641EF8D5E7
:101CD0002846BDE8F0810A68531C0B6010707047FD
:101CE00001490020087170471400002001490120BB
:101CF000087170471400002001490020C870704727
:101D00001400002001490120C87070471400002011
:101D100070B5074C054602212046FFF76FF80028F2
:101D2000F9D029462046BDE87040FFF76EB80000A4
:101D3000003001400C4F0D4D00244FF400464FF48D
:101D4000FA7800BF94F001043146384602D0FEF71D
:101D500092FF01E0FEF78DFF00F092F828704046F8
:101D600001F044F9EEE70000000C01400000002003
:101D700038B501210920FEF7D7FF01214806FEF7FB
:101D8000BBFF4FF48070ADF8000048200B4C8DF87D
:101D9000030069462046FEF7F1FE6015ADF800002D
:101DA00018208DF8030069462046FEF7E7FE012162
:101DB0004FF4EA10FEF732FF38BD0000000C01407E
:101DC00070B51A4E88B03046FEF734FD04A8FEF711
:101DD0005EFE02208DF81800012500248DF81950B0
:101DE0001820ADF81A000494059404A93046FEF7B3
:101DF000A3FD8DF800508DF80140ADF80440ADF81A
:101E00000840ADF80C408DF80250ADF80640ADF832
:101E10000A408DF80E506846FEF724FD012202218B
:101E20003046FEF781FD08B070BD00000064004040
:101E300030B585B0089C10B1022802D003E00D48EF
:101E400000E00D48019004208DF8080000258DF871
:101E500009508DF80A008DF80C208DF80B108DF8C4
:101E60000D308DF80E4069460448FEF720FE05B09F
:101E700030BD0000F5021F18F5221F180064004055
:101E800070B5364C2078012810D03548006828B14C
:101E90004FF4FA7001F0AAF8012070BD002131481A
:101EA000FFF7C0F800210220FEF726FF2E4E4FF468
:101EB000005529463046FEF7D5FE38B9052001F019
:101EC00095F829463046FEF7CDFE20B100F074F9B2
:101ED00050B1042070BD2078012803D100F07AF8B9
:101EE0000028FBD1022070BD207988B1E078C8B10C
:101EF00000F032F900B3207800B300F0A7F938B34E
:101F0000607848B300F066F80028FBD1082070BD67
:101F10002078012804D100BF00F05CF80028FBD134
:101F2000032070BD2078012804D100BF00F052F8D2
:101F30000028FBD10A2070BD052070BD00F042FED4
:101F40000028FBD100F06AFB0028FBD1062070BD01
:101F500000F040F8072070BD092070BD140000207B
:101F60002400002000040040000C01401CB5174A6A
:101F70000528D2E90012CDE9001214D2DFE800F002
:101F800013030C0E1000124800680A21B0FBF1F098
:101F90008DF80200032004E0012002E0002000E0B0
:101FA00002208DF8030004216846FEF7CDFD8DF870
:101FB000040004216846FEF7C7FD000A8DF80500FD
:101FC0000621684600F0ECFE1CBD0000E837000862
:101FD000240000207CB500248720CDE900040423E0
:101FE0000222F1212046FFF723FF1F4D002332225A
:101FF00001A9286801F0CEF81C490198884201D057
:1020000008177CBD0A2000F0F1FF0120002300909A
:102010001222F1211846FFF70BFF0023322201A9FB
:10202000286801F0B7F812490198884201D0C81613
:102030007CBD104D00214FF080402C70FEF7F2FF68
:1020400000210120FEF758FE0B494FF4E1600860C3
:1020500001210220FEF750FE01210848FEF7E2FFB1
:10206000EC7000207CBD000010000020870402F10D
:10207000010012F1140000202400002000040040A0
:1020800070B50D4D044640212846FEF7F4FDF820BA
:10209000FFF73EFE04F0F000FFF73AFE2007000EC7
:1020A000FFF736FE012000F0A1FF2846BDE8704092
:1020B0004021FEF7DEBD00000008014070B50D4D67
:1020C000044640212846FEF7D6FDFA20FFF720FE01
:1020D00004F0F000FFF71CFE2007000EFFF718FECB
:1020E000012000F083FF2846BDE870404021FEF744
:1020F000C0BD000000080140014800897047000091
:102100001400002010B509A1802000F089F90CA16D
:10211000912000F085F90CA1892000F081F9BDE83B
:1021200010400BA1992000F07BB90000B9FEB9A4C2
:10213000B4F3BBFAC6F7C8CBBCAFCDC500000000F6
:10214000D7B4CCACA3BA0000CAB1BCE4A3BA0000B7
:10215000B5E7C1F7A3BA00007CB500203124CDE972
:10216000004004230122F121FFF762FE104D0023FD
:10217000502201A9286801F00DF80E490198884203
:1021800001D000207CBD0A2000F030FF0423312262
:10219000F12100200094FFF74BFE0023322201A919
:1021A000286800F0F7FF0028ECD001207CBD00007B
:1021B00010000020310401F12DE9FC41124E0024F1
:1021C0000194B0782546012809D0302000900423DE
:1021D0000122F1210020FFF72BFE0C4F04E000202C
:1021E000BDE8FC81641CE4B20023642201A93868C4
:1021F00000F0D0FF0128F5D01CB1F5800120B070AF
:10220000EDE7B5700120EBE714000020100000207E
:1022100010B504210748FEF797FC0649C2B20B79B6
:102220009A4205D14979B1EB102F01D1012010BD9F
:10223000002010BD2900002003480078552801D057
:102240000020704701207047290000207CB5002045
:102250003024CDE9004004230122F121FFF7E8FDFD
:10226000164D0023322201A9286800F093FF14497B
:102270000198884201D000207CBD0A2000F0B6FE03
:1022800004233122F12100200094FFF7D1FD002327
:10229000322201A9286800F07DFF0028ECD009490E
:1022A000094A0198088112683C2A04D3074A9042DF
:1022B00001D20120487001207CBD000010000020E8
:1022C000300401F11400002020000020E00031F172
:1022D00038B501210420FEF727FD01210820FEF773
:1022E00023FD4FF44050ADF8000001248DF802406A
:1022F00048258DF8035069460748FEF73FFC200249
:10230000ADF800008DF802408DF80350694603488F
:10231000FEF734FC38BD0000000C0140000801400D
:1023200010B540210948FEF7A4FC3020FFF7A8FEB5
:102330000C20FFF7A5FE0120FFF7A2FE0220FFF709
:102340009FFEBDE810408020FFF79ABE00080140C4
:1023500010B5FFF7D1FE0146BDE810409C2000F00B
:1023600001B800007CB5064600200D4600906C4682
:102370000A4601900AA12046FFF738F83046FFF7D9
:102380007FFE0A2D07D22020FFF798FE03E0C0B29F
:10239000FFF794FE641C20780028F8D17CBD000073
:1023A000202578007CB5064600200C4600906D463E
:1023B000019011F1FF4F01D381F000442046FDF759
:1023C00050FF02460B4612A16846FFF70FF8304651
:1023D000FFF756FE104EB44205DA2020FFF76EFEDE
:1023E0002020FFF76BFE0D48844203DA2020FFF720
:1023F00065FE09E0B44207DA2020FFF75FFEF5E74B
:10240000C0B2FFF75BFE6D1C28780028F8D17CBDB8
:1024100020252E31660000000000C84200007A44EA
:1024200010B50C46FFF72CFE03E000BFFFF746FE99
:10243000641C20780028F9D110BD000038B50121B6
:102440000820FEF771FC4FF44044ADF80040102026
:102450008DF803000320064D8DF8020069462846DA
:10246000FEF78CFB21462846FEF705FC38BD000030
:10247000000C01401CB5FEF73BFDFFF729FFFFF7FD
:10248000DDFFFFF775FC00F053FCFFF799FC00F04F
:10249000A7FC00F089F8FEF74BFDFEF781FD002256
:1024A0000421112000F05AFE124902240023086181
:1024B000081DCDE9004064220FA1134800F080FF01
:1024C0000C4800230830CDE9004064220FA11348D6
:1024D00000F076FF074901200C31CDE9000100230F
:1024E0004FF4C8720EA1124800F06AFF00F0B4FD6C
:1024F00000201CBD0000002055736172744C6364A1
:102500005461736B00000000412D00085573617227
:1025100074497264615461736B000000912E00086D
:1025200043616E4368617267655461736B000000BC
:10253000351D00081CB501221A4C052931D2DFE8EF
:1025400001F03003070B1400BDE81C40FFF70EBD7F
:10255000D4E902130A2802E0D4E904130928CDE9DA
:1025600000131ED18DF803200AE0D4E90613CDE94B
:1025700000130828F6D00128F4D000208DF80300BD
:1025800004216846FEF7E0FA8DF80400042168464D
:10259000FEF7DAFA000A8DF805000621684600F019
:1025A000FFFB1CBDE837000838B54FF4C060FEF7EC
:1025B00099FB26208DF8000000248DF802400125AB
:1025C0008DF803506846FEF75BFB27208DF800006E
:1025D0008DF802408DF803506846FEF751FB142039
:1025E0008DF800008DF802408DF803506846FEF724
:1025F00047FB1C208DF800008DF802408DF8035039
:102600006846FEF73DFB1D208DF800008DF8024066
:102610008DF803506846FEF733FB38BD7CB50024C7
:102620008720CDE9000404230222F1212046FFF790
:10263000FFFB194D0023322201A9286800F0AAFDF2
:1026400016490198884201D008177CBD0A2000F085
:10265000CDFC00231222F12118460094FFF7E8FB7D
:102660000023322201A9286800F094FD0C4901984A
:10267000884201D0C8167CBD0A480121447001700F
:10268000094804600846FEF737FB01218807FEF77A
:10269000C9FC00207CBD000010000020870402F16E
:1026A000000012F114000020200000202DE9F0416C
:1026B000184C0F460546E6682068001D00F010FC27
:1026C00038B9206890F82C10012088402169814396
:1026D0002161681C07D137B12168BDE8F041091DAF
:1026E0000D4800F035BC20683544B542456021688E
:1026F00001F1040104D2A06BBDE8F04100F010BC70
:10270000606B00F00DFCA06A854200D2A562BDE8B6
:10271000F0810000480000206C0300202DE9F0410A
:10272000054600F021FC2D4CA068401CA0602068EC
:102730002B4F10B1606930B32BE02560A0680128F1
:1027400027D1002606EB860007EB800000F0DAFBBD
:10275000761C202EF6D3234800F0D4FB21481430F9
:1027600000F0D0FB1F48283000F0CCFB1D483C3067
:1027700000F0C8FB1B48503000F0C4FB19486063F0
:102780001430A06305E02068E96AC06A884200D876
:102790002560606A401C6062E96A01202269884005
:1027A0001043206101EB810007EB8000291D00F040
:1027B000CFFB00F0E7FB606900280CD02068E96AD5
:1027C000C06A884207D208494FF080500860BFF3C2
:1027D0004F8FBFF36F8FBDE8F081000048000020ED
:1027E0009C0000201C03002004ED00E070B5114E99
:1027F000114C17E000F05AFC3068B8B100F09AFEB6
:1028000000F0B2FBF068C568281D00F069FBA06805
:10281000401EA0606068401E606000F0B3FB284668
:1028200000F04CF860680028E4D170BD00F082FE32
:10283000F8E70000580300204800002030B4026C84
:102840000B46002A0BD0C1681144C1604468A14204
:1028500001D30168C16030BC1846FDF7ABBC30BC89
:1028600070472DE9F041856B164604460027026C3F
:10287000FAB17EB1E068FDF79DFCE168206C091AB1
:10288000E1602268914202D26168081AE060022E7B
:102890000DD00EE0A068FDF78DFC216CA068084407
:1028A000A0606168884204D32068A06001E005B19F
:1028B0006D1E6D1CA5633846BDE8F08110B5044659
:1028C000006B00F069FB2046BDE8104000F064BBDF
:1028D00010484FF48841420706D0C01D0D4920F032
:1028E0000700411AC1F588410B4A00230144C2E99F
:1028F00000030839103A21F0070111604B600B60AA
:102900000B1AC0E9001393604FF000405360D06091
:10291000704700008003002094000020074C4FF017
:102920008056074DFFF762FF20680128FAD92E6014
:10293000BFF34F8FBFF36F8FF4E700009C000020C0
:1029400004ED00E02DE9F0479A46DDE9096481468F
:102950006FF00303206B03EB82021044089D20F00C
:102960000707002023180A5C83F834200A5C12B1A0
:10297000401C1028F6D34FF0000884F84380202D27
:1029800000D31F25201DE56200F0C7FA04F11800EE
:1029900000F0C3FAC5F120002461A0616462C4F8AC
:1029A000448084F8488052464946384600F0D4F8BE
:1029B0002060002E00D03460BDE8F08730B51149AA
:1029C00000E011460A688242FBD34B685C188442DF
:1029D00003D1406818444860084643681C18944274
:1029E00009D1084C103C2468A24209D052681A440C
:1029F00042600A6812680260814200D0086030BDFF
:102A00000460F9E79400002010B5044600F0ACFA29
:102A1000A06B28B15FF0000400F0B4FA204610BDAE
:102A20000124F9E70648416B096829B1416BC9687F
:102A3000C9684968816270474FF0FF31FAE70000CA
:102A400048000020BF2080F31188BFF34F8FBFF3F1
:102A50006F8FFEE72DE9F041044600F085FA94F906
:102A6000455004F1240609E0606A48B1304600F0A0
:102A70002DFD08B100F0D2FA6D1E6DB2002DF3DC11
:102A80004FF0FF3684F8456000F07CFA00F06CFAF5
:102A900094F9445004F1100709E0206948B1384620
:102AA00000F014FD08B100F0B9FA6D1E6DB2002DF2
:102AB000F3DC84F84460BDE8F04100F063BA000044
:102AC0002DE9F0410546002700F0F0FA214E30686C
:102AD00008B9FFF7FDFEF068054236D1ADB3083501
:102AE000680704D005F00700C0F10800054465B38D
:102AF0007068854229D81748103001460C6801E0FB
:102B000020460C466168A94202D221680029F7D10B
:102B100031688C4219D00768216801606068083705
:102B2000411B102904D9601941606560FFF746FF19
:102B300061687068401A7060B268904200D2B060FC
:102B4000F06801430020C4E9000100F0F3FC3846BE
:102B5000BDE8F0818400002010B5031F4FF08074A1
:102B60001C601B1F21F001011960191F024B0B6033
:102B7000143940380A6010BD452A000870B5104D60
:102B800000242878052819D9FFF756FB0026A0B1A4
:102B9000FFF73EFB88B1681C4078012806D0022868
:102BA00006D0032806D0042807D105E0012404E05C
:102BB000022402E0032400E004242E70204670BDAD
:102BC000280000207CB500252120CDE90005042344
:102BD0000222F1212846FFF72BF92A4C002332224A
:102BE00001A9206800F0D6FA27490198884201D04F
:102BF00008177CBD0A2000F0F9F9B32000900E23DD
:102C00001222F1210020FFF713F90023322201A93B
:102C1000206800F0BFFA1D490198884201D0C8160B
:102C20007CBD0A2000F0E2F9232000900423022258
:102C3000F1210020FFF7FCF80023322201A92068CF
:102C400000F0A8FA10490198891C884202D06FF060
:102C500002007CBD0A2000F0C9F90A231222F121EA
:102C600000200095FFF7E4F80023322201A9206834
:102C700000F090FA06490198884201D088167CBD80
:102C800000207CBD10000020210402F1B30E12F1DF
:102C9000000A12F110B5012186B00803FEF744F8CE
:102CA0000020ADF800004FF48271ADF80210012150
:102CB000ADF808104902ADF80A101021ADF80C105B
:102CC000ADF80400ADF80600ADF80E000720064C84
:102CD000ADF8100069462046FEF799F8012120461C
:102CE000FEF782F806B010BD0030014038B5012172
:102CF0000520FEF719F8A020ADF8000003248DF898
:102D000002401820094D8DF8030069462846FDF75A
:102D100035FF4020ADF800008DF8024010208DF8FE
:102D2000030069462846FDF729FF38BD0008014029
:102D300010B5FFF7DBFFBDE81040FFF7ABBF0000A9
:102D400008B500208DF80000104CC82000F04EF9A6
:102D5000FFF7E6FAFFF7D6F90D4D0E4E0E4F2A7823
:102D60000EA16846FEF742FB69469520FFF758FB27
:102D70003068FDF771FA3946FDF72EFA01468B20CF
:102D8000FFF710FB2046FFF7E3FAE8E73333234170
:102D90000000002020000020000070422578000084
:102DA00070B50D4E0C46054601213046FDF763FF18
:102DB00002213046FDF75FFF224629460748FEF70D
:102DC000B5FA01213046FDF754FF3046BDE87040AA
:102DD0000221FDF74EBF0000000C014000480040FA
:102DE000F8B501210D20FDF79FFF01214804FDF7F3
:102DF00083FF4FF4E1312248FEF7F6F918268DF8EB
:102E0000036004241F4FADF8004003258DF80250E5
:102E100069463846FDF7B2FE8DF803400820ADF84C
:102E2000000069463846FDF7A9FE01218804FDF738
:102E300063FF4FF416611448FEF7D6F98DF803606E
:102E40002002ADF80000114E8DF802506946304660
:102E5000FDF794FE8DF803406002ADF8000069466E
:102E60003046FDF78BFEADF8005001208DF80200D2
:102E700010208DF8030069463046FDF77FFEF8BD4F
:102E8000004400400008014000480040000C0140A0
:102E9000124D00BFFFF772FE04001AD001462878D9
:102EA000FFF748FB012C04D0022C08D0032C0CD0D7
:102EB0000FE0287803280CD1FEF718FF09E02878E6
:102EC0000A2806D1FEF71EFF03E0FEF709FFFEF712
:102ED00013FF142000F08AF8DCE700000000002057
:102EE000D0E9013201699A60D0E901235A604A6849
:102EF000824201D182684A60002202610868401E55
:102F00000860704700F108014FF0FF32C0E901127C
:102F1000C1600161002101607047002101617047BB
:102F200030B50B685A1C02D000F1080202E00269B9
:102F300004E02246546825689D42FAD953684B60E4
:102F400099608A60516008610168491C016030BD68
:102F500042684A6093688B60936859609160086129
:102F60000168491C01607047BF2080F31188BFF3DE
:102F70004F8FBFF36F8F02480168491C0160704793
:102F80004400002003490868401E086001D180F316
:102F9000118870474400002070B5002818D00D4DEE
:102FA000A0F108046068E968084211D02268002A8C
:102FB0000ED18843606000F079F860686968084461
:102FC00068602046FFF7FAFCBDE8704000F0B2BA36
:102FD00070BD0000840000204FF0E02002494161F4
:102FE00007210161704700003F19010010B5020080
:102FF00009D000F05BF800211046FFF757FB00F006
:1030000099FA002807D104494FF080500860BFF3B7
:103010004F8FBFF36F8F10BD04ED00E00149012019
:10302000C86170474800002010B50C460549096882
:103030001831FFF775FF2046BDE810400121FFF76A
:1030400035BB00004800002002490A6A0260C968D6
:1030500041607047480000201CB510480024CDE9AD
:103060000040234680220EA10F4800F0A9F9012854
:1030700012D1BF2080F31188BFF34F8FBFF36F8F42
:1030800006484FF0FF312C38816201214161C46054
:10309000BDE81C4000F034B81CBD000074000020E6
:1030A00049444C45000000001D2900080248016BFE
:1030B000491C016370470000480000200E48016B66
:1030C00011B10121C16170470021C16101690B4A41
:1030D000B1FA81F1C1F11F0101EB810102EB810124
:1030E00001F108034A6852684A609A4201D1526865
:1030F0004A60D16801607047480000209C000020B1
:10310000094810B5016841F47F010160016841F090
:103110007F410160FFF760FF044900200860FDF770
:1031200001F8002010BD000020ED00E04400002068
:1031300010B5BF2080F31188BFF34F8FBFF36F8F9F
:1031400000F06AF918B104494FF08050086000207F
:1031500080F3118810BD000004ED00E070B50E0092
:10316000054612D005FB06F04830FFF7A9FC040025
:1031700009D004F1480120464EB10160C0E90F5664
:10318000012100F08BF8204670BD0020ECE70060C4
:10319000F4E700002DE9FF4F002783B09A468B46E5
:1031A0000446B9464FF08056DFF8EC80FFF7DCFEAE
:1031B000A56B25B359462046E768FFF73FFBBAF1F8
:1031C000000F14D0E760606A58B104F1240000BF1A
:1031D00000F07CF928B1C8F80060BFF34F8FBFF34F
:1031E0006F8FFFF7CFFE012007B0BDE8F08F6D1E97
:1031F000A56320690028F4D004F11000E8E70598E1
:1032000008B11FB106E0FFF7BDFE27E06846FFF7F3
:103210001BFF0127FFF7B6FEFFF748FFFFF7A4FEED
:1032200094F94400401C01D184F8449094F945007D
:10323000401C01D184F84590FFF7A4FE05A968461B
:1032400000F09AF8002820460AD0FFF703FC00F0AF
:1032500071F92046FFF7D8FB0028A7D00020C3E76C
:10326000FFF7D2FB90B104F124000599FFF7DCFED3
:103270002046FFF7EFFB00F05DF9002896D1C8F873
:103280000060BFF34F8FBFF36F8F8FE72046FFF7CC
:10329000E1FB00F04FF989E704ED00E070B50D4661
:1032A0000446FFF761FED4E90F12206801FB02001B
:1032B00060600020A0632068A0600146E06B401EB3
:1032C00000FB0210E0604FF0FF3084F8440084F807
:1032D000450004F110004DB1FFF714FE04F1240085
:1032E000FFF710FEFFF74EFE012070BD2169002997
:1032F000F8D000F0EBF80028F4D004494FF08050EB
:103300000860BFF34F8FBFF36F8FEBE704ED00E072
:103310002DE9F04104461746BF20EFF3118680F3F4
:103320001188BFF34F8FBFF36F8FA26BE06B8242A8
:1033300006D3022B04D0002086F31188BDE8F0816B
:1033400094F945501A462046FFF78BFA681C04D0C2
:103350006D1C84F845500120EEE7606A0028FAD021
:1033600004F1240000F0B2F80028F4D0002FF2D0CD
:1033700001203860EFE7000070B50D460446FFF706
:10338000F3FD0E4AD1682868431C0FD02368126AE7
:10339000934202D062688A420AD96268891A8142DD
:1033A00006D2401A28602046FFF74EFE002400E0B7
:1033B0000124FFF7E7FD204670BD00004800002013
:1033C0002DE9FF5F8346DDE90E87994616468A465A
:1033D0009000FFF775FB05001AD04C20FFF770FB3B
:1033E000040012D025630021CDE90241CDE9008718
:1033F0004B46324651465846FFF7A4FA2046FFF79F
:103400008DF9012004B0BDE8F09F2846FFF7C4FD08
:103410004FF0FF30F6E700002DE9F041294C00277E
:10342000206B40B1A069401CA061E06900B1012798
:103430003846BDE8F081E668761CE66008D1606B2E
:10344000A16B6163A063206A401C2062FFF7EAFA67
:10345000A06ADFF87480864209D3606B006880B18F
:10346000606BC068C568686886420DD2A06220683B
:10347000C06A00EB800158F821000128D5D9012746
:10348000D3E74FF0FF30F1E7281DFFF729FDA86AC9
:1034900018B105F11800FFF723FDE86A0121226940
:1034A00081401143216100EB800108EB8100291D5F
:1034B000FFF74EFDE86A2168C96A8842CDD301272B
:1034C000CBE70000480000209C0000202DE9F041DF
:1034D000C068C46804F118000746FFF701FD124DEB
:1034E000286B012668B11148394600BFFFF730FD4F
:1034F000E06A2968C96A884213D90120EE61BDE8F3
:10350000F081201DFFF7ECFCE16A2A6906FA01F060
:103510001043286101EB8100054901EB8000211D6A
:10352000E4E70020EBE7000048000020440300200F
:103530009C0000202DE9F04700242646FFF714FDEB
:10354000264D286B401E2863286BE0BBA968244FDA
:103550000120C1B3A7F52A7980463868E8B1F86838
:10356000C46804F11800FFF7BBFC201DFFF7B8FC8E
:10357000E06A2A6908FA00F11143296100EB800131
:1035800009EB8100211DFFF7E3FCE06A2968C96AA5
:103590008842E2D3C5F81C80DFE70CB1FFF742FA9E
:1035A000AC694CB14FEA0807FFF736FF00B1EF6195
:1035B000641EF9D10020A861E86920B109490126FB
:1035C0003007086000E003E0BFF34F8FBFF36F8F59
:1035D000FFF7D8FC3046BDE8F08700004800002027
:1035E0004403002004ED00E000C1814001C080419F
:1035F00001C0804100C1814001C0804100C18140C3
:1036000000C1814001C0804101C0804100C18140B2
:1036100000C1814001C0804100C1814001C08041A2
:1036200001C0804100C1814001C0804100C1814092
:1036300000C1814001C0804100C1814001C0804182
:1036400001C0804100C1814000C1814001C0804172
:1036500001C0804100C1814001C0804100C1814062
:1036600000C1814001C0804101C0804100C1814052
:1036700000C1814001C0804100C1814001C0804142
:1036800001C0804100C1814000C1814001C0804132
:1036900001C0804100C1814001C0804100C1814022
:1036A00000C1814001C0804100C1814001C0804112
:1036B00001C0804100C1814001C0804100C1814002
:1036C00000C1814001C0804101C0804100C18140F2
:1036D00000C1814001C0804100C1814001C08041E2
:1036E00001C0804100C1814000C0C101C30302C2CA
:1036F000C60607C705C5C404CC0C0DCD0FCFCE0E32
:103700000ACACB0BC90908C8D81819D91BDBDA1AA1
:103710001EDEDF1FDD1D1CDC14D4D515D71716D611
:10372000D21213D311D1D010F03031F133F3F23281
:1037300036F6F737F53534F43CFCFD3DFF3F3EFEF1
:10374000FA3A3BFB39F9F83828E8E929EB2B2AEA61
:10375000EE2E2FEF2DEDEC2CE42425E527E7E626D1
:1037600022E2E323E12120E0A06061A163A3A26241
:1037700066A6A767A56564A46CACAD6DAF6F6EAEB1
:10378000AA6A6BAB69A9A86878B8B979BB7B7ABA21
:10379000BE7E7FBF7DBDBC7CB47475B577B7B67691
:1037A00072B2B373B17170B0509091519353529201
:1037B00096565797559594549C5C5D9D5F9F9E5E71
:1037C0005A9A9B5B99595898884849894B8B8A4AE1
:1037D0004E8E8F4F8D4D4C8C448485458747468651
:1037E0008242438341818040AA0100FF0000000023
:1037F000AA0200FF00000000AA0300FF0000000072
:10380000AA0400FF00000000283800080000002083
:103810009C00000014140008C43800089C0000201C
:10382000E44A00002414000800000000000000002A
:103830000000000000000000000000000000000088
:103840000000000000000000000000000000000078
:103850000000000000000002040608000000000153
:10386000020304010203040607080900AAAAAAAA7F
:103870000000000000000000000000000000000048
:103880000000000000000000000000000000000038
:103890000000000000000000000000000000000028
:1038A0000000000000000000000000000000000018
:1038B0000000000000000000000000000000000008
:0438C0000000000004
:040000050800019955
:00000001FF
