:020000040800F2
:10000000884B002099010008E30C0008DF0C000871
:10001000E10C0008950800083914000800000000F1
:1000200000000000000000000000000001010008C6
:10003000DD0B000800000000450100082534000821
:10004000AF010008AF010008AF010008AF010008D0
:10005000AF010008AF010008AF010008AF010008C0
:10006000AF010008AF010008AF010008AF010008B0
:10007000AF010008AF010008AF010008AF010008A0
:10008000AF010008AF010008AF010008AF01000890
:10009000BD130008AF010008AF010008AF01000860
:1000A000AF010008AF010008AF010008AF01000870
:1000B000C90F000839100008AF010008AF0100089F
:1000C000AF010008AF010008AF010008AF01000850
:1000D000AF010008AF010008A5110008D111000808
:1000E000AF010008AF010008AF010008DFF80CD035
:1000F00000F02EFB004800474D240008884B0020EC
:10010000224B19680868B0E8F00F80F30988BFF344
:100110006F8F4FF0000080F311884EF00D0E704786
:100120000000000006480068006880F3088862B696
:1001300061B6BFF34F8FBFF36F8F00DF00BF00BF0B
:1001400008ED00E0EFF30980BFF36F8F0F4B1A68E3
:1001500020E9F00F106008B54FF0BF0080F3118860
:10016000BFF34F8FBFF36F8F03F022F94FF0000002
:1001700080F31188BDE8084019680868B0E8F00FFE
:1001800080F30988BFF36F8F704700BF4C000020D9
:10019000EFF305807047000005480047FEE7FEE7E3
:1001A000FEE7FEE7FEE7FEE7FEE7FEE7FEE7FEE727
:1001B000ED00000840EA01039B0703D009E008C9ED
:1001C000121F08C0042AFAD203E011F8013B00F81C
:1001D000013B521EF9D27047D2B201E000F8012B68
:1001E000491EFBD270470022F6E710B513460A46B7
:1001F00004461946FFF7F0FF204610BD421E12F8D4
:10020000013F002BFBD111F8013B02F8013B002B11
:10021000F9D17047034611F8012B00F8012B002A91
:10022000F9D11846704730B480EA010202F0004567
:1002300030F0004221F0004015D0A0B1C0F3C75308
:10024000C2F3C754C2F31601C0F31600E41A41F416
:10025000000140F400027D34914201D3641C00E0AF
:100260004900002C02DA30BC002070474FF4000037
:100270000023914201D3891A034340084FEA410108
:10028000F7D151B1914202D14FF0004105E002D2C5
:100290004FF0010101E06FF0010103EBC45028446D
:1002A00030BC00F06BB8420005D0C0F3C7525242D8
:1002B000914201DC0020704700EBC150704796234B
:1002C0000022114600F063B800F0004230F0004018
:1002D0000AD0C10D01F56071C0F3160042EA015168
:1002E000C20840071143704700200146704730B5EF
:1002F0000B46014600202022012409E021FA02F5E4
:100300009D4205D303FA02F5491B04FA02F528447D
:10031000151EA2F10102F1DC30BD2DE9F05F0546AA
:10032000002092469B4688460646814640241BE0B4
:10033000284641464746224600F02BFA53465A4685
:10034000C01A914110D311461846224600F012FA05
:100350002D1A67EB01084F4622460120002100F0CC
:1003600009FA17EB00094E41201EA4F10104DFDC5D
:10037000484631462A464346BDE8F09F0029A8BFBB
:100380007047401C490008BF20F00100704710B4BE
:10039000B0FA80FC00FA0CF050EA010404BF10BC73
:1003A000704749B1CCF1200421FA04F411FA0CF1A0
:1003B00018BF012121430843A3EB0C01CB1D01060B
:1003C000000A002BBEBF002010BC704700EBC350DA
:1003D00010440029A4BF10BC7047401C490008BF4E
:1003E00020F0010010BC70472DE9FE4F804681EAE5
:1003F0000300C00F0C46009021F0004123F000459F
:10040000B8EB0200A94105D24046214690461C4661
:100410000B46024623F00040104304D140462146DB
:1004200003B0BDE8F08F270DC7F30A00C3F30A51EC
:100430000290401A0190402866DAC3F3130040F49A
:10044000801B0098924620B10023D2EB030A63EB95
:100450000B0B01985946C0F14002504600F08AF952
:1004600006460D4650465946019A00F0A2F910EB97
:1004700008006141002487EA115284EAE7731A43B5
:100480003BD0009A3AB3019A012A4FEA075210DC96
:10049000001B61EB02014FF0004202EA0752CDE976
:1004A0000042001C41F5801132462B4600F0A0F9B5
:1004B000B6E7001B61EB0201001C41F58013001838
:1004C0005B412018A2F5001747EB030140EAD57005
:1004D000B6196D4111E06D084FEA360645EAC07560
:1004E0004FEA0752001B61EB0201001C41F580112D
:1004F00049084FEA30000019514132462B4603B0FB
:10050000BDE8F04F00F067B90098012240000023D9
:10051000D0EB020263EBE073009821464FEAE074EF
:10052000B8EB000061EB0401E9E783F000435BE70F
:1005300081F0004158E72DE9FE4F81EA030404F001
:10054000004421F0004100944FF0000B23F00043E1
:1005500050EA010402D052EA030404D1002001460B
:1005600003B0BDE8F08FC3F30A54C1F30A552C441D
:10057000A4F2F3340194A0FB0254C1F3130141F43B
:100580008011C3F3130343F4801301FB024400FB07
:10059000034E840A970A44EA815447EA8357A4FB2E
:1005A000076802958D0A05FB07854FEA932C04FB2B
:1005B0000C542705029D4FEA065847EA1637B5EB5B
:1005C00008056EEB070C870E920E47EA811742EA88
:1005D0008312A7FB0201B6EB0B0164EB00042B0DA9
:1005E00043EA0C335E1844EB1C50DA465146E7FBF5
:1005F0000201C5F313044FEA0B3343EA14534FEAE5
:100600000432019C43EA0603A4F10C040294009C0A
:10061000CDE900B400F0ECF8A2E72DE9F04D81EA55
:10062000030404F0004B21F0004514464FF0000A8B
:1006300023F0004150EA050220D054EA01021DD007
:10064000C5F30A570246C5F31303C1F31300C1F300
:100650000A5640F4801543F48013A7EB0608101BDC
:10066000D64608F2FD3873EB050002D308F1010805
:1006700001E092185B41B8F1000F03DA0020014657
:10068000BDE8F08D00204FF48011064684460EE050
:10069000171B73EB050705D3121B63EB050306431A
:1006A0004CEA010C49084FEA300092185B4150EACD
:1006B0000107EDD152EA030012D082EA040083EA76
:1006C0000501084303D100224FF0004308E0101B4E
:1006D000AB4102D20122002302E06FF0010253106D
:1006E0001AEB06004CEB085110EB0A0041EB0B0132
:1006F000BDE8F04D00F06FB8C1F30A52C1F3130129
:1007000040F2FF3341F480119A4202DA00200146A0
:10071000704740F233439A42A2F2334202DC524223
:1007200000F037B800F026B830B5002904DB4FF0F0
:100730000044404264EB0101002B04DB4FF0004415
:10074000524264EB0303994208BF904230BD00005F
:10075000064C074D06E0E06840F0010394E807000E
:1007600098471034AC42F6D3FFF7C4FCFC3A0008BB
:100770001C3B0008202A04DB203A00FA02F100208A
:1007800070479140C2F1200320FA03F319439040CF
:100790007047202A04DB203A21FA02F0002170473A
:1007A00021FA02F3D040C2F12002914008431946D9
:1007B0007047202A06DBCB17203A41FA02F043EAC1
:1007C000E07306E041FA02F3D040C2F1200291400A
:1007D00008431946704710B5002B08DA401C41F158
:1007E000000192185B411A4301D120F0010010BDB5
:1007F0002DE9F04D92469B4611B1B1FA81F202E02B
:10080000B0FA80F220329046FFF7B4FF04460F465C
:1008100040EA0A0041EA0B0153465A46084303D115
:1008200020463946BDE8F08D114653EA010015D047
:10083000C8F140025046FFF7ACFF05460E46504651
:1008400059464246FFF796FF084301D0012000E0D9
:100850000020054346EAE0762C4337430A984FEAE6
:100860004453A0EB08004FEAD4240A304FF00002B2
:1008700044EA47544FEAD72502D500200146D1E784
:10088000010510196941DDE9084500196941BDE814
:10089000F04DA0E7FEE70000074910B540180AD167
:1008A00001214C06204600F065FA2046BDE81040C4
:1008B000002100F05FBA10BD009CFFBF202209B1EB
:1008C00002617047C2607047F0B502780121914023
:1008D0002D4A136843F0010313602B4B1C331C6833
:1008E0008C431C60284C284D87780C3440352E1DD5
:1008F000A7B927688F432760C788B0F80AC047EABE
:100900000C4790F800C045F83C708788B0F808C0E4
:1009100047EA0C4790F800C046F83C708778012FF2
:100920000ED127680F432760446807784FEA3444A4
:1009300045F83740846805784FEA344446F8354036
:10094000114C4578241D002D256806D00D432560E7
:100950000D4C8589143415B104E08D43F7E7256803
:100960008D4325608589012D02D125680D432560C1
:10097000807B012802D1186808431860106820F0B5
:1009800001001060F0BD000000660040002A4269CE
:1009900001D00A4300E08A434261704710B5026803
:1009A000002322F002020260026842F001020260AB
:1009B0004FF6FF7202E05B1C934202D04468E407EA
:1009C000F9D04368DB073ED00B78012B03683CD09D
:1009D00023F0800303604B78012B036838D023F0A9
:1009E000400303608B78012B036834D023F020038D
:1009F0000360CB78012B036830D023F01003036031
:100A00000B79012B03682CD023F0080303604B798A
:100A1000012B036828D023F0040303608B79CC7981
:100A20009B0743EA04630C7A43EA04434C7A4989FE
:100A300043EA0453491E0B43C361016821F00101DD
:100A40000160002116E0002010BD43F08003C1E7E3
:100A500043F04003C5E743F02003C9E743F0100328
:100A6000CDE743F00803D1E743F00403D5E7491C81
:100A7000914202D04368DB07F9D14068C007E2D158
:100A8000012010BD10B400EB0113D3F8B04114F0F5
:100A900004041472D3F8B04128D0E408C2F804402A
:100AA00003F5D8731C6804F0020454725C6804F007
:100AB0000F0494725C68240AD4749C68D4729C6895
:100AC000240A14739C68240C54739C68240E947339
:100AD000DC68D473DC68240A1474DC68240C547455
:100AE000DB681B0E937410BCFFF7E8BE640D146046
:100AF000D6E70021017041708170C17001714171B0
:100B00008171C17103210172022141720121418170
:100B1000704730B50246002093685B0108D49068A6
:100B2000000101D5012003E09068C00031D502200A
:100B300002EB0012D2F8803103F00103C2F88031D9
:100B40000B7A43B3D2F880414D681C434B7A43EA99
:100B5000C5031C43C2F880418B7A02F5C07203F0D2
:100B60000F038B72536823F00F03536053688C7A22
:100B700023435360CB7ACC6843EA04239360CB7B56
:100B8000096943EA0121D160116841F00101116056
:100B900030BD042030BDD2F880314C7A23430C881C
:100BA00043EA4453C2F88031D6E7000070B50A4DDD
:100BB000FF231A4605F5807606E000BF10F8014BCA
:100BC00054402A5D5A40335D0C00A1F1010189B205
:100BD000F4D142EA032070BDDC3800087047000001
:100BE000F0B5CA78002502F00F03D20601D58A7845
:100BF00013430C784FF00F0E0122ECB1D0F80040F7
:100C00000F8802FA05F63740B74211D14FEA850C3A
:100C10000EFA0CF724EA070703FA0CF43C43CF78EA
:100C2000282F02D0482F02D002E0466100E0066182
:100C30006D1C082DE4D304600C88FF2C1ED9446879
:100C40005FF0000606F1080702FA07F50F882F404B
:100C5000AF420FD14FEA860C0EFA0CF7BC4303FAF1
:100C60000CF73C43CF78282F00D14561CF78482F2F
:100C700000D10561761C082EE4D34460F0BD00006D
:100C8000F0B5104D6A68440D260184B2C0F30157D7
:100C9000B440C0F30343032F05D0C0020AD503209C
:100CA0009840824307E0686822F0706320F070602B
:100CB000686002E0A24342F0706301B123436B60BD
:100CC000F0BD0000000001400246002092680A4288
:100CD00000D0012070474161704701617047FEE715
:100CE000FEE77047F0B50F21C478027801234FF07A
:100CF000E026DCB1124C2468457804F4E064C4F5C5
:100D0000E064240AC4F10407E1408478BD400C404B
:100D10002C4321010B4C1155007800F01F018B4032
:100D2000400906EB8000C0F80031F0BD02F01F0062
:100D30008340500906EB8000C0F88031F0BD000010
:100D40000CED00E000E400E00249084302490860BD
:100D5000704700000000FA050CED00E0044A00298D
:100D6000D16901D0014300E08143D16170470000A7
:100D700000100240044A0029116901D0014300E03B
:100D8000814311617047000000100240044A0029AD
:100D9000916901D0014300E08143916170470000F7
:100DA00000100240044A0029D16801D0014300E04C
:100DB0008143D160704700000010024030B51F49E8
:100DC0004A6812F00C031E4A03D0042B01D0082BF2
:100DD00022D002604A680F231A4C03EA1212A35C65
:100DE0000268DA4042604B68072505EA1323E35C9A
:100DF00022FA03F383604B6805EAD323E35C22FA0B
:100E000003F2C2604968032303EA9131231F595C4E
:100E1000B2FBF1F1016130BD4A68022302F47012A5
:100E200003EB92424B6813F4803F02D04B689B0364
:100E300001D5054B00E0024B5A43CAE700100240BF
:100E400000127A003700002000093D0000290188C7
:100E500002D041F0400101E021F0400101807047E3
:100E600030B502884C8802F441530A88CD88224369
:100E70008C882C4322430C8922434C8922438C8941
:100E80002243CC8922431A430280828B22F40062DF
:100E90008283098A018230BD0CB500212648019168
:100EA0000091026842F4803202604FF4A06302684D
:100EB00002F400320092019A521C0192009A12B977
:100EC000019A9A42F3D10268920333D5012100912D
:100ED0001A490A6842F010020A600A6822F0030206
:100EE0000A600A6842F002020A6041684160416893
:100EF0004160416841F480614160416821F47C11A6
:100F00004160416841F4E8114160016841F080713D
:100F1000016001688901FCD5416821F0030141604D
:100F2000416841F0020141604168C1F38101022939
:100F3000FAD10CBD0091FEE70010024000200240F3
:100F40000C48016841F00101016041680A4A114002
:100F500041600168094A11400160016821F4802163
:100F60000160416821F4FE01416000218160FFF7CA
:100F700093BF0000001002400000FFF8FFFFF6FEE4
:100F80003EB501210846FFF7E9FE4FF080442046B8
:100F900000F07CF842F21070ADF8040041F61F40FA
:100FA000ADF800000020ADF802006946204600F0D0
:100FB000DBF80121204600F057F8012211462046B7
:100FC00000F0CAF83EBD000010B501218C07204694
:100FD00000F0B6F8002807D00121204600F047F8BD
:100FE00002480168491C016010BD00002400002077
:100FF0003EB501210220FFF7B1FE0E4C204600F065
:1010000045F84FF47A70ADF8040041F61F40ADF892
:1010100000000020ADF802006946204600F0A4F868
:101020000121204600F020F801221146204600F060
:1010300093F83EBD0004004010B5094C0121204644
:1010400000F07EF800280AD00121204600F00FF8B9
:1010500004484168002902D04168491E416010BD22
:101060000004004024000020C94301827047C943A6
:10107000018270470029018802D041F0010102E09D
:1010800040F2FE3211400180704700002A4B10B53B
:101090001915C21A4C0098423BD010DCB0F1804FB9
:1010A00022D0264A801826D088422BD0A04241D197
:1010B00001210820FFF75EFE0021082036E08A4269
:1010C0002ED0B2F58E3F0DD0B2F5923F32D1012134
:1010D0004C032046FFF766FE2046BDE81040002185
:1010E000FFF760BE0121F4E701210846FFF742FE49
:1010F000002101201AE001210220FFF73BFE002120
:10110000022013E001210420FFF734FE0021042017
:101110000CE001211020FFF72DFE0021102005E03A
:1011200001212020FFF726FE00212020BDE81040ED
:10113000FFF720BE10BD00000010004000FCFFBF04
:1011400002460020138A92890B4202EA010202D071
:10115000002A00D001207047002A828901D00A436A
:1011600000E08A4382817047028802F08F02028089
:10117000CA884B881A4303881A4302808A8882856A
:101180000A880285054A904202D0054A904201D160
:10119000097A01860121818270470000002C0140FC
:1011A0000034014070B5094C40F2255529462046CF
:1011B00000F067F8002808D0204600F0F6F829462D
:1011C0002046BDE8704000F027B870BD00440040E4
:1011D00070B50F4C40F225552946204600F051F8D5
:1011E000002814D0204600F0E0F80A4B1A78591C69
:1011F0008E18521C1A7030700878552801D00020C3
:10120000187029462046BDE8704000F005B870BD52
:10121000004800402C0000200A0A01219140C943E7
:10122000018070470029818902D041F4005101E01A
:1012300021F40051818170471FB5044600910021BF
:10124000ADF80810ADF804100C20ADF80610ADF89C
:101250000C10ADF80A006946204600F049F801225A
:1012600040F22551204600F02BF801212046FFF7DF
:10127000D9FF1FBD0246002012880A4200D001207B
:10128000704730B501F01F0201240025C1F342135D
:1012900004FA02F2012B0FD0022B0FD0838A4FEAFF
:1012A00011210088134204FA01F400EA040001D07D
:1012B00000B10125284630BD8389F0E7038AEEE7B7
:1012C00010B5C1F3421301F01F040121A140012B0D
:1012D00007D0022B07D01430002A026805D00A4339
:1012E00004E00C30F8E71030F6E78A43026010BDE6
:1012F00030B50446008A85B00D464CF6FF710840B3
:10130000E98801432182A1894EF6F3100140A888A3
:101310002A8910436A890A431043A081A08A4FF6A4
:10132000FF410840A9890143A1826846FFF746FDB5
:101330001148844201D1039800E00298642200EB36
:10134000C00101EB001029686FF018058900B0FB9F
:10135000F1F0B0FBF2F109010B096B4300EB8300E4
:10136000322303EB0010B0FBF2F000F00F00084353
:10137000208105B030BD0000003801402DE9F0416A
:1013800015460E46074600240BE0315D384600F056
:1013900010F840213846FFF76DFF0028F9D0641C93
:1013A000A4B2AC42F1D3BDE8F0818088C0F308005C
:1013B0007047C1F3080181807047000000B587B015
:1013C00000208DF808008DF80C00059006908DF82F
:1013D0000A008DF80D00009001908DF813008DF833
:1013E0000B008DF80E0001466A461048FFF74AFBD5
:1013F000DDF80B009DF80E1000BA20F0FF00084346
:1014000005900B490198884207D00949103188425C
:1014100003D007492031884206D10648002306AA96
:1014200005A9006802F0EEF807B000BD00640040B6
:1014300002F51F1810000020FEE700000FB4084B53
:1014400010B504A902AA039800F0CAF8044602A93C
:10145000002000F068FC204610BC5DF814FB000082
:10146000271D000802E008C8121F08C1002AFAD18F
:1014700070477047002001E001C1121F002AFBD114
:10148000704700002DE9FF5FDDE90220010DDDF866
:1014900038B0024310D10F9801244CA2012808D083
:1014A000002100980F9BC0E90021C0E90243BDE87C
:1014B000FF9F6FEA0B01F4E7A1F2FF3144F61050F1
:1014C00041430D140F9801280ED0A5EB0B00401CD2
:1014D0004FF000043E4EDFF8FC90B0F1000AA04649
:1014E00005DACAF1000717E0CBF10000F0E7074684
:1014F00012E0F80707D02246334640464946FFF738
:101500001AF8804689462246334610461946FFF7A8
:1015100012F804460E467F10002FEAD1DDE90201E1
:10152000BAF1000F42464B4602DAFFF704F801E039
:10153000FFF773F804460E460022274BFFF7F4F836
:1015400003D84FF0FF30014607E00022234B20462E
:101550003146FEF749FFFFF7CFF8102409E0002CD1
:101560000ADB0A220023FEF7D8FE019B30321A550F
:10157000641E50EA0102F2D1641C019AC4F1110305
:1015800014440F9A012A09D00122084301D15B4576
:101590000FDD4FF0000205F101050DE0084303D116
:1015A000A3EB0B056D1E09E000204FF0110B0F900F
:1015B00088E701DA00226D1E002A83D000980F9977
:1015C000C0E90231C0E9004571E7000030000000C9
:1015D000000024400000F03F0000F0430000E03F26
:1015E0002DE9FF4F95B09B4689460646002512E23D
:1015F000252878D10024761CF94A27460121059434
:101600003378203B01FA03F0104202D00443761CE9
:10161000F6E730782A2811D06FF02F033078A0F148
:101620003002092A16D8059A44F0020402EB82021D
:1016300003EB42021044761C0590EFE759F8042BA7
:101640000592002A03DA504244F40054059044F015
:101650000204761C30782E2816D116F8010F44F0BB
:1016600004042A280DD06FF02F023078A0F1300347
:10167000092B09D807EB870302EB4303C718761C35
:10168000F3E759F8047B761C30786C280FD006DC21
:101690004C2817D068280DD06A2814D104E074288B
:1016A00010D07A280FD10DE044F400140AE044F47D
:1016B000801401E044F440147278824202D1761C16
:1016C00004F58014761C307866280BD013DC58287B
:1016D00077D009DC002875D04528F6D04628F4D00C
:1016E00047281AD19FE118E0632835D0642879D0C3
:1016F000652812D197E1702873D008DC6728F1D0F3
:1017000069286FD06E280DD06F2806D1B5E07328F8
:101710002CD0752875D0782874D05A4617999047E0
:101720006D1C76E1C4F30250022809D003280DD0C5
:10173000D9F8001004280DD00D6009F1040968E102
:10174000D9F80010EA17C1E90052F6E7D9F80010FD
:101750000D80F2E70D70F0E719F8041B8DF800100A
:1017600000208DF80100EA46012003E059F804AB9F
:101770004FF0FF3061074FF0000102D40DE008F197
:1017800001018846B9420FDA8045F8DB1AF80810E3
:101790000029F4D108E008F1010188468142FADB12
:1017A0001AF808100029F6D105985B46A0EB080747
:1017B00021463846179A00F09EFA284400EB0805A7
:1017C00007E04DE02BE10DE01AF8010B5A4617999E
:1017D0009047B8F10108F7D25B4621463846179A80
:1017E00014E142E00A220092C4F302524FF0000AD0
:1017F000022A08D059F804CB032A4FEAEC710AD028
:101800000DE029E02AE009F1070121F00702F2E8E2
:1018100002C1914609E00FFA8CFC4FEAEC71042AF0
:1018200003D14FFA8CFC4FEAEC71002907DA0A4623
:101830000021DCF1000C61EB02012D2202E0220507
:1018400004D52B228DF80420012203E0E20701D009
:101850002022F7E7904653E00A2102E010220DE033
:1018600010214FF0000A00910BE010224FF0000A07
:1018700044F004040827009203E008224FF0000A15
:101880000092C4F30252022A05D059F804CB002179
:10189000032A08D009E009F1070121F00702F2E864
:1018A00002C1914605E01FFA8CFC042A01D10CF01C
:1018B000FF0C4FF00008220722D5702827D0009B8C
:1018C00083F0100353EA0A0309D15CEA010206D04F
:1018D00030228DF804208DF8050002229046009BEE
:1018E00083F0080353EA0A030AD15CEA010201D13A
:1018F000620705D530228DF804204FF001087F1EC5
:10190000582809D037A003900EA8029013E0402277
:101910008DF804200122E1E737A0F4E75346604642
:10192000009AFEF7FAFC84460398825C0298A0F1C4
:101930000100029002705CEA0100EFD1029806A952
:10194000A1EB000000F1200A600702D524F48034E6
:1019500000E00127574502DDA7EB0A0000E0002068
:1019600000EB0A01009005984144A0EB01000590AE
:10197000E00306D45B462146179A059800F0BBF9B0
:101980000544002706E001A85A46C05D1799904714
:101990006D1C7F1C4745F6DBE0030CD55B462146FA
:1019A000179A059800F0A7F9054404E030205A463C
:1019B000179990476D1C0099481E00900029F5DC8E
:1019C00008E0029802995A460078491C029117993A
:1019D00090476D1CBAF10001AAF1010AF1DC6BE13C
:1019E00009280100303132333435363738396162F5
:1019F00063646566000000003031323334353637B9
:101A000038394142434445460000000000F060F987
:101A1000054406F10106307800287FF4E9AD19B0DD
:101A20002846BDE8F08F620700D4062709F10702B7
:101A300022F0070CFCE80223E14603F000485FEACD
:101A4000080C02D00FF27C2C0DE05FEA045C02D59A
:101A50000FF2742C07E05FEAC47C02D00FF26C2C0A
:101A600001E0AFF2700C4FF0FF3823F00043CDF8E7
:101A700050C065280CD006DC452809D046281DD06A
:101A800047283ED13EE0662818D0672839D139E092
:101A90000021112F01DB112000E0781CCDE90001AD
:101AA00006A90EA8FFF7EEFCDDE90F010E9A0391DF
:101AB0000021009207F1010A04914EE04FF000402E
:101AC0000097CDE9011006A90EA8FFF7DBFCDDE9C0
:101AD0000F0203920E9B11990022DDF80CA00093D7
:101AE000049219B907F1010100EB010AB7EB0A00F2
:101AF00004D4C0F1FF3007F1010A0490AAEB0700FB
:101B0000019046E0012F00DA01270021112F01DDAD
:101B1000112000E03846CDE9000106A90EA8FFF724
:101B2000B1FCDDE90F010E9A0391002104910092AE
:101B3000BA4621070CD40399514500DA8A46BAF116
:101B4000010F05DD009AAAF10101515C302908D08E
:101B5000B84202DA10F1040F06DA0121CDE90110D2
:101B600017E0AAF10101E9E7002805DC0499014426
:101B70000491AAEB000102E0411C514500DD8A46B8
:101B80000499A0EB010000F1010001904FF000402A
:101B90000290200704D40198504501DBCDF8048061
:101BA00000208DF84F0002980DF14F07B0F1004F63
:101BB00025D02B200E9002984FF0020800280CDA56
:101BC000404202902D200E9007E00A210298FEF775
:101BD0008EFB3031029007F8011DB8F10001A8F129
:101BE0000108F2DC02980028EFD1791E0E980870E7
:101BF000307800F0200040F0450007F8020D12A8F0
:101C0000A0EB070000F107081498007800B101204C
:101C100000EB0A01019801EBE07105984144A0EB4B
:101C20000100A0F101000590E00306D45B462146C7
:101C3000179A059800F05FF805441498007820B1D1
:101C40005A461799904705F10105E00323D55B46F5
:101C50002146179A059800F04EF805441BE00498B9
:101C6000002807DBDDE90301884203DD0098405CC2
:101C7000179901E0179930205A46904704986D1C37
:101C8000401C04900198401E019004D12E205A4619
:101C9000179990476D1CBAF10001AAF1010ADEDC28
:101CA00005E017F8010B5A46179990476D1CB8F1DB
:101CB0000001A8F10108F4DC5B462146179A05985B
:101CC000A4E600002D0000002B0000002000000012
:101CD0002DE9F041044600251E461746880405D428
:101CE00006E039462020B04705F10105641EF8D50D
:101CF0002846BDE8F0812DE9F041044600251E4646
:101D00009046C80301D5302700E02027880405D578
:101D100006E041463846B04705F10105641EF8D596
:101D20002846BDE8F0810A68531C0B6010707047AC
:101D3000014900200871704714000020014901206A
:101D4000087170471400002001490020C8707047D6
:101D50001400002001490120C870704714000020C1
:101D60000C4F0D4D00244FF400464FF4FA7800BF9D
:101D700094F001043146384602D0FEF7AEFF01E090
:101D8000FEF7A9FF00F092F82870404601F0A8FA8B
:101D9000EEE70000000C01400000002038B50121F2
:101DA0000920FEF7F3FF01214806FEF7D7FF4FF4A5
:101DB0008070ADF8000048200B4C8DF80300694698
:101DC0002046FEF70DFF6015ADF8000018208DF8D5
:101DD000030069462046FEF703FF01214FF4EA1095
:101DE000FEF74EFF38BD0000000C014070B51A4EE2
:101DF00088B03046FEF750FD04A8FEF77AFE0220B8
:101E00008DF81800012500248DF819501820ADF820
:101E10001A000494059404A93046FEF7BFFD8DF81E
:101E200000508DF80140ADF80440ADF80840ADF821
:101E30000C408DF80250ADF80640ADF80A408DF820
:101E40000E506846FEF740FD012202213046FEF7A3
:101E50009DFD08B070BD00000064004030B585B045
:101E6000089C10B1022802D003E00D4800E00D48A4
:101E7000019004208DF8080000258DF809508DF898
:101E80000A008DF80C208DF80B108DF80D308DF8B0
:101E90000E4069460448FEF73CFE05B030BD000028
:101EA000F5021F18F5221F180064004070B52F4C72
:101EB0002078012810D02E48006828B14FF4FA701D
:101EC00001F00EFA012070BD00212A48FFF7D2F878
:101ED00000210220FEF742FF274E4FF4005529460D
:101EE0003046FEF7F1FE38B9052001F0F9F9294630
:101EF0003046FEF7E9FE20B100F086F950B104202B
:101F000070BD2078012803D100F06CF80028FBD1C7
:101F1000022070BD207958B1E07898B100F040F906
:101F2000D0B100F0D3F810F0FF00F2D1092070BD5D
:101F30002078012804D100BF00F054F80028FBD11C
:101F4000032070BD2078012804D100BF00F04AF8BA
:101F50000028FBD10A2070BD2078012804D100BFE1
:101F600000F040F80028FBD1052070BD14000020CF
:101F70002800002000040040000C01401CB5174A56
:101F80000528D2E90012CDE9001214D2DFE800F0F2
:101F900013030C0E1000124800680A21B0FBF1F088
:101FA0008DF80200032004E0012002E0002000E0A0
:101FB00002208DF8030004216846FEF7F7FD8DF836
:101FC000040004216846FEF7F1FD000A8DF80500C3
:101FD0000621684601F05EF81CBD0000DC3A0008EE
:101FE0002800002070B51A4D00242878012804D15B
:101FF000002000F033F800B92C706878012805D172
:10200000022000F02BF800B96C706C7028786978A9
:102010000F4D0843A5F1070500D12C706C810021FC
:102020004FF08040FFF726F800210120FEF796FED2
:1020300008494FF4E160086001210220FEF78EFE9E
:1020400001210548FFF716F8EC70002070BD000074
:102050001B00002028000020000400407CB505463D
:10206000002001908720009004230222F1212846BD
:10207000FFF7F4FE124C0023322201A9206801F080
:1020800003FA10480199814201D000177CBD0A2053
:1020900001F026F90120009000231222F1212846A8
:1020A000FFF7DCFE0023322201A9206801F0ECF9E1
:1020B00005490198884201D0C8167CBD00207CBD2E
:1020C00010000020870402F1010012F170B5264CC7
:1020D000207858B100F0D4F890B16078A0B100BF7A
:1020E000FFF780FF0028FBD1082070BD00F074FDD1
:1020F0000028FBD100F084FA0028FBD1062070BD37
:10210000FFF770FF072070BD18480168B1F5E16F57
:1021100027D300684FF41671B0FBF1F201FB1200F7
:10212000F8B9114C0025E41D01262078012803D0C0
:102130006078012809D010E00020FFF78FFF25709C
:10214000022000F085FA667007E00220FFF786FFA4
:102150006570002000F07CFA267047F2305001F0E4
:10216000BFF8002070BD00001400002024000020F3
:10217000014840897047000014000020044880890D
:10218000782802D9783880B2704700207047000064
:10219000140000200148C07870470000140000209F
:1021A0007CB500203124CDE9004004230122F12137
:1021B000FFF754FE114D0023502201A9286801F0B9
:1021C00063F90F490198884201D000207CBD0A20A4
:1021D00001F086F804233122F12100200094FFF75A
:1021E0003DFE0023322201A9286801F04DF90028A4
:1021F000ECD004490198888101207CBD10000020AA
:10220000310401F11400002070B50D4CA0780128B4
:1022100010D0002000F09AF80125661D00B135703D
:10222000022000F093F800B175703078717808439F
:1022300002D0A570002070BD0020A070012070BDEC
:102240001400002010B504210748FEF7AFFC064932
:10225000C2B20B799A4205D14979B1EB102F01D165
:10226000012010BD002010BD2D0000200348007883
:10227000552801D000207047012070472D00002014
:102280007FB5002030250390019004230122F12125
:1022900000950290FFF7E2FD284C0023322203A9AB
:1022A000206801F0F1F8264E0398B04221D10A20AF
:1022B00001F016F804233122F12100200095FFF7E8
:1022C000CDFD0023322201A9206801F0DDF80028AD
:1022D00010D004230122F12102200095FFF7BEFD5A
:1022E0000023322203A9206801F0CEF80398B042FF
:1022F00002D0002004B070BD0A2000F0F1FF0423DA
:102300003122F12102200095FFF7A8FD002332229F
:1023100002A9206801F0B8F80028EBD0DDE901013E
:1023200008440849084A80B2488112683C2A03D30D
:10233000FF2801D8012048700120DBE710000020B1
:10234000300401F114000020240000202DE9FC419C
:102350000025F1210127042688463024019520B16B
:10236000022807D0032819D108E033463A46002056
:10237000009411E033463A4600940CE033463A4666
:1023800000200094FFF76AFD0A2000F0A9FF334601
:102390003A46414600940220FFF760FD084C0023B6
:1023A000642201A9206801F06FF8012803D02DB143
:1023B0000120BDE8FC816D1CEDB2F0E70020F8E7DC
:1023C0001000002038B501210420FEF7DFFC0121B8
:1023D0000820FEF7DBFC4FF44050ADF8000001246C
:1023E0008DF8024048258DF8035069460748FEF7EE
:1023F000F7FB2002ADF800008DF802408DF8035085
:1024000069460348FEF7ECFB38BD0000000C0140B4
:102410000008014038B501210820FEF7B7FC4FF451
:102420004044ADF8004010208DF803000320064D15
:102430008DF8020069462846FEF7D2FB2146284661
:10244000FEF74BFC38BD0000000C01407CB5FEF7E8
:1024500077FDFFF7B7FFFFF7DDFFFFF79FFC00F009
:10246000C9FCFFF7C3FC00F035FE00F08FF8FEF763
:1024700087FDFEF7BDFD00220421112000F0E8FFDA
:10248000134902244FF4C8750861081DCDE90040C6
:1024900000232A460FA1134801F00CF90C49012032
:1024A0000831CDE9000100236A000FA1124801F0B4
:1024B00001F9074800230C30CDE900402A460FA15E
:1024C000114801F0F7F800F041FF00207CBD00004A
:1024D0000000002055736172744972646154617325
:1024E0006B0000008531000843616E4368617267CC
:1024F000655461736B000000611D000854746C4CDE
:1025000063645461736B0000B12F00081CB5012295
:102510001D4C05290ED2DFE801F00D03070E19004E
:10252000BDE81C40FFF72ABDD4E90213CDE9001332
:102530000A2808D01CBDD4E90413CDE900130928EA
:1025400001D00128F6D18DF803200AE0D4E9061362
:10255000CDE900130828F6D00128F4D000208DF82A
:10256000030004216846FEF721FB8DF804000421D6
:102570006846FEF71BFB000A8DF805000621684639
:1025800000F088FD1CBD0000DC3A000838B54FF4AF
:10259000C060FEF7D9FB26208DF8000000248DF8DE
:1025A000024001258DF803506846FEF79BFB27206B
:1025B0008DF800008DF802408DF803506846FEF754
:1025C00091FB14208DF800008DF802408DF8035027
:1025D0006846FEF787FB1C208DF800008DF802404E
:1025E0008DF803506846FEF77DFB1D208DF8000036
:1025F0008DF802408DF803506846FEF773FB38BD36
:1026000070B5114D0124AE1C2878012803D100209B
:1026100000F01EF834706878012803D1022000F021
:1026200017F8747008480021401F41700470074873
:10263000016001210846FEF791FB01218807FEF7A2
:1026400019FD002070BD00001900002024000020AA
:102650007CB5064600248720CDE90004042302222D
:10266000F1213046FFF7FAFB124D0023322201A977
:10267000286800F009FF10490198884201D0081726
:102680007CBD0A2000F02CFE00231222F1213046EE
:102690000094FFF7E3FB0023322201A9286800F031
:1026A000F3FE06490198884201D0C8167CBD00207F
:1026B0007CBD000010000020870402F1000012F130
:1026C0002DE9F041184C0F460546E6682068001DCC
:1026D00000F080FD38B9206890F82C100120884067
:1026E000216981432161681C07D137B12168BDE8A8
:1026F000F041091D0D4800F0A5BD20683544B542E4
:102700004560216801F1040104D2A06BBDE8F041ED
:1027100000F080BD606B00F07DFDA06A854200D2B4
:10272000A562BDE8F08100004C000020700300208D
:102730002DE9F041054600F091FD2D4CA068401CAC
:10274000A06020682B4F10B1606930B32BE025608A
:10275000A068012827D1002606EB860007EB800041
:1027600000F04AFD761C202EF6D3234800F044FDED
:102770002148143000F040FD1F48283000F03CFD97
:102780001D483C3000F038FD1B48503000F034FD4F
:10279000194860631430A06305E02068E96AC06AE4
:1027A000884200D82560606A401C6062E96A0120A6
:1027B000226988401043206101EB810007EB800013
:1027C000291D00F03FFD00F057FD606900280CD086
:1027D0002068E96AC06A884207D208494FF08050F1
:1027E0000860BFF34F8FBFF36F8FBDE8F08100002B
:1027F0004C000020A00000202003002004ED00E099
:1028000070B5114E114C17E000F0CAFD3068B8B138
:1028100001F00AF800F022FDF068C568281D00F0FC
:10282000D9FCA068401EA0606068401E606000F097
:1028300023FD284600F04CF860680028E4D170BD04
:1028400000F0F2FFF8E700005C0300204C000020DD
:1028500030B4026C0B46002A0BD0C1681144C16031
:102860004468A14201D30168C16030BC1846FDF73D
:10287000A1BC30BC70472DE9F041856B164604467B
:102880000027026CFAB17EB1E068FDF793FCE168C5
:10289000206C091AE1602268914202D26168081A2C
:1028A000E060022E0DD00EE0A068FDF783FC216CE5
:1028B000A0680844A0606168884204D32068A060D2
:1028C00001E005B16D1E6D1CA5633846BDE8F081C1
:1028D00010B50446006B00F0D9FC2046BDE810405E
:1028E00000F0D4BC10484FF48841420706D0C01D08
:1028F0000D4920F00700411AC1F588410B4A002319
:102900000144C2E900030839103A21F007011160BF
:102910004B600B600B1AC0E9001393604FF000404E
:102920005360D060704700008403002098000020AE
:10293000074C4FF08056074DFFF762FF20680128D3
:10294000FAD92E60BFF34F8FBFF36F8FF4E700000B
:10295000A000002004ED00E02DE9F0479A46DDE9F3
:10296000096481466FF00303206B03EB820210447D
:10297000089D20F00707002023180A5C83F8342004
:102980000A5C12B1401C1028F6D34FF0000884F8FE
:102990004380202D00D31F25201DE56200F037FC69
:1029A00004F1180000F033FCC5F120002461A0619F
:1029B0006462C4F8448084F84880524649463846E8
:1029C00000F0D4F82060002E00D03460BDE8F0871D
:1029D00030B5114900E011460A688242FBD34B68CA
:1029E0005C18844203D14068184448600846436834
:1029F0001C18944209D1084C103C2468A24209D00A
:102A000052681A4442600A6812680260814200D02B
:102A1000086030BD0460F9E79800002010B5044656
:102A200000F01CFCA06B28B15FF0000400F024FC57
:102A3000204610BD0124F9E70648416B096829B119
:102A4000416BC968C9684968816270474FF0FF31BE
:102A5000FAE700004C000020BF2080F31188BFF38C
:102A60004F8FBFF36F8FFEE72DE9F041044600F072
:102A7000F5FB94F9455004F1240609E0606A48B179
:102A8000304600F09DFE08B100F042FC6D1E6DB2B4
:102A9000002DF3DC4FF0FF3684F8456000F0ECFBCE
:102AA00000F0DCFB94F9445004F1100709E02069C0
:102AB00048B1384600F084FE08B100F029FC6D1ED4
:102AC0006DB2002DF3DC84F84460BDE8F04100F005
:102AD000D3BB00002DE9F0410546002700F060FC63
:102AE000214E306808B9FFF7FDFEF068054236D187
:102AF000ADB30835680704D005F00700C0F1080041
:102B0000054465B37068854229D8174810300146DE
:102B10000C6801E020460C466168A94202D2216897
:102B20000029F7D131688C4219D00768216801600B
:102B300060680837411B102904D96019416065603D
:102B4000FFF746FF61687068401A7060B268904293
:102B500000D2B060F06801430020C4E9000100F039
:102B600063FE3846BDE8F0818800002010B5031FE1
:102B70004FF080741C601B1F21F001011960191FA8
:102B8000024B0B60143940380A6010BD592A000806
:102B900070B5104D00242878052819D9FFF766FB79
:102BA0000026A0B1FFF74EFB88B1681C40780128D1
:102BB00006D0022806D0032806D0042807D105E055
:102BC000012404E0022402E0032400E004242E7027
:102BD000204670BD2C0000202DE9FC5F0025212639
:102BE000CDE9006504230222F1212846FFF736F9DA
:102BF000554C0023322201A9206800F045FCDFF883
:102C00004C810199414553D10A2000F069FB4FF0F6
:102C1000B3090E231222F1210020CDF80090FFF716
:102C20001DF90023322201A9206800F02DFCDFF8F5
:102C300020A10199514553D10A2000F051FB4FF0DA
:102C4000230B04230222F1210020CDF800B0FFF76E
:102C500005F90023322201A9206800F015FC019932
:102C600008F10200814254D10A2000F039FB0A2306
:102C70001222F12100200095FFF7F0F80023322204
:102C800001A9206800F000FC324F0198B84256D1EB
:102C900002220423F12110460096FFF7DFF80023FB
:102CA000322201A9206800F0EFFB0199414503D0D1
:102CB0004FF0FF30BDE8FC9F0A2000F011FB0E230F
:102CC0001222F1210220CDF80090FFF7C7F800236F
:102CD000322201A9206800F0D7FB0199514502D0AA
:102CE0006FF00100E6E70A2000F0FAFA022204235E
:102CF000F1211046CDF800B0FFF7B0F800233222E2
:102D000001A9206800F0C0FB10480199801C814295
:102D100002D06FF00200CDE70A2000F0E1FA0A23AA
:102D20001222F12102200095FFF798F800233222A9
:102D300001A9206800F0A8FB0198B84202D06FF00A
:102D40000300B7E70020B5E710000020210402F1DE
:102D5000B30E12F1000A12F110B5012186B008037A
:102D6000FEF714F80020ADF800004FF48271ADF8C2
:102D700002100121ADF808104902ADF80A10102127
:102D8000ADF80C10ADF80400ADF80600ADF80E007B
:102D90000720064CADF8100069462046FEF760F8A3
:102DA00001212046FEF752F806B010BD0030014068
:102DB00038B501210520FDF7E9FFA020ADF800009E
:102DC00003248DF802401820094D8DF80300694650
:102DD0002846FDF705FF4020ADF800008DF80240C1
:102DE00010208DF8030069462846FDF7F9FE38BD2E
:102DF0000008014010B5FFF7DBFFBDE81040FFF70A
:102E0000ABBF000070B58EB00C460546202102A86D
:102E1000FDF7E9F900200A900B900C902B4E20460C
:102E2000FDF752FAB44207DACDE9000128A229A140
:102E30000AA8FEF703FB05E002460B4627A10AA8F5
:102E4000FEF7FCFA4FF07E50062D31D2DFE805F098
:102E500003081116212723A00AAB24A2009003E047
:102E600026A00AAB27A200902AA102A8FEF7E6FA44
:102E70001EE02AA00AAB2BA20090F5E7844223D0E3
:102E80002CA102A8FDF7C6F90AA902A8FDF7B6F918
:102E90000EE0844201D12BA107E030A105E014F03F
:102EA000FF4F01D033A100E038A102A8FDF7B2F92D
:102EB0003CA102A8FDF7A2F91D2202A93B48FEF79A
:102EC0005DFA642000F00CFA0EB070BD00002041E5
:102ED000200000002573252E31660000252E316666
:102EE0000000000020562020000000004453333230
:102EF000283137342C3136382C270000204120204F
:102F00000000000044533332283633382C31363831
:102F10002C2700002573257325730000206D696E32
:102F20000000000044533332283137342C32373913
:102F30002C27000044533332283633382C323739AB
:102F40002C27000044533332283137342C343038A6
:102F50002C272059455320200000000044533332D1
:102F6000283137342C3430382C2720204E4F202065
:102F70000000000044533332283633382C343038C4
:102F80002C272059455320200000000044533332A1
:102F9000283633382C3430382C2720204E4F202030
:102FA00000000000272C31293B0D0A00004400409E
:102FB0004FF4FA64204600F093F92D4D082229A120
:102FC0002846FEF7DBF9A01000F08AF9082229A1B3
:102FD0002846FEF7D3F9204600F082F9DFF8A080FA
:102FE000284CDFF8A490294D294E6FF0060700BF4A
:102FF000FFF7C4F8FDF763F93946FDF754F90146C8
:103000000020FFF7FFFEFFF7B3F8FDF758F9414640
:10301000FDF709F901460120FFF7F4FE2068FDF7EE
:103020004EF94946FDF7FFF801460220FFF7EAFE98
:103030002878FDF744F901460320FFF7E3FEFFF788
:10304000A9F8FDF73CF901460420FFF7DBFE3068E4
:10305000FDF735F901460520FFF7D4FE642000F0A6
:103060003FF9C5E75350472832290D0A00000000F8
:10307000004400405350472833290D0A0000000047
:103080000000524324000020000070420000002095
:103090002800002070B50D4E0C4605460121304633
:1030A000FDF71BFE02213046FDF717FE224629469A
:1030B0000748FEF763F901213046FDF70CFE304664
:1030C000BDE870400221FDF706BE0000000C014083
:1030D00000480040F8B501210D20FDF757FE012101
:1030E0004804FDF73BFE4FF4E1312248FEF7A4F817
:1030F00018268DF8036004241F4FADF80040032507
:103100008DF8025069463846FDF76AFD8DF8034098
:103110000820ADF8000069463846FDF761FD012141
:103120008804FDF71BFE4FF416611448FEF784F87F
:103130008DF803602002ADF80000114E8DF80250AA
:1031400069463046FDF74CFD8DF803406002ADF84E
:10315000000069463046FDF743FDADF80050012000
:103160008DF8020010208DF8030069463046FDF707
:1031700037FDF8BD00440040000801400048004011
:10318000000C0140124D00BFFFF702FD04001AD0F1
:1031900001462878FFF7BAF9012C04D0022C08D098
:1031A000032C0CD00FE0287803280CD1FEF7C6FDC5
:1031B00009E028780A2806D1FEF7CCFD03E0FEF7E7
:1031C000B7FDFEF7C1FD142000F08AF8DCE700002F
:1031D00000000020D0E9013201699A60D0E90123A2
:1031E0005A604A68824201D182684A6000220261C4
:1031F0000868401E0860704700F108014FF0FF3278
:10320000C0E90112C1600161002101607047002125
:103210000161704730B50B685A1C02D000F10802FA
:1032200002E0026904E02246546825689D42FAD90A
:1032300053684B6099608A60516008610168491C5D
:10324000016030BD42684A6093688B609368596042
:10325000916008610168491C01607047BF2080F3DC
:103260001188BFF34F8FBFF36F8F02480168491C6D
:10327000016070474800002003490868401E08604C
:1032800001D180F3118870474800002070B50028F4
:1032900018D00D4DA0F108046068E968084211D00B
:1032A0002268002A0ED18843606000F079F86068D7
:1032B0006968084468602046FFF78AFBBDE87040F3
:1032C00000F0B2BA70BD0000880000204FF0E0208E
:1032D0000249416107210161704700003F19010067
:1032E00010B5020009D000F05BF800211046FFF78E
:1032F000E7F900F099FA002807D104494FF080500F
:103300000860BFF34F8FBFF36F8F10BD04ED00E077
:1033100001490120C86170474C00002010B50C46DF
:10332000054909681831FFF775FF2046BDE81040D0
:103330000121FFF7C5B900004C00002002490A6ACC
:103340000260C968416070474C0000201CB51048FD
:103350000024CDE90040234680220EA10F4800F052
:10336000A9F9012812D1BF2080F31188BFF34F8F34
:10337000BFF36F8F06484FF0FF312C388162012177
:103380004161C460BDE81C4000F034B81CBD0000C1
:103390007800002049444C45000000003129000815
:1033A0000248016B491C0163704700004C0000207B
:1033B0000E48016B11B10121C16170470021C1614B
:1033C00001690B4AB1FA81F1C1F11F0101EB8101E1
:1033D00002EB810101F108034A6852684A609A428F
:1033E00001D152684A60D168016070474C000020EA
:1033F000A0000020094810B5016841F47F01016078
:10340000016841F07F410160FFF760FF044900203F
:103410000860FCF787FE002010BD000020ED00E0F2
:103420004800002010B5BF2080F31188BFF34F8FF4
:10343000BFF36F8F00F06AF918B104494FF0805064
:103440000860002080F3118810BD000004ED00E04A
:1034500070B50E00054612D005FB06F04830FFF7A8
:1034600039FB040009D004F1480120464EB1016047
:10347000C0E90F56012100F08BF8204670BD0020F6
:10348000ECE70060F4E700002DE9FF4F002783B070
:103490009A468B460446B9464FF08056DFF8EC80DA
:1034A000FFF7DCFEA56B25B359462046E768FFF71A
:1034B000CFF9BAF1000F14D0E760606A58B104F197
:1034C000240000BF00F07CF928B1C8F80060BFF309
:1034D0004F8FBFF36F8FFFF7CFFE012007B0BDE81E
:1034E000F08F6D1EA56320690028F4D004F1100050
:1034F000E8E7059808B11FB106E0FFF7BDFE27E039
:103500006846FFF71BFF0127FFF7B6FEFFF748FFEE
:10351000FFF7A4FE94F94400401C01D184F84490C4
:1035200094F94500401C01D184F84590FFF7A4FEB2
:1035300005A9684600F09AF8002820460AD0FFF74F
:1035400093FA00F071F92046FFF768FA0028A7D037
:103550000020C3E7FFF762FA90B104F12400059957
:10356000FFF7DCFE2046FFF77FFA00F05DF9002848
:1035700096D1C8F80060BFF34F8FBFF36F8F8FE70E
:103580002046FFF771FA00F04FF989E704ED00E0FB
:1035900070B50D460446FFF761FED4E90F122068AE
:1035A00001FB020060600020A0632068A06001466B
:1035B000E06B401E00FB0210E0604FF0FF3084F82B
:1035C000440084F8450004F110004DB1FFF714FEEB
:1035D00004F12400FFF710FEFFF74EFE012070BD3E
:1035E00021690029F8D000F0EBF80028F4D0044954
:1035F0004FF080500860BFF34F8FBFF36F8FEBE742
:1036000004ED00E02DE9F04104461746BF20EFF33A
:10361000118680F31188BFF34F8FBFF36F8FA26BBA
:10362000E06B824206D3022B04D0002086F311887F
:10363000BDE8F08194F945501A462046FFF71BF982
:10364000681C04D06D1C84F845500120EEE7606AC8
:103650000028FAD004F1240000F0B2F80028F4D0D9
:10366000002FF2D001203860EFE7000070B50D4662
:103670000446FFF7F3FD0E4AD1682868431C0FD0BB
:103680002368126A934202D062688A420AD9626849
:10369000891A814206D2401A28602046FFF74EFE62
:1036A000002400E00124FFF7E7FD204670BD000084
:1036B0004C0000202DE9FF5F8346DDE90E87994627
:1036C00016468A469000FFF705FA05001AD04C20EE
:1036D000FFF700FA040012D025630021CDE9024172
:1036E000CDE900874B46324651465846FFF734F93C
:1036F0002046FFF71DF8012004B0BDE8F09F2846E2
:10370000FFF7C4FD4FF0FF30F6E700002DE9F04170
:10371000294C0027206B40B1A069401CA061E069E2
:1037200000B101273846BDE8F081E668761CE66006
:1037300008D1606BA16B6163A063206A401C2062AA
:10374000FFF77AF9A06ADFF87480864209D3606BCC
:10375000006880B1606BC068C568686886420DD239
:10376000A0622068C06A00EB800158F8210001289F
:10377000D5D90127D3E74FF0FF30F1E7281DFFF738
:1037800029FDA86A18B105F11800FFF723FDE86AC2
:103790000121226981401143216100EB800108EB86
:1037A0008100291DFFF74EFDE86A2168C96A884239
:1037B000CDD30127CBE700004C000020A000002063
:1037C0002DE9F041C068C46804F118000746FFF70E
:1037D00001FD124D286B012668B11148394600BF22
:1037E000FFF730FDE06A2968C96A884213D90120D1
:1037F000EE61BDE8F081201DFFF7ECFCE16A2A696B
:1038000006FA01F01043286101EB8100054901EB44
:103810008000211DE4E70020EBE700004C000020C1
:1038200048030020A00000202DE9F0470024264690
:10383000FFF714FD264D286B401E2863286BE0BB64
:10384000A968244F0120C1B3A7F52A7980463868BA
:10385000E8B1F868C46804F11800FFF7BBFC201D4C
:10386000FFF7B8FCE06A2A6908FA00F11143296100
:1038700000EB800109EB8100211DFFF7E3FCE06A0A
:103880002968C96A8842E2D3C5F81C80DFE70CB119
:10389000FFF7D2F8AC694CB14FEA0807FFF736FFE3
:1038A00000B1EF61641EF9D10020A861E86920B180
:1038B000094901263007086000E003E0BFF34F8F9D
:1038C000BFF36F8FFFF7D8FC3046BDE8F0870000EC
:1038D0004C0000204803002004ED00E000C18140BE
:1038E00001C0804101C0804100C1814001C08041D0
:1038F00000C1814000C1814001C0804101C08041C0
:1039000000C1814000C1814001C0804100C18140AF
:1039100001C0804101C0804100C1814001C080419F
:1039200000C1814000C1814001C0804100C181408F
:1039300001C0804101C0804100C1814000C181407F
:1039400001C0804101C0804100C1814001C080416F
:1039500000C1814000C1814001C0804101C080415F
:1039600000C1814000C1814001C0804100C181404F
:1039700001C0804101C0804100C1814000C181403F
:1039800001C0804101C0804100C1814001C080412F
:1039900000C1814000C1814001C0804100C181401F
:1039A00001C0804101C0804100C1814001C080410F
:1039B00000C1814000C1814001C0804101C08041FF
:1039C00000C1814000C1814001C0804100C18140EF
:1039D00001C0804101C0804100C1814000C0C101DF
:1039E000C30302C2C60607C705C5C404CC0C0DCD6F
:1039F0000FCFCE0E0ACACB0BC90908C8D81819D9DF
:103A00001BDBDA1A1EDEDF1FDD1D1CDC14D4D5150E
:103A1000D71716D6D21213D311D1D010F03031F1FE
:103A200033F3F23236F6F737F53534F43CFCFD3D2E
:103A3000FF3F3EFEFA3A3BFB39F9F83828E8E9291E
:103A4000EB2B2AEAEE2E2FEF2DEDEC2CE42425E5CE
:103A500027E7E62622E2E323E12120E0A06061A13E
:103A600063A3A26266A6A767A56564A46CACAD6DEE
:103A7000AF6F6EAEAA6A6BAB69A9A86878B8B9795E
:103A8000BB7B7ABABE7E7FBF7DBDBC7CB47475B58E
:103A900077B7B67672B2B373B17170B0509091517E
:103AA0009353529296565797559594549C5C5D9DAE
:103AB0005F9F9E5E5A9A9B5B99595898884849899E
:103AC0004B8B8A4A4E8E8F4F8D4D4C8C448485454E
:103AD000874746868242438341818040AA0100FF96
:103AE00000000000AA0200FF00000000AA0300FF7F
:103AF00000000000AA0400FF000000001C3B0008BA
:103B000000000020A000000064140008BC3B000876
:103B1000A0000020E84A0000741400080000000023
:103B20000000000000000000000000000000000095
:103B30000000000000000000000000000000000085
:103B40000000000000000000000000000000000273
:103B50000406080000000001020304010203040639
:103B600007080900AAAAAAAA000000000000000095
:103B70000000000000000000000000000000000045
:103B80000000000000000000000000000000000035
:103B90000000000000000000000000000000000025
:103BA0000000000000000000000000000000000015
:0C3BB00000000000000000000000000009
:040000050800019955
:00000001FF
