:020000040800F2
:1000000058190020990100086502000867020008DD
:100010006B0200086F020008730200080000000075
:1000200000000000000000000000000001010008C6
:100030007702000800000000450100083D2100088B
:10004000AF010008AF010008AF010008AF010008D0
:10005000AF010008AF010008AF010008AF010008C0
:10006000AF010008AF010008AF010008AF010008B0
:10007000AF010008AF010008AF010008AF010008A0
:10008000AF010008AF010008AF010008AF01000890
:10009000B3030008AF010008AF010008AF0100087A
:1000A000AF010008AF010008AF010008AF01000870
:1000B000AF010008AF010008AF010008AF01000860
:1000C000AF010008AF010008AF010008AF01000850
:1000D000AF010008AF010008FF060008190700087B
:1000E000AF010008AF010008AF010008DFF80CD035
:1000F00003F014F800480047F301000858190020E5
:10010000224B19680868B0E8F00F80F30988BFF344
:100110006F8F4FF0000080F311884EF00D0E704786
:100120000000000006480068006880F3088862B696
:1001300061B6BFF34F8FBFF36F8F00DF00BF00BF0B
:1001400008ED00E0EFF30980BFF36F8F0F4B1A68E3
:1001500020E9F00F106008B54FF0BF0080F3118860
:10016000BFF34F8FBFF36F8F02F081FB4FF00000A2
:1001700080F31188BDE8084019680868B0E8F00FFE
:1001800080F30988BFF36F8F704700BF38000020ED
:10019000EFF305807047000005480047FEE7FEE7E3
:1001A000FEE7FEE7FEE7FEE7FEE7FEE7FEE7FEE727
:1001B000ED0000084FF4FA6002F0ADFA08221DA12C
:1001C0001F4800F0B6FA4FF4FA7002F0A4FA0822C1
:1001D0001CA11B4800F0ADFA4FF4FA6002F09BFA44
:1001E00006E014210A2000F0CAF8C82002F093FAB1
:1001F000F7E71CB501F047FE00F03FF900F018F9F1
:1002000000F051F800F074F800F025FA00F0F9F968
:1002100000F0C8FA0E48012100236422CDE9001045
:100220000CA1AFF26F0002F057F802F083FC00203F
:100230001CBD00005350472832290D0A0000000061
:10024000004400405350472833290D0A00000000A5
:100250000000002055736172744C63645461736BC9
:1002600000000000704700BFFEE700BFFEE700BFD0
:10027000FEE700BFFEE7704708B54FF4C06001F02D
:10028000A3FB00214FF0006001F0D6FB14208DF895
:10029000000000208DF8020001208DF80300684660
:1002A00001F097FB08BD08B50121092000F0A2FD6F
:1002B0000121480600F0ABFD4FF48070ADF800005E
:1002C00048208DF803006946574800F0FDFA4FF4C6
:1002D0000070ADF8000018208DF803006946524800
:1002E00000F0F2FA01214FF4EA1000F0BCFB08BD67
:1002F00000B587B04D4800F09DFF04A801F0B7F8A5
:1003000000208DF810008DF811008DF812008DF886
:1003100013008DF814008DF815008DF816008DF877
:10032000170002208DF8180001208DF819000C200C
:10033000ADF81A0004A93D4800F08EFF01208DF8A9
:10034000000000208DF8010001208DF8020000203F
:10035000ADF80400ADF80600ADF80800ADF80A00ED
:10036000ADF80C0001208DF80E00684600F0FEFF8D
:10037000012202212D4801F08AF807B000BD30B5F6
:1003800085B004460D4600200090019004208DF8B1
:10039000080000208DF8090002208DF80A008DF871
:1003A0000B408DF80C506946204801F079F805B0F3
:1003B00030BD00B585B00020009001908DF8080098
:1003C0008DF80A008DF813008DF80B0000218DF8D0
:1003D0000C106A46154801F070F99DF80B00992839
:1003E0000DD19DF80C00BB2809D14FF400410E48F7
:1003F00000F017FB4FF480410B4800F010FB9DF814
:100400000B0055280DD19DF80C00772809D14FF429
:100410000041054800F003FB4FF48041024800F022
:1004200000FB05B000BD0000000C0140006400406E
:1004300008B50121082000F0DDFC4FF44040ADF884
:10044000000010208DF8030003208DF8020069469B
:10045000044800F039FA4FF44041024800F0DFFA56
:1004600008BD0000000C014001B502E00098401EEC
:10047000009000980028F9D108BD08B5012104209A
:1004800000F0B8FC0121082000F0B4FC4FF440500B
:10049000ADF8000001208DF8020048208DF803001F
:1004A00069462F4800F010FA4FF48070ADF8000054
:1004B00001208DF8020048208DF803006946294884
:1004C00000F002FA08BD10B54FF40051244800F0C6
:1004D0008CFAF0B92448FFF7C7FF4FF400512048C9
:1004E00000F083FAA8B900BF4FF400511C4800F097
:1004F0007CFA0028F8D077215520FFF740FF4FF411
:100500000041174800F08BFA4FF48041144800F086
:1005100086FA4FF48051124800F067FAF0B9124899
:10052000FFF7A2FF4FF480510D4800F05EFAA8B922
:1005300000BF4FF480510A4800F057FA0028F8D065
:10054000BB219920FFF71BFF4FF40041044800F046
:1005500066FA4FF48041024800F061FA10BD0000D5
:10056000000C01400008014040420F0000B585B07A
:100570000121080300F03EFC0020ADF800004FF41C
:100580008270ADF802000020ADF80400ADF806005E
:100590000120ADF808004002ADF80A001020ADF8C7
:1005A0000C000020ADF80E000720ADF810006946E1
:1005B000174801F0A3FA0121154801F03CFB05B0F2
:1005C00000BD08B50121052000F014FCA020ADF805
:1005D000000003208DF8020018208DF80300694602
:1005E0000C4800F071F90220ADF8000003208DF8EE
:1005F000020010208DF803006946064800F064F9F7
:1006000008BD10B5FFF7DDFFFFF7B0FF10BD00001C
:1006100000300140000801407FB505460C460094BB
:100620000020ADF80400ADF80600ADF80800ADF804
:100630000C000C20ADF80A006946284600F08BFC3F
:10064000012240F22551284600F0FFFC01212846F6
:1006500000F0EFFC7FBD08B501210D2000F0CAFBC2
:100660000121480400F0D3FB4FF4E1314948FFF782
:10067000D3FF18208DF803000420ADF800000320FC
:100680008DF802006946444800F01EF904208DF8F8
:1006900003000820ADF8000069463F4800F014F957
:1006A0000121880400F0B3FB4FF4E1313B48FFF730
:1006B000B3FF18208DF803004FF48060ADF8000000
:1006C00003208DF802006946354800F0FDF804204B
:1006D0008DF803004002ADF800006946304800F094
:1006E000F3F80320ADF8000001208DF8020010207F
:1006F0008DF8030069462A4800F0E6F808BD10B5F9
:1007000040F22551234800F05FFD20B140F2255111
:10071000204800F07FFD10BD10B540F225511F4864
:1007200000F052FD20B140F225511C4800F072FD4E
:1007300010BD2DE9F04107460D46164600240CE099
:10074000295D384600F0DDFC00BF4021384600F04E
:100750002FFD0028F9D0601C84B2B442F0DBBDE864
:10076000F08170B504460D4601210D4800F057F99F
:1007700002210B4800F053F92A4621460748FFF7AB
:10078000D8FF0121064800F04CF90221044800F08E
:1007900048F970BD00440040000801400048004096
:1007A000000C014008B54FF4C06001F00DF926209F
:1007B0008DF8000000208DF8020001208DF8030064
:1007C000684601F006F927208DF8000000208DF81A
:1007D000020001208DF80300684601F0FAF81420A9
:1007E0008DF8000000208DF8020001208DF8030034
:1007F000684601F0EEF808BD10B50446C549601A18
:100800008C422FD009DCC448201810D0B0F5806F7E
:1008100016D0B0F5006F4AD11BE0B0F5806F2AD03A
:10082000B0F5006F30D0B0F5406F40D135E0012118
:10083000042000F0F9FA0021042000F0F5FA37E076
:100840000121082000F0F0FA0021082000F0ECFA65
:100850002EE00121102000F0E7FA0021102000F026
:10086000E3FA25E00121202000F0DEFA002120201B
:1008700000F0DAFA1CE00121402000F0D5FA002156
:10088000402000F0D1FA13E00121802000F0CCFAE2
:100890000021802000F0C8FA0AE00121080200F0DF
:1008A000C3FA00214FF4807000F0BEFA00E000BFF0
:1008B00000BF10BD10B50121084600F0B5FA0021B7
:1008C000012000F0B1FA10BD2DE9F04102460025EB
:1008D0000026002000230024002791F803C00CF01C
:1008E0000F0591F803C01CF0100F03D091F802C05F
:1008F0004CEA050591F800C0BCF1000F31D0146836
:1009000000202BE04FF0010C0CFA00F3B1F800C00E
:100910000CEA03069E4220D183004FF00F0C0CFA24
:1009200003F7BC4305FA03FC4CEA040491F803C046
:10093000BCF1280F06D14FF0010C0CFA00FCC2F8F4
:1009400014C00AE091F803C0BCF1480F05D14FF084
:10095000010C0CFA00FCC2F810C0401C0828D1D3CE
:100960001460B1F800C0BCF1FF0F34DD5468002002
:100970002EE000F1080C4FF0010808FA0CF3B1F872
:1009800000C00CEA03069E4221D183004FF00F0CF9
:100990000CFA03F7BC4305FA03FC4CEA040491F893
:1009A00003C0BCF1280F05D100F1080C08FA0CF8BF
:1009B000C2F8148091F803C0BCF1480F07D100F1D0
:1009C000080C4FF0010808FA0CF8C2F81080401C1F
:1009D0000828CED35460BDE8F0814FF6FF71018046
:1009E000022181700421C170704702460020936883
:1009F0000B4201D0012000E00020704701468868CA
:100A000080B2704702460020D3680B4201D001201B
:100A100000E0002070470146C86880B2704701615D
:100A20007047416170470AB1016100E04161704760
:100A3000C16070474FF480320A43826181618261F4
:100A400082698269704702460020344B18684FF66D
:100A50008073184040EA02100843304B186070471A
:100A60002F49C8617047F0B50A46002300240021D1
:100A700000252A4E7168C0F3034583B200F4401686
:100A8000B6F5401F08D121F07061244E766826F03B
:100A90007066224F7E6012E000F48016B6F5801F6B
:100AA00006D1032606FA05F4A14341F0706106E081
:100AB000460D360103FA06F6B14341F0706122B1EA
:100AC000460D360103FA06F63143144E7160F0BD4F
:100AD00030B500228B071C0F0F2303FA04F20F4BD3
:100AE00008338C1053F8243093430C4C08348D1089
:100AF00044F8253023468C1053F824308C07240FFB
:100B000000FA04F42343054C08348D1044F82530D2
:100B100030BD00000014014000F8FEBF000001409D
:100B200000002042DC48006840F00100DA4908601B
:100B300008464068D9490840D749486008460068D7
:100B4000D7490840D44908600846006820F480204E
:100B500008600846406820F4FE0048600020886075
:100B60007047CD49096821F48031CB4A11601146A4
:100B7000096821F480211160B0F5803F03D0B0F501
:100B8000802F0ED106E0C449096841F48031C24A81
:100B9000116007E0C049096841F4A021BE4A116014
:100BA00000E000BF00BF704710B5014600220023DF
:100BB00000204A11012A02D1B74C236806E0022A1C
:100BC00002D1B54C236A01E0B34C636A01F01F0205
:100BD000012494401C4201D0012000E0002010BDFF
:100BE00038B5002000900024002500BF3120FFF719
:100BF000DBFF05460098401C00901DB90098B0F539
:100C0000A06FF3D13120FFF7CFFF08B1012400E03E
:100C10000024204638BD014600209F4A106820F07D
:100C2000F80040EAC100106070479E4908607047B4
:100C300002460020984B586820F47C1042EA0103D9
:100C40001843954B586070479649086670470146AF
:100C50000020914A506820F003000843506070471C
:100C60008D48406800F00C007047014600208A4A19
:100C7000506820F0F00008435060704701460020A3
:100C8000854A506820F4E060084350607047014690
:100C90000020814A506820F4605040EAC100506052
:100CA000704729B17C4A527A02437B4B5A7204E066
:100CB000794A527A8243784B5A7270477A4908606F
:100CC000704701460020744A506820F440400843B1
:100CD000506070470021754A11706F4A82F82010E9
:100CE000012802D0042808D103E001216F4A1170C5
:100CF00004E005216D4A117000E000BF00BF70479D
:100D00006B49086070476449096A0143624A11628D
:100D10007047674944390860704730B500210022A8
:100D2000002400235C4D6D6805F00C0121B10429FD
:100D300005D0082923D105E05E4D056022E05D4D18
:100D400005601FE0544D6D6805F47012022505EB37
:100D50009242514D6D6805F480341CB9564D55438F
:100D600005600BE04C4D6D6815F4003F03D0524D0B
:100D70005543056002E04F4D5543056002E04D4D7F
:100D8000056000BF00BF444D6D6805F0F001090922
:100D90004A4D6B5C0568DD4045603F4D6D6805F46C
:100DA000E061090A454D6B5C4568DD4085603A4D60
:100DB0006D6805F46051C90A404D6B5C4568DD40C3
:100DC000C560354D6D6805F44041890B3C4D6B5C49
:100DD000C568B5FBF3F5056130BD29B12E4A5269EE
:100DE00002432D4B5A6104E02B4A526982432A4B3D
:100DF0005A61704729B1284A92690243264B9A6189
:100E000004E0254A92698243234B9A61704729B1D5
:100E1000214AD2690243204BDA6104E01E4AD269BA
:100E200082431D4BDA61704729B11B4AD2680243E5
:100E3000194BDA6004E0184AD2688243164BDA6034
:100E4000704729B1144A12690243134B1A6104E036
:100E5000114A12698243104B1A6170471449403994
:100E6000086070470F49C86470470B49C8717047E4
:100E70000948406A40F0807007494862704701465F
:100E80000020054A92680A4201D0012000E00020BB
:100E90007047014988727047001002400000FFF857
:100EA000FFFFF6FE00004242D800424220100240FE
:100EB0008004424200127A0000093D000800002030
:100EC0001800002010B50446D749601A8C422BD078
:100ED00006DCD648201813D0B0F5806F38D119E061
:100EE000B0F5806F2AD0B0F56C4F31D10121880365
:100EF000FFF79AFF00214FF48040FFF795FF28E0AD
:100F000001214804FFF79DFF00214FF40030FFF757
:100F100098FF1EE001218804FFF793FF00214FF4A2
:100F20008020FFF78EFF14E00121C804FFF789FF3E
:100F300000214FF40020FFF784FF0AE0012108059B
:100F4000FFF77FFF00214FF48010FFF77AFF00E0EA
:100F500000BF00BF10BD2DE9F04786B005460E4624
:100F60000024A24600BF00BF00272F462C8A4CF663
:100F7000FF700440F08804432C82AC894EF6F310D5
:100F80000440B08831890843718908430443AC8127
:100F9000AC8A4FF6FF400440B0890443AC8201A8FC
:100FA000FFF7BBFEA248874202D1DDF810A001E0A6
:100FB000DDF80CA00AEBCA0000EB0A1031688900CA
:100FC000B0FBF1F86420B8FBF0F0040120096421C3
:100FD00001FB1089322000EB0910B0FBF1F000F0AA
:100FE0000F0004432C8106B0BDE8F0874FF4165182
:100FF000016000218180C18001810C21418100219B
:101000008181704710B502460020108A4FF2FF031D
:1010100018400B884C8823438C882343CC88234377
:101020001843108210BD0021018041808180C18061
:10103000704721B1828942F40052828104E08289A2
:101040004DF6FF731A4082817047F0B503460024C5
:101050000026002500201846C1F3421401F01F06A7
:10106000012707FA06F5012C01D10C3004E0022C0F
:1010700001D1103000E014301AB107682F43076027
:1010800002E00768AF430760F0BD1AB1838A0B43E3
:10109000838202E0838A8B4383827047028A4FF601
:1010A000F0731A400282028A0A43028270478289E0
:1010B0004FF2FF731A40828182890A43828170470E
:1010C00021B1828942F00202828104E082894FF6D6
:1010D000FD731A4082817047028A4FF6DF731A400F
:1010E0000282028A0A430282704721B1028A42F4D4
:1010F0008042028204E0028A4BF6FF731A400282A9
:101100007047C1F308028280704701468888C0F3A7
:1011100008007047818941F0010181817047028B8D
:10112000D2B20283028B42EA012202837047028B11
:1011300002F47F420283028B0A430283704721B18B
:10114000828A42F02002828204E0828A4FF6DF73B4
:101150001A408282704721B1828A42F01002828254
:1011600004E0828A4FF6EF731A408282704721B101
:10117000828A42F00802828204E0828A4FF6F77384
:101180001A4082827047828A4FF6FB731A4082822D
:10119000828A0A438282704721B1828A42F0020227
:1011A000828204E0828A4FF6FD731A408282704781
:1011B0000246002013880B4201D0012000E00020ED
:1011C0007047CA430280704770B502460B46002440
:1011D000002100250020C3F3421503F01F01012662
:1011E00006FA01F1012D02D19689314006E0022D67
:1011F00002D1168A314001E0968A31401C12012644
:1012000006FA04F41688344011B10CB1012000E054
:10121000002070BD10B5002200230A120124944062
:10122000A3B2DC43048010BD004C004000BCFFBFF3
:101230000038014010B50446FD48201809D10121AD
:101240004806FFF7FEFD00214FF00070FFF7F9FDA3
:1012500000E000BF00BF10BD30B5024600200023F3
:10126000146824F002041460146844F0010414604B
:1012700000E05B1CA3F57F44FF3C03D0546814F0EE
:10128000010FF6D0546814F0010F01D100206CE07A
:101290000C78012C04D1146844F08004146003E03D
:1012A000146824F0800414604C78012C04D1146874
:1012B00044F04004146003E0146824F04004146017
:1012C0008C78012C04D1146844F02004146003E0ED
:1012D000146824F020041460CC78012C04D1146824
:1012E00044F01004146003E0146824F01004146047
:1012F0000C79012C04D1146844F00804146003E054
:10130000146824F0080414604C79012C04D114688A
:1013100044F00404146003E0146824F0040414602E
:101320008C79A407CD7944EA05640D7A44EA054432
:101330004D7A44EA05544D896D1E2C43D4611468DE
:1013400024F001041460002300E05B1CA3F57F443B
:10135000FF3C03D0546814F0010FF6D1546814F028
:10136000010F01D0002000E0012030BD10B50021A8
:101370000378012202FA03F1AE4A126842F0010238
:10138000AC4B1A60AB4A1C3212688A43A94B1C331F
:101390001A608278CAB9A74A0C3212688A43A54BF0
:1013A0000C331A60C288438942EA0343A14A40329F
:1013B000047842F834308288038942EA03439D4A24
:1013C0004032047802EBC40253608278012A19D1BA
:1013D000984A0C3212680A43964B0C331A60C28842
:1013E000838842EA0343934A4032047842F8343017
:1013F0004289038942EA03438E4A4032047802EB71
:10140000C402536042783AB98A4A121D12688A436C
:10141000884B1B1D1A6006E0864A121D12680A439B
:10142000844B1B1D1A60828932B9824A14321268B9
:101430008A43804B14331A608289012A06D17D4A7F
:10144000143212680A437B4B14331A60827B012AE0
:1014500006D1784A1C3212680A43764B1C331A6054
:10146000744A126822F00102724B1A6010BD00210A
:10147000017041708170C170017141718171C171E0
:1014800003210172022141720121418170471AB189
:1014900043690B43436102E043698B4343617047F7
:1014A00010B502460020936803F08063B3F1806FAB
:1014B00000D110E0936803F00063B3F1006F01D135
:1014C000012008E0936803F08053B3F1805F01D1FD
:1014D000022000E00420042874D002F5C07303EB5E
:1014E00000131B6803F0010402F5C07303EB001343
:1014F0001C600B7A7BB94B7A0C8843EA445302F5A3
:10150000C07404EB00142468234302F5C07404EB98
:101510000014236010E00B7A4C6843EAC4034C7A51
:10152000234302F5C07404EB00142468234302F53E
:10153000C07404EB001423608B7A03F00F038B72EA
:1015400002F5C07303EB00135B6823F00F0402F590
:10155000C07303EB00135C6002F5C07303EB001370
:101560005B688C7A234302F5C07404EB001463605B
:101570008B7B1C064B7B44EA03440B7B44EA03232E
:10158000CC7A234302F5C07404EB0014A3608B7C77
:101590001C064B7C44EA03440B7C44EA0323CC7BCB
:1015A000234302F5C07404EB0014E36002F5C0733A
:1015B00003EB00131B6843F0010402F5C07303EB57
:1015C00000131C6010BD0246002021B1012910D07B
:1015D000022931D11CE0936803F0010340EA830043
:1015E000936803F0020318439368C3F380631843BE
:1015F00024E0936803F4807340EA9310936803F443
:10160000007340EA13209368C3F3C063184315E0E6
:10161000936803F4803340EA9330936803F4003313
:1016200040EA13409368C3F30073184306E00000D8
:10163000009CFFBF00660040002000BF00BF20B13B
:10164000052804D0072806D103E0022005E0002089
:1016500003E0012001E0002000BF00BF704721B17E
:10166000012907D002290FD109E0826842F08002E7
:1016700082600AE0826842F40042826005E082688B
:1016800042F40002826000E000BF00BF704711B961
:101690002022C26001E02022026170470246002041
:1016A00019B9D36803F0030006E0012903D11369D7
:1016B00003F0030000E00020704730B505460C46FB
:1016C000134605F5D87000EB0410006800F0040024
:1016D0001872187A50B905F5D87000EB041000683C
:1016E00040F2FF7101EA5050186009E005F5D8702A
:1016F00000EB041000686FF0604101EAD000586010
:1017000005F5D87000EB0410006800F00200587274
:1017100005F5D87000EB0410406800F00F009872D7
:1017200005F5D87000EB04104068000AD87405F580
:10173000D87000EB04108068D87205F5D87000EB03
:1017400004108068010A197305F5D87000EB0410C5
:101750008068010C597305F5D87000EB041080689F
:10176000000E987305F5D87000EB0410C068D873AC
:1017700005F5D87000EB0410C068010A197405F56E
:10178000D87000EB0410C068010C597405F5D870CE
:1017900000EB0410C068000E987421462846FFF73D
:1017A00076FF30BD21B1026842F48032026003E06E
:1017B000026822F4803202607047014600200A6805
:1017C00022F0010242F002020A604A6802F00302BB
:1017D000022A00D10120704701464FF6FF72002017
:1017E0000B6823F002030B6000E0521E4B6803F00D
:1017F0000203022B01D1002AF7D14B6803F0020348
:10180000022B00D0012070470246002093690B4252
:1018100001D0012000E00020704782698A43826184
:101820007047024600200A4201D0012000E000205B
:10183000704770B504460D460026402D47D00EDC9B
:10184000072D2BD006DC042D2FD0052D19D0062D09
:1018500061D11CE0082D2ED0202D5CD131E0B5F5F2
:10186000806F46D006DCB5F5807F36D0B5F5007FB9
:1018700051D138E0B5F5803F47D0B5F5003F4AD1AA
:101880003DE0A0680121FFF7CCFF064645E0A068D7
:101890004FF48071FFF7C5FF06463EE0A0684FF4A5
:1018A0008031FFF7BEFF064637E0E0680821FFF70A
:1018B000B8FF064631E0E0681021FFF7B2FF0646A8
:1018C0002BE020690821FFF7ACFF064625E02069E0
:1018D0001021FFF7A6FF06461FE0A0690121FFF7D0
:1018E000A0FF064619E0A0690221FFF79AFF06460D
:1018F00013E0A0690421FFF794FF06460DE060683D
:101900001021FFF78EFF064607E060680821FFF709
:1019100088FF064601E0002600BF00BF304670BDCC
:10192000402935D00EDC072925D006DC042926D035
:10193000052919D0062943D119E0082922D02029E8
:101940003ED122E0B1F5806F2FD006DCB1F5807F6B
:1019500021D0B1F5007F33D122E0B1F5803F29D00D
:10196000B1F5003F2CD128E00122826029E04FF43C
:101970008072826025E04FF48032826021E008228C
:10198000C2601EE01022C2601BE00822026118E063
:101990001022026115E0826922F00102826110E0EA
:1019A000826922F0020282610BE0826922F0040265
:1019B000826106E00822426003E01022426000E0FB
:1019C00000BF00BF7047000031490143314A116038
:1019D000704770B5002100230F22C4780CB32D4C42
:1019E000246804F4E064C4F5E064210AC1F104034E
:1019F000CA40447804FA03F1847814402143090171
:101A0000254C0678A155047804F01F050124AC404C
:101A100005786D114FF0E02606EB8505C5F800410D
:101A200009E0047804F01F050124AC401B4D067842
:101A3000761145F8264070BD194A0A400243154BFD
:101A40001B1F1A60704739B1124A121D12680243F7
:101A5000104B1B1D1A6006E00E4A121D12688243CD
:101A60000C4B1B1D1A607047042808D14FF0E02171
:101A7000096941F004014FF0E022116107E04FF0E5
:101A8000E021096921F004014FF0E0221161704763
:101A90000000FA050CED00E000E400E080E100E069
:101AA00080FFFF1F10B50446BD4820180FD0B0F5C9
:101AB000806F16D0B0F5784F1DD101210803FFF7D4
:101AC000B3F900214FF48050FFF7AEF914E0012183
:101AD0008803FFF7B6F900214FF48040FFF7B1F912
:101AE0000AE00121C803FFF7ACF900214FF40040E0
:101AF000FFF7A7F900E000BF00BF10BD10B500223E
:101B0000028802F441520B884C8823438C8823437B
:101B1000CC8823430C8923434C8923438C8923435A
:101B2000CC8923431A430280838B4FF2FF742340F6
:101B300083830B8A038210BD2DE9F04786B00546EA
:101B40000C464FF0000902274FF000084FF0010A41
:101B50000026A88B4FF240010840A8830220288469
:101B6000B5F81C902089022801D100BF31E0A0887F
:101B700010B94FF0010A01E04FF0020A01A8FFF787
:101B8000CCF8E088B0F5007F0AD1019800EB800026
:101B9000400021890902B0FBF1F0401D86B20BE044
:101BA0004FEA4A1021894843019901EB810149001C
:101BB000B1FBF0F0401D86B20A20B6FBF0F606F04D
:101BC0000108A6EB0800C0F34F074FF6FF7000EACC
:101BD0000828022F01DBFF2F02DD02274FF000084B
:101BE00047EA0800E18808432884208840F4006020
:101BF00061880843A18808436189084340EA0909CC
:101C0000A5F81C9006B0BDE8F08700210180418056
:101C10008180C180018141818181C181072101824F
:101C200070470021018041808180C18002210181B3
:101C300000214181704721B1028842F040020280B8
:101C400004E002884FF6BF731A400280704721B14A
:101C5000828B42F48062828304E0828B4FF6FF33F2
:101C60001A408283704730B5002400230C110125EF
:101C7000A540ABB21AB185881D43858002E08588F6
:101C80009D43858030BD1AB183880B43838002E079
:101C900083888B43838070478181704701468889A0
:101CA0007047A1F57E42FF3A04D0028842F4807268
:101CB000028004E002884FF6FF631A4002807047FA
:101CC00021B1828842F00402828004E082884FF6CB
:101CD000FB731A408280704702884FF2FF731A40EC
:101CE000028002880A4302807047018841F48051D3
:101CF0000180704721B1028842F40052028004E062
:101D000002884DF6FF731A40028070470246002099
:101D1000012901D0108B00E0908A70470146088AA3
:101D20007047B1F5804F04D1028842F480420280AE
:101D300004E002884BF6FF731A40028070470246A7
:101D4000002013890B4201D0012000E000207047E1
:101D5000CA4302817047F0B50246002000240023E8
:101D6000002501F00F070126BE40B4B20B11012679
:101D70009E40B3B2968806EA03051689264202D031
:101D80000DB1012000E00020F0BD10B5002201F0EF
:101D90000F040123A3409AB2D343038110BD000076
:101DA00000C8FFBF0CB500200190009047480068B4
:101DB00040F480304549086000BF4448006800F4A2
:101DC000003000900198401C0190009818B90198CB
:101DD000B0F5A06FF1D13D48006810F4003F02D08B
:101DE0000120009001E0002000900098012843D1DC
:101DF0003748006840F01000354908600846006820
:101E000020F0030008600846006840F00200086007
:101E10002E4840682D49486008464068486008469A
:101E2000406840F4806048600846406820F47C10B8
:101E300048600846406840F4E8104860084600687A
:101E400040F08070086000BF2048006810F0007FFC
:101E5000FAD01E48406820F003001C49486008463C
:101E6000406840F00200486000BF1848406800F039
:101E70000C000828F9D101E000BFFEE70CBD10B549
:101E8000FFF790FF10BD10B51048006840F001004A
:101E90000E490860084640680E4908400B494860F2
:101EA000084600680C490840084908600846006870
:101EB00020F4802008600846406820F4FE00486056
:101EC00000208860FFF7DBFF10BD0000001002401B
:101ED000002002400000FFF8FFFFF6FE434A22F018
:101EE0000700434A10600022414B5A6041F2F83229
:101EF000404B5A6000221A60014641F2F8324A60B3
:101F00001A460A6070472DE9F04104464FF0000878
:101F100000F0C6FB3848006820B9FFF7DFFF01205A
:101F20003549086044B1083414F0070F04D004F0B8
:101F30000700C0F108000444002C32D041F2F83010
:101F400084422ED22A4F3846056801E02F462D687C
:101F50006868A04202D228680028F7D12548854247
:101F60001FD0386800F10808286838606868001BCE
:101F7000102810D92E196868001B70606C60716899
:101F80001B4800E00068026852688A42FAD302687F
:101F90003260066000BF194968680968081A174965
:101FA000086000F0B1FA4046BDE8F08170B5064621
:101FB0003546B6B1083D2C4600F072FB61680C480E
:101FC00000E00068026852688A42FAD30268226020
:101FD00004600A496068096808440849086000F01C
:101FE00093FA70BD05480068704770477C00002078
:101FF000240000202C000020200000201C000020D5
:1020000000F1080141604FF0FF31816000F10801EB
:10201000C1600161002101607047002101617047CA
:1020200042684A6093688B60936859609160086168
:1020300003685B1C0360704710B502460B685C1CAC
:1020400001D1106907E002F1080000E0406844682F
:1020500024689C42FAD944684C604C68A16088604E
:1020600041600A611468641C146010BD01460A696D
:10207000D1E901309860D1E9010358605068884285
:1020800001D188685060002008611068401E10600F
:102090001068704700BFBF2080F31188BFF34F8FD7
:1020A000BFF36F8F00BF00BFFEE7001F4FF08073CC
:1020B0000360001F21F001030360001F2B4B03602E
:1020C000143802602038704729484FF0E0214861F9
:1020D00007200861704710B52648006840F47F006B
:1020E000244908600846006840F07F400860FFF718
:1020F000EBFF002020490860FEF714F8002010BD17
:10210000704700BFBF2080F31188BFF34F8FBFF32C
:102110006F8F00BF18480068401C1749086070475F
:1021200015480068401E144908600846006820B938
:10213000002080F3118800BF00BF704710B500BFBA
:10214000BF2080F31188BFF34F8FBFF36F8F00BFA5
:1021500000F063F920B14FF0805006491C39086047
:1021600000BF002080F3118800BF10BD952000083B
:102170003F19010020ED00E03400002010B50024DC
:1021800007E004EB8401FE4A02EB8100FFF738FF11
:10219000641C202CF5D3FB48FFF732FFFA48FFF709
:1021A0002FFFFA48FFF72CFFF948FFF729FFF948FE
:1021B000FFF726FFF348F8490860F348F74908603D
:1021C00010BD10B50446FFF79CFFF5480068401CA1
:1021D000F3490860F348006840B9F24804600846D3
:1021E000006801280DD1FFF7C9FF0AE0EE4800683A
:1021F00038B9EC480068C06AE16A884201D8E94809
:102200000460EA480068401CE849086094F82C1013
:1022100001208840E64909680843E5490860E16A09
:1022200001EB8101D64A02EB8100211DFFF7F8FE88
:10223000FFF776FFDC48006868B1DA480068C06ADA
:10224000E16A884207D24FF08050DA490860BFF354
:102250004F8FBFF36F8F10BD2DE9FF5F80460E4695
:102260009146DDE90E7A109CA9F10100216B01EB8A
:10227000800B2BF0070B002507E0715D04F13400A3
:102280004155705D00B902E06D1C102DF5D300BF03
:10229000002143200155202F00D31F27E762201D76
:1022A000FFF7BBFE04F11800FFF7B7FE2461C7F18A
:1022B0002000A06164620020606484F84800414608
:1022C0005846039AFFF7F1FE2060BAF1000F01D0E3
:1022D000CAF80040BDE8FF9F2DE9FF4F85B080465A
:1022E00089461746DDE912ABB800FFF70CFE06463B
:1022F00056B14C20FFF707FE04460CB1266304E0FC
:102300003046FFF753FE00E000247CB10020CDE909
:1023100000ABCDE902403A4649464046089BFFF7EC
:102320009BFF2046FFF74DFF012501E04FF0FF35F1
:10233000284609B0BDE8F08F97490968096809B9CE
:10234000012100E0002121B14FF0FF319A4A1160D4
:1023500006E091490968C968C868974A41681160F0
:10236000704710B50446206BFFF720FE2046FFF7AC
:102370001DFE10BD70B50546FFF7C3FE15B98948AF
:10238000006800E028460446201DFFF76FFE78B97C
:10239000E06A00EB80007A4951F8200040B994F8D7
:1023A0002C100120884082490968814380480160DF
:1023B000A06A18B104F11800FFF758FE7B480068C6
:1023C000401C7A49086077480068844209D1211D81
:1023D0006F48FFF725FE79480068401C7749086080
:1023E00009E06F480068401E6D4908602046FFF70D
:1023F000B8FFFFF7A1FFFFF793FE6B48006858B1E5
:1024000068480068844207D14FF0805069490860ED
:10241000BFF34F8FBFF36F8F70BD2DE9F0410027E1
:1024200067480068002863D166480068451C654815
:1024300005608DB95848D0F8008058480068564962
:1024400008605648C0F800805F480068401C5E493C
:102450000860FFF771FF00BF5748006885423BD313
:1024600000BF4D480068006808B9012000E0002066
:1024700020B14FF0FF30504908602CE0464800681A
:10248000C068C4686668B54202D24B48066022E064
:10249000201DFFF7EBFDA06A18B104F11800FFF74B
:1024A000E5FD94F82C100120884041490968084353
:1024B0003F490860E16A01EB8101314A02EB81008A
:1024C000211DFFF7ADFD3749E06A0968C96A8842F6
:1024D000C7D30127C5E700BF32480068C06A00EBD8
:1024E0008000274951F82000012800D9012704E085
:1024F00036480068401C354908603548006800B11E
:1025000001273846BDE8F08170B500240026FFF7AA
:10251000F8FD2B480068401E2949086008460068FD
:1025200000287BD11E480068002877D024E0174897
:10253000C068C46804F11800FFF798FD201DFFF77C
:1025400095FD94F82C10012088401949096808432A
:1025500017490860E16A01EB8101094A02EB810039
:10256000211DFFF75DFD0F49E06A0968C96A8842CD
:1025700002D30120164908600448006850BB2AE0D5
:1025800074140020F4160020081700201C170020E7
:1025900030170020441700206C000020700000203D
:1025A00040000020380000204C0000205C0000208B
:1025B0004800002004ED00E0600000203C00002006
:1025C0006800002044000020580000205000002037
:1025D0005400002001E0012000E000200028A6D0E7
:1025E0000CB1FFF7A9FEFD48056865B100BFFFF714
:1025F00014FF10B10120FA4908606D1E002DF6D1BC
:102600000020F6490860F648006838B10126300716
:10261000F4490860BFF34F8FBFF36F8FFFF780FD62
:10262000304670BD2DE9F04105460E46EE4807687C
:10263000EE480068001DFFF719FD50B9EB4800682F
:1026400090F82C1001208840E94909688143E84846
:102650000160681C07D136B1E4480168091DE548EE
:10266000FFF7DEFC1AE07C19E04800684460BC42D9
:1026700007D2DE480168091DDF480068FFF7DCFC6F
:102680000CE0DA480168091DDC480068FFF7D4FC5B
:10269000DB480068844201D2D9480460BDE8F0817B
:1026A000D8480068401CD749086070472DE9F047BA
:1026B000044688464FF00009FFF7F2FFCA48066853
:1026C000206800EB08052068B04207D92068A842BE
:1026D0000BD9B54209D94FF0010906E02068A8429C
:1026E00001D8B54201D94FF001092560B9F1000FB9
:1026F00003D0A81B0021FFF795FFFFF705FF074652
:102700003FB94FF08050B7490860BFF34F8FBFF318
:102710006F8FBDE8F08770B50446002544B1FFF720
:10272000BFFF00212046FFF77DFFFFF7EDFE0546C6
:102730003DB94FF08050AB490860BFF34F8FBFF3F6
:102740006F8F70BD70B50446FFF7DBFC14B9A74866
:10275000006800E020460646F56AFFF7E1FC2846DF
:1027600070BD70B5024600BFBF25EFF3118485F33D
:102770001188BFF34F8FBFF36F8F00BF214612B98F
:102780009A4C246800E014462346D86A00BF81F3BF
:10279000118800BF70BD2DE9F04780460D464FF00F
:1027A0000009202D00D31F25FFF7ABFCB8F1000F67
:1027B00002D18E48006800E040460446E66AAE4218
:1027C00051D0B5420BD98948006884420DD0874862
:1027D0000068C06AA84208D84FF0010905E08348A4
:1027E0000068844201D14FF00109E76AE562A069FF
:1027F00010F0004F02D1C5F12000A06107EB870166
:10280000814A02EB81016069884201D1012000E028
:102810000020E0B1201DFFF729FC30B90120B840AD
:102820007349096881437248016094F82C100120B3
:1028300088406F49096808436D490860E16A01EB07
:102840008101714A02EB8100211DFFF7E9FBB9F11B
:10285000000F07D04FF0805062490860BFF34F8FE0
:10286000BFF36F8F00BFFFF75BFCBDE8F0876548E3
:10287000006818B101205A4908601DE0002058493D
:1028800008605B480068B0FA80F0C0F11F0101EBFE
:1028900081025D4B03EB820042685268426000F1A6
:1028A00008024368934202D142685268426042681B
:1028B000D2684E4B1A6000BF704770B50546FFF7EF
:1028C00020FC15B94948006800E028460446201D50
:1028D000FFF7CCFB78B9E06A00EB80004A4951F879
:1028E000200040B994F82C10012088404049096824
:1028F00081433F480160A06A18B104F11800FFF756
:10290000B5FB211D3B48FFF78BFBFFF709FC3F4858
:10291000006828B1FFF7F5FBFFF70EFDFFF700FC9D
:1029200032480068844217D13848006840B14FF0FF
:1029300080502C490860BFF34F8FBFF36F8F0BE0BF
:102940002C48006832490968884203D10020274991
:10295000086001E0FFF78BFF70BD10B50146002055
:102960000A46244C5369A34201D1012300E000230D
:1029700073B1284C936AA34201D1012300E00023E4
:1029800033B9936A0BB9012300E0002303B101209E
:1029900010BD70B505462C46F4B314480068844257
:1029A0004BD0FFF7AEFB2046FFF7D7FFA8B3201DA3
:1029B000FFF75CFB94F82C10012088400C49096853
:1029C00008430B490860E16A01EB81010E4A02EB02
:1029D0008100211DFFF724FB04491FE05000002067
:1029E0005400002004ED00E04400002038000020E6
:1029F0004800002044170020700000206C000020D8
:102A00006000002068000020741400204C000020AA
:102A1000400000201C1700200FE00CE0E06A09686D
:102A2000C96A884207D34FF08050FE490860BFF35F
:102A30004F8FBFF36F8FFFF773FB70BD2DE9F04130
:102A400006460027344600BFBF21EFF3118081F313
:102A50001188BFF34F8FBFF36F8F00BF054620462D
:102A6000FFF77BFF20B3F0480068E0B9EF49E06A68
:102A70000968C96A884200D30127201DFFF7F6FACA
:102A800094F82C1001208840E94909680843E84976
:102A90000860E16A01EB8101E64A02EB8100211D39
:102AA000FFF7BEFA04E004F11801E348FFF7B8FAB3
:102AB00000BF85F3118800BF3846BDE8F08170B5CE
:102AC00023E0FFF7EDFDDD48006808B9012000E0D4
:102AD00000200546FFF718FDBDB9FFF712FBD748E8
:102AE000C068C468201DFFF7C1FAD5480068401EC1
:102AF000D3490860D3480068401ED2490860FFF7F8
:102B00000FFB2046FFF72DFC00BFCE4800680028D1
:102B1000D7D170BD00BFFFF7D2FFC64800680128BB
:102B2000F9D94FF08050BF490860BFF34F8FBFF312
:102B30006F8FF0E71CB5C44800210B468022CDE919
:102B40000010C2A1C348FFF7C7FB0446012C14D1F3
:102B500000BFBF2080F31188BFF34F8FBFF36F8F8B
:102B600000BF4FF0FF30BC4908600120BB4908603E
:102B70000020BB490860FFF7AEFA1CBD10B500BFCE
:102B8000BF2080F31188BFF34F8FBFF36F8F00BF5B
:102B90000020B2490860FFF7B3FA10BDB0490868D9
:102BA00070470021AE4A10687047A548006870471A
:102BB000014611B99D48006800E00846024602F14E
:102BC0003400704770B505460C46984801681831C6
:102BD0002846FFF731FA01212046FFF723FD70BD9B
:102BE00070B506460C46154644F000408F4909680A
:102BF00088618E48016818313046FFF711FA0121CB
:102C00002846FFF70FFD70BD70B50646F068C46832
:102C100004F11800FFF72AFA83480068A8B9201DBC
:102C2000FFF724FA94F82C100120884080490968A5
:102C300008437F490860E16A01EB81017D4A02EBAC
:102C40008100211DFFF7ECF904E004F118017A4836
:102C5000FFF7E6F97549E06A0968C96A884204D94C
:102C6000012501207F49086000E00025284670BD4D
:102C70002DE9F04105460F4647F000402860EC681A
:102C80002846FFF7F3F9201DFFF7F0F994F82C1010
:102C90000120884066490968084365490860E16A7F
:102CA00001EB8101634A02EB8100211DFFF7B8F9B6
:102CB0005E49E06A0968C96A884204D90126012090
:102CC0006849086000E000263046BDE8F0816649AA
:102CD00009680160624909684160704770B504463F
:102CE0000D46FFF70EFA5E4802682868401C01D1C5
:102CF000002619E05C4920680968884204D06068B1
:102D0000904201D801260FE06068101A29688842B5
:102D100009D228686168511A401A28602046FFF7D6
:102D2000D6FF002600E00126FFF7FAF9304670BD15
:102D300001204C49086070473C49096888693B4953
:102D40000968C96AC1F12001384A12689161704767
:102D500070B506460D46FFF7D4F934480068406C5C
:102D600088B901203149096881F848005DB1012125
:102D70002846FFF757FC4FF080502A490860BFF300
:102D80004F8FBFF36F8FFFF7CBF9FFF7BAF92748E3
:102D90000068446C4CB126B100202449096848649D
:102DA00003E0601E21490968486400201F49096842
:102DB00081F84800FFF7B4F9204670BD2DE9F041D5
:102DC0000746884614461D46FFF79BF917480068DA
:102DD00090F84800022818D01449096801F144000D
:102DE000496CB943016001201049096881F8480025
:102DF0005DB101212846FFF715FC4FF080500949CD
:102E00000860BFF34F8FBFF36F8FFFF789F9FFF7AC
:102E100078F91CB105480068406C206003480068E0
:102E200024E0000004ED00E06800002038000020ED
:102E300048000020741400201C17002030170020C8
:102E4000400000203C0000206400002049444C4524
:102E500000000000152B0008600000204C0000203E
:102E600044000020540000205800002090F8480042
:102E7000012801D1002608E0A149096801F14400B8
:102E8000496C21EA08010160012600209C4909687B
:102E900081F84800FFF744F93046BDE8F0812DE99C
:102EA000F04781460D4616461F464FF0010A4C4634
:102EB000FFF727F90FB1606C386094F84880022062
:102EC00084F84800052E17D2DFE806F01503070B3B
:102ED0000D00606C284360640EE0606C401C606410
:102EE0000AE0656408E0B8F1020F01D0656401E012
:102EF0004FF0000A00E000BF00BFB8F1010F22D17F
:102F0000201DFFF7B3F894F82C10012088407D496C
:102F1000096808437B490860E16A01EB81017A4A4C
:102F200002EB8100211DFFF77BF87549E06A096813
:102F3000C96A884207D94FF0805074490860BFF3CE
:102F40004F8FBFF36F8FFFF7EBF85046BDE8F08768
:102F50002DE9F84F83460D4616461F46DDF828A09A
:102F6000012000905C4600BFBF21EFF3118081F388
:102F70001188BFF34F8FBFF36F8F00BF81460FB132
:102F8000606C386094F84880022084F84800052E70
:102F900017D2DFE806F01503070B0D00606C28431D
:102FA00060640EE0606C401C60640AE0656408E0E8
:102FB000B8F1020F01D0656401E00020009000E04C
:102FC00000BF00BFB8F1010F2DD151480068A8B96A
:102FD000201DFFF74BF894F82C1001208840494938
:102FE0000968084347490860E16A01EB8101464AE4
:102FF00002EB8100211DFFF713F804E004F1180132
:103000004448FFF70DF83E49E06A0968C96A8842FA
:1030100009D9BAF1000F03D00120CAF8000002E07C
:1030200001203D49086000BF89F3118800BF009866
:10303000BDE8F88F2DE9F04105460E462C4600BF4D
:10304000BF21EFF3118081F31188BFF34F8FBFF3DE
:103050006F8F00BF074694F84880022084F848002C
:10306000606C401C6064B8F1010F2AD128480068E8
:10307000A8B9201DFEF7FAFF94F82C100120884013
:103080002049096808431F490860E16A01EB810192
:103090001D4A02EB8100211DFEF7C2FF04E004F18E
:1030A00018011C48FEF7BCFF1549E06A0968C96AA7
:1030B000884206D916B10120306002E0012016498D
:1030C000086000BF87F3118800BFBDE8F08170B5CC
:1030D000054615B90A48006800E028460646FFF78D
:1030E00010F896F84800022804D1002086F848001D
:1030F000012400E00024FFF713F8204670BD000013
:1031000038000020480000207414002004ED00E086
:10311000680000201C17002054000020064C074DBA
:1031200006E0E06840F0010394E807009847103497
:10313000AC42F6D3FCF7DEFF6031000880310008B6
:1031400002E008C8121F08C1002AFAD17047704770
:10315000002001E001C1121F002AFBD170470000CE
:103160008031000800000020740000004031000899
:10317000F431000874000020E41800005031000809
:103180000000000000000000000000000102030435
:10319000010203040607080902040608F8130000E8
:1031A000000000000000000000000000000000001F
:1031B00000000000AAAAAAAA000000000000000067
:1031C00000000000000000000000000000000000FF
:1031D00000000000000000000000000000000000EF
:1031E00000000000000000000000000000000000DF
:0431F00000000000DB
:040000050800019955
:00000001FF
