:020000040800F2
:10000000884B002099010008FD0B0008F90B00083F
:10001000FB0B0008550800085513000800000000FD
:1000200000000000000000000000000001010008C6
:10003000050B000800000000450100081929000810
:10004000AF010008AF010008AF010008AF010008D0
:10005000AF010008AF010008AF010008AF010008C0
:10006000AF010008AF010008AF010008AF010008B0
:10007000AF010008AF010008AF010008AF010008A0
:10008000AF010008AF010008AF010008AF01000890
:10009000D9120008AF010008AF010008AF01000845
:1000A000AF010008AF010008AF010008AF01000870
:1000B000F90E0008690F0008AF010008AF01000841
:1000C000AF010008AF010008AF010008AF01000850
:1000D000AF010008AF010008BD100008E9100008DA
:1000E000AF010008AF010008AF010008DFF80CD035
:1000F00000F00EFB0048004731200008884B00202C
:10010000224B19680868B0E8F00F80F30988BFF344
:100110006F8F4FF0000080F311884EF00D0E704786
:100120000000000006480068006880F3088862B696
:1001300061B6BFF34F8FBFF36F8F00DF00BF00BF0B
:1001400008ED00E0EFF30980BFF36F8F0F4B1A68E3
:1001500020E9F00F106008B54FF0BF0080F3118860
:10016000BFF34F8FBFF36F8F02F09CFB4FF0000087
:1001700080F31188BDE8084019680868B0E8F00FFE
:1001800080F30988BFF36F8F704700BF30000020F5
:10019000EFF305807047000005480047FEE7FEE7E3
:1001A000FEE7FEE7FEE7FEE7FEE7FEE7FEE7FEE727
:1001B000ED00000840EA01039B0703D009E008C9ED
:1001C000121F08C0042AFAD203E011F8013B00F81C
:1001D000013B521EF9D27047F0B480EA0102D40FFD
:1001E0004200B2EB410F02D20246084611464A00D5
:1001F00042D0C30DDDB2C1F3C752AD1A202D35DA9E
:10020000C1F3160141F4000204B15242C5F12006C7
:1002100002FA06F12A411044B3EBD05F23D0C4B1F7
:10022000012DA0EBC35009DCF0BC4FF0004202EA04
:10023000C35200F50000DBB200F089B8400000F1C5
:10024000807000EBC350A0F1807040EAD17049008B
:1002500009E0490841EAC071A0EBC35000F5000075
:10026000400800EBC350F0BC00F068B861420122C6
:1002700002EB4101001BF6E7F0BC704781F0004142
:10028000AAE780F00040A7E700F0004230F000400D
:100290000AD0C10D01F56071C0F3160042EA0151A8
:1002A000C20840071143704700200146704730B52F
:1002B0000B46014600202022012409E021FA02F524
:1002C0009D4205D303FA02F5491B04FA02F52844BE
:1002D000151EA2F10102F1DC30BD2DE9F05F0546EB
:1002E000002092469B4688460646814640241BE0F5
:1002F000284641464746224600F02BFA53465A46C6
:10030000C01A914110D311461846224600F012FA45
:100310002D1A67EB01084F4622460120002100F00C
:1003200009FA17EB00094E41201EA4F10104DFDC9D
:10033000484631462A464346BDE8F09F0029A8BFFB
:100340007047401C490008BF20F00100704710B4FE
:10035000B0FA80FC00FA0CF050EA010404BF10BCB3
:10036000704749B1CCF1200421FA04F411FA0CF1E0
:1003700018BF012121430843A3EB0C01CB1D01064B
:10038000000A002BBEBF002010BC704700EBC3501A
:1003900010440029A4BF10BC7047401C490008BF8E
:1003A00020F0010010BC70472DE9FE4F804681EA25
:1003B0000300C00F0C46009021F0004123F00045DF
:1003C000B8EB0200A94105D24046214690461C46A2
:1003D0000B46024623F00040104304D1404621461C
:1003E00003B0BDE8F08F270DC7F30A00C3F30A512D
:1003F0000290401A0190402866DAC3F3130040F4DB
:10040000801B0098924620B10023D2EB030A63EBD5
:100410000B0B01985946C0F14002504600F08AF992
:1004200006460D4650465946019A00F0A2F910EBD7
:1004300008006141002487EA115284EAE7731A43F5
:100440003BD0009A3AB3019A012A4FEA075210DCD6
:10045000001B61EB02014FF0004202EA0752CDE9B6
:100460000042001C41F5801132462B4600F0A0F9F5
:10047000B6E7001B61EB0201001C41F58013001878
:100480005B412018A2F5001747EB030140EAD57045
:10049000B6196D4111E06D084FEA360645EAC075A0
:1004A0004FEA0752001B61EB0201001C41F580116D
:1004B00049084FEA30000019514132462B4603B03B
:1004C000BDE8F04F00F067B900980122400000231A
:1004D000D0EB020263EBE073009821464FEAE07430
:1004E000B8EB000061EB0401E9E783F000435BE750
:1004F00081F0004158E72DE9FE4F81EA030404F042
:10050000004421F0004100944FF0000B23F0004321
:1005100050EA010402D052EA030404D1002001464B
:1005200003B0BDE8F08FC3F30A54C1F30A552C445D
:10053000A4F2F3340194A0FB0254C1F3130141F47B
:100540008011C3F3130343F4801301FB024400FB47
:10055000034E840A970A44EA815447EA8357A4FB6E
:10056000076802958D0A05FB07854FEA932C04FB6B
:100570000C542705029D4FEA065847EA1637B5EB9B
:1005800008056EEB070C870E920E47EA811742EAC8
:100590008312A7FB0201B6EB0B0164EB00042B0DE9
:1005A00043EA0C335E1844EB1C50DA465146E7FB35
:1005B0000201C5F313044FEA0B3343EA14534FEA25
:1005C0000432019C43EA0603A4F10C040294009C4B
:1005D000CDE900B400F0ECF8A2E72DE9F04D81EA96
:1005E000030404F0004B21F0004514464FF0000ACC
:1005F00023F0004150EA050220D054EA01021DD048
:10060000C5F30A570246C5F31303C1F31300C1F340
:100610000A5640F4801543F48013A7EB0608101B1C
:10062000D64608F2FD3873EB050002D308F1010845
:1006300001E092185B41B8F1000F03DA0020014697
:10064000BDE8F08D00204FF48011064684460EE090
:10065000171B73EB050705D3121B63EB050306435A
:100660004CEA010C49084FEA300092185B4150EA0D
:100670000107EDD152EA030012D082EA040083EAB6
:100680000501084303D100224FF0004308E0101B8E
:10069000AB4102D20122002302E06FF001025310AD
:1006A0001AEB06004CEB085110EB0A0041EB0B0172
:1006B000BDE8F04D00F06FB8C1F30A52C1F3130169
:1006C00040F2FF3341F480119A4202DA00200146E1
:1006D000704740F233439A42A2F2334202DC524264
:1006E00000F037B800F026B830B5002904DB4FF031
:1006F0000044404264EB0101002B04DB4FF0004456
:10070000524264EB0303994208BF904230BD00009F
:10071000064C074D06E0E06840F0010394E807004E
:1007200098471034AC42F6D3FFF7E4FC8C2E000857
:10073000AC2E0008202A04DB203A00FA02F1002047
:1007400070479140C2F1200320FA03F3194390400F
:100750007047202A04DB203A21FA02F0002170477A
:1007600021FA02F3D040C2F1200291400843194619
:100770007047202A06DBCB17203A41FA02F043EA01
:10078000E07306E041FA02F3D040C2F1200291404A
:1007900008431946704710B5002B08DA401C41F198
:1007A000000192185B411A4301D120F0010010BDF5
:1007B0002DE9F04D92469B4611B1B1FA81F202E06B
:1007C000B0FA80F220329046FFF7B4FF04460F469D
:1007D00040EA0A0041EA0B0153465A46084303D156
:1007E00020463946BDE8F08D114653EA010015D088
:1007F000C8F140025046FFF7ACFF05460E46504692
:1008000059464246FFF796FF084301D0012000E019
:100810000020054346EAE0762C4337430A984FEA26
:100820004453A0EB08004FEAD4240A304FF00002F2
:1008300044EA47544FEAD72502D500200146D1E7C4
:10084000010510196941DDE9084500196941BDE854
:10085000F04DA0E7FEE70000074910B540180AD1A7
:1008600001214C06204600F013FA2046BDE8104056
:10087000002100F00DBA10BD009CFFBF202209B17D
:1008800002617047C2607047F0B502780121914063
:100890002D4A136843F0010313602B4B1C331C6873
:1008A0008C431C60284C284D87780C3440352E1D15
:1008B000A7B927688F432760C788B0F80AC047EAFE
:1008C0000C4790F800C045F83C708788B0F808C025
:1008D00047EA0C4790F800C046F83C708778012F33
:1008E0000ED127680F432760446807784FEA3444E5
:1008F00045F83740846805784FEA344446F8354077
:10090000114C4578241D002D256806D00D43256027
:100910000D4C8589143415B104E08D43F7E7256843
:100920008D4325608589012D02D125680D43256001
:10093000807B012802D1186808431860106820F0F5
:1009400001001060F0BD000000660040002A42690E
:1009500001D00A4300E08A434261704710B5026843
:10096000002322F002020260026842F001020260EB
:100970004FF6FF7202E05B1C934202D04468E4072A
:10098000F9D04368DB073ED00B78012B03683CD0DD
:1009900023F0800303604B78012B036838D023F0E9
:1009A000400303608B78012B036834D023F02003CD
:1009B0000360CB78012B036830D023F01003036071
:1009C0000B79012B03682CD023F0080303604B79CB
:1009D000012B036828D023F0040303608B79CC79C2
:1009E0009B0743EA04630C7A43EA04434C7A49893F
:1009F00043EA0453491E0B43C361016821F001011E
:100A00000160002116E0002010BD43F08003C1E723
:100A100043F04003C5E743F02003C9E743F0100368
:100A2000CDE743F00803D1E743F00403D5E7491CC1
:100A3000914202D04368DB07F9D14068C007E2D198
:100A4000012010BD10B400EB0113D3F8B04114F035
:100A500004041472D3F8B04128D0E408C2F804406A
:100A600003F5D8731C6804F0020454725C6804F047
:100A70000F0494725C68240AD4749C68D4729C68D5
:100A8000240A14739C68240C54739C68240E947379
:100A9000DC68D473DC68240A1474DC68240C547495
:100AA000DB681B0E937410BCFFF7E8BE640D146086
:100AB000D6E70021017041708170C17001714171F0
:100AC0008171C171032101720221417201214181B1
:100AD0007047000070B50A4DFF231A4605F5807671
:100AE00006E000BF10F8014B54402A5D5A40335DC8
:100AF0000C00A1F1010189B2F4D142EA032070BDDA
:100B0000832C000870470000F0B5CA78002502F079
:100B10000F03D20601D58A7813430C784FF00F0EDD
:100B20000122ECB1D0F800400F8802FA05F63740F8
:100B3000B74211D14FEA850C0EFA0CF724EA0707E9
:100B400003FA0CF43C43CF78282F02D0482F02D070
:100B500002E0466100E006616D1C082DE4D30460EC
:100B60000C88FF2C1ED944685FF0000606F10807C8
:100B700002FA07F50F882F40AF420FD14FEA860CDB
:100B80000EFA0CF7BC4303FA0CF73C43CF78282F3E
:100B900000D14561CF78482F00D10561761C082E21
:100BA000E4D34460F0BD0000F0B5104D6A68440D18
:100BB000260184B2C0F30157B440C0F30343032FAE
:100BC00005D0C0020AD503209840824307E0686838
:100BD00022F0706320F07060686002E0A24342F08F
:100BE000706301B123436B60F0BD00000000014061
:100BF0004161704701617047FEE7FEE77047000002
:100C0000F0B50F21C478027801234FF0E026DCB163
:100C1000124C2468457804F4E064C4F5E064240AC6
:100C2000C4F10407E1408478BD400C402C4321010D
:100C30000B4C1155007800F01F018B40400906EB6A
:100C40008000C0F80031F0BD02F01F008340500961
:100C500006EB8000C0F88031F0BD00000CED00E034
:100C600000E400E0024908430249086070470000C0
:100C70000000FA050CED00E0044A0029D16901D01A
:100C8000014300E08143D161704700000010024041
:100C9000044A0029116901D0014300E08143116138
:100CA0007047000000100240044A0029916901D0F9
:100CB000014300E081439161704700000010024051
:100CC000044A0029D16801D0014300E08143D1608A
:100CD000704700000010024030B51F494A6812F00A
:100CE0000C031E4A03D0042B01D0082B22D0026033
:100CF0004A680F231A4C03EA1212A35C0268DA4016
:100D000042604B68072505EA1323E35C22FA03F3EC
:100D100083604B6805EAD323E35C22FA03F2C260E6
:100D20004968032303EA9131231F595CB2FBF1F1B7
:100D3000016130BD4A68022302F4701203EB924253
:100D40004B6813F4803F02D04B689B0301D5054BE1
:100D500000E0024B5A43CAE70010024000127A003A
:100D60001900002000093D000029018802D041F04F
:100D7000400101E021F0400101807047024600205F
:100D800012890A4200D0012070478181704730B536
:100D900002884C8802F441530A88CD8822438C880B
:100DA0002C4322430C8922434C8922438C892243C1
:100DB000CC8922431A430280828B22F40062828310
:100DC000098A018230BD00000CB50021264801913E
:100DD0000091026842F4803202604FF4A06302681E
:100DE00002F400320092019A521C0192009A12B948
:100DF000019A9A42F3D10268920333D501210091FE
:100E00001A490A6842F010020A600A6822F00302D6
:100E10000A600A6842F002020A6041684160416863
:100E20004160416841F480614160416821F47C1176
:100E30004160416841F4E8114160016841F080710E
:100E4000016001688901FCD5416821F0030141601E
:100E5000416841F0020141604168C1F3810102290A
:100E6000FAD10CBD0091FEE70010024000200240C4
:100E70000C48016841F00101016041680A4A1140D3
:100E800041600168094A11400160016821F4802134
:100E90000160416821F4FE01416000218160FFF79B
:100EA00093BF0000001002400000FFF8FFFFF6FEB5
:100EB0003EB501210846FFF7DFFE4FF08044204693
:100EC00000F070F842F21070ADF8040041F61F40D7
:100ED000ADF800000020ADF802006946204600F0A1
:100EE000CFF80121204600F057F801221146204694
:100EF00000F0BEF83EBD000010B501218C07204671
:100F000000F0AAF8002807D00121204600F047F899
:100F100002480168491C016010BD00000C0000205F
:100F20003EB501210220FFF7A7FE0E4C204600F03F
:100F300039F84FF47A70ADF8040041F61F40ADF86F
:100F400000000020ADF802006946204600F098F845
:100F50000121204600F020F801221146204600F031
:100F600087F83EBD0004004010B5094C0121204621
:100F700000F072F800280AD00121204600F00FF896
:100F800004484168002902D04168491E416010BDF3
:100F9000000400400C000020C94301827047C9438F
:100FA000018270472A4B10B51915C21A4C0098429D
:100FB0003BD010DCB0F1804F22D0264A801826D0DA
:100FC00088422BD0A04241D101210820FFF760FECA
:100FD0000021082036E08A422ED0B2F58E3F0DD097
:100FE000B2F5923F32D101214C032046FFF768FE53
:100FF0002046BDE810400021FFF762BE0121F4E762
:1010000001210846FFF744FE002101201AE00121DA
:101010000220FFF73DFE0021022013E00121042001
:10102000FFF736FE002104200CE001211020FFF71D
:101030002FFE0021102005E001212020FFF728FECF
:1010400000212020BDE81040FFF722BE10BD0000A7
:101050000010004000FCFFBF02460020138A928966
:101060000B4202EA010202D0002A00D001207047A0
:10107000002A828901D00A4300E08A4382817047B6
:10108000028802F08F020280CA884B881A430388C4
:101090001A4302808A8882850A880285054A90421E
:1010A00002D0054A904201D1097A0186012181824C
:1010B00070470000002C01400034014070B5094C1D
:1010C00040F225552946204600F069F8002808D04E
:1010D000204600F0F8F829462046BDE8704000F0B0
:1010E00029B870BD0044004070B50F4C40F2255542
:1010F0002946204600F053F8002814D0204600F07E
:10110000E2F80B4B014609481A788154521C1A70B8
:101110000078552801D00020187029462046BDE8E7
:10112000704000F007B870BD004800408400002007
:10113000140000200A0A01219140C9430180704730
:101140000029818902D041F4005101E021F40051CD
:10115000818170471FB5044600910021ADF8081049
:10116000ADF804100C20ADF80610ADF80C10ADF879
:101170000A006946204600F049F8012240F2255154
:10118000204600F02BF801212046FFF7D9FF1FBDB4
:101190000246002012880A4200D00120704730B574
:1011A00001F01F0201240025C1F3421304FA02F2E8
:1011B000012B0FD0022B0FD0838A4FEA1121008818
:1011C000134204FA01F400EA040001D000B1012541
:1011D000284630BD8389F0E7038AEEE710B5C1F3F6
:1011E000421301F01F040121A140012B07D0022B63
:1011F00007D01430002A026805D00A4304E00C30FE
:10120000F8E71030F6E78A43026010BD30B50446B7
:10121000008A85B00D464CF6FF710840E98801430D
:101220002182A1894EF6F3100140A8882A89104333
:101230006A890A431043A081A08A4FF6FF41084003
:10124000A9890143A1826846FFF746FD11488442FF
:1012500001D1039800E00298642200EBC00101EB89
:10126000001029686FF018058900B0FBF1F0B0FBA1
:10127000F2F109010B096B4300EB8300322303EB0E
:101280000010B0FBF2F000F00F000843208105B021
:1012900030BD0000003801402DE9F04115460E46F2
:1012A000074600240BE0315D384600F010F840217D
:1012B0003846FFF76DFF0028F9D0641CA4B2AC4299
:1012C000F1D3BDE8F0818088C0F308007047C1F316
:1012D000080181807047000000B587B000208DF8BC
:1012E00008008DF80C00059006908DF80A008DF826
:1012F0000D00009001908DF813008DF80B008DF813
:101300000E0001466A461048FFF79CFBDDF80B0013
:101310009DF80E1000BA20F0FF00084305900B491D
:101320000198884207D009491031884203D0074903
:101330002031884206D10648002306AA05A9006884
:1013400001F056FB07B000BD0064004002F51F1815
:1013500008000020FEE700000FB4084B10B504A9F8
:1013600002AA039800F0CAF8044602A9002000F07F
:1013700068FC204610BC5DF814FB0000431C00080C
:1013800002E008C8121F08C1002AFAD1704770474E
:10139000002001E001C1121F002AFBD170470000AC
:1013A0002DE9FF5FDDE90220010DDDF838B00243D1
:1013B00010D10F9801244CA2012808D000210098D8
:1013C0000F9BC0E90021C0E90243BDE8FF9F6FEA1F
:1013D0000B01F4E7A1F2FF3144F6105041430D1424
:1013E0000F9801280ED0A5EB0B00401C4FF0000415
:1013F0003E4EDFF8FC90B0F1000AA04605DACAF1D3
:10140000000717E0CBF10000F0E7074612E0F8070D
:1014100007D02246334640464946FFF76CF88046DF
:1014200089462246334610461946FFF764F80446BB
:101430000E467F10002FEAD1DDE90201BAF1000F5C
:1014400042464B4602DAFFF756F801E0FFF7C5F8CF
:1014500004460E460022274BFFF746F903D84FF00B
:10146000FF30014607E00022234B20463146FEF7BD
:101470009BFFFFF721F9102409E0002C0ADB0A2268
:101480000023FEF72AFF019B30321A55641E50EAF2
:101490000102F2D1641C019AC4F1110314440F9AA1
:1014A000012A09D00122084301D15B450FDD4FF02D
:1014B000000205F101050DE0084303D1A3EB0B0584
:1014C0006D1E09E000204FF0110B0F9088E701DA44
:1014D00000226D1E002A83D000980F99C0E90231C6
:1014E000C0E9004571E70000300000000000244022
:1014F0000000F03F0000F0430000E03F2DE9FF4F07
:1015000095B09B4689460646002512E2252878D1EB
:101510000024761CF94A2746012105943378203BA4
:1015200001FA03F0104202D00443761CF6E730784B
:101530002A2811D06FF02F033078A0F13002092A49
:1015400016D8059A44F0020402EB820203EB420231
:101550001044761C0590EFE759F8042B0592002AF9
:1015600003DA504244F40054059044F00204761C1F
:1015700030782E2816D116F8010F44F004042A28DA
:101580000DD06FF02F023078A0F13003092B09D86D
:1015900007EB870302EB4303C718761CF3E759F800
:1015A000047B761C30786C280FD006DC4C2817D0D2
:1015B00068280DD06A2814D104E0742810D07A2845
:1015C0000FD10DE044F400140AE044F4801401E06B
:1015D00044F440147278824202D1761C04F58014DF
:1015E000761C307866280BD013DC582877D009DCBD
:1015F000002875D04528F6D04628F4D047281AD1BF
:101600009FE118E0632835D0642879D0652812D18D
:1016100097E1702873D008DC6728F1D069286FD073
:101620006E280DD06F2806D1B5E073282CD0752810
:1016300075D0782874D05A46179990476D1C76E17A
:10164000C4F30250022809D003280DD0D9F80010A5
:1016500004280DD00D6009F1040968E1D9F80010E3
:10166000EA17C1E90052F6E7D9F800100D80F2E759
:101670000D70F0E719F8041B8DF8001000208DF8AC
:101680000100EA46012003E059F804AB4FF0FF30B7
:1016900061074FF0000102D40DE008F10101884616
:1016A000B9420FDA8045F8DB1AF808100029F4D1A6
:1016B00008E008F1010188468142FADB1AF80810B7
:1016C0000029F6D105985B46A0EB0807214638466D
:1016D000179A00F09EFA284400EB080507E04DE059
:1016E0002BE10DE01AF8010B5A4617999047B8F113
:1016F0000108F7D25B4621463846179A14E142E0CA
:101700000A220092C4F302524FF0000A022A08D0C3
:1017100059F804CB032A4FEAEC710AD00DE029E016
:101720002AE009F1070121F00702F2E802C191461F
:1017300009E00FFA8CFC4FEAEC71042A03D14FFA4E
:101740008CFC4FEAEC71002907DA0A460021DCF133
:10175000000C61EB02012D2202E0220504D52B22B0
:101760008DF80420012203E0E20701D02022F7E7F0
:10177000904653E00A2102E010220DE010214FF0C4
:10178000000A00910BE010224FF0000A44F004041C
:101790000827009203E008224FF0000A0092C4F3E9
:1017A0000252022A05D059F804CB0021032A08D09E
:1017B00009E009F1070121F00702F2E802C19146B0
:1017C00005E01FFA8CFC042A01D10CF0FF0C4FF04D
:1017D0000008220722D5702827D0009B83F0100331
:1017E00053EA0A0309D15CEA010206D030228DF8DF
:1017F00004208DF8050002229046009B83F0080328
:1018000053EA0A030AD15CEA010201D1620705D555
:1018100030228DF804204FF001087F1E582809D08F
:1018200037A003900EA8029013E040228DF8042008
:101830000122E1E737A0F4E753466046009AFEF73D
:101840004CFD84460398825C0298A0F1010002904E
:1018500002705CEA0100EFD1029806A9A1EB00003A
:1018600000F1200A600702D524F4803400E001274B
:10187000574502DDA7EB0A0000E0002000EB0A015B
:10188000009005984144A0EB01000590E00306D4C8
:101890005B462146179A059800F0BBF905440027DE
:1018A00006E001A85A46C05D179990476D1C7F1C41
:1018B0004745F6DBE0030CD55B462146179A0598B1
:1018C00000F0A7F9054404E030205A4617999047E4
:1018D0006D1C0099481E00900029F5DC08E0029874
:1018E00002995A460078491C0291179990476D1C3D
:1018F000BAF10001AAF1010AF1DC6BE1092801004B
:101900003031323334353637383961626364656675
:101910000000000030313233343536373839414237
:10192000434445460000000000F060F9054406F11C
:101930000106307800287FF4E9AD19B02846BDE8EB
:10194000F08F620700D4062709F1070222F0070C86
:10195000FCE80223E14603F000485FEA080C02D0ED
:101960000FF27C2C0DE05FEA045C02D50FF2742CC0
:1019700007E05FEAC47C02D00FF26C2C01E0AFF20A
:10198000700C4FF0FF3823F00043CDF850C06528AD
:101990000CD006DC452809D046281DD047283ED16A
:1019A0003EE0662818D0672839D139E00021112F90
:1019B00001DB112000E0781CCDE9000106A90EA88A
:1019C000FFF7EEFCDDE90F010E9A03910021009272
:1019D00007F1010A04914EE04FF000400097CDE975
:1019E000011006A90EA8FFF7DBFCDDE90F02039248
:1019F0000E9B11990022DDF80CA00093049219B9F6
:101A000007F1010100EB010AB7EB0A0004D4C0F1B1
:101A1000FF3007F1010A0490AAEB0700019046E0AD
:101A2000012F00DA01270021112F01DD112000E034
:101A30003846CDE9000106A90EA8FFF7B1FCDDE9A3
:101A40000F010E9A0391002104910092BA462107DA
:101A50000CD40399514500DA8A46BAF1010F05DD2D
:101A6000009AAAF10101515C302908D0B84202DA8B
:101A700010F1040F06DA0121CDE9011017E0AAF1F7
:101A80000101E9E7002805DC049901440491AAEB6F
:101A9000000102E0411C514500DD8A460499A0EB9B
:101AA000010000F1010001904FF00040029020077A
:101AB00004D40198504501DBCDF8048000208DF856
:101AC0004F0002980DF14F07B0F1004F25D02B20A9
:101AD0000E9002984FF0020800280CDA4042029063
:101AE0002D200E9007E00A210298FEF7E0FB30312E
:101AF000029007F8011DB8F10001A8F10108F2DC1D
:101B000002980028EFD1791E0E980870307800F006
:101B1000200040F0450007F8020D12A8A0EB0700D6
:101B200000F107081498007800B1012000EB0A01C9
:101B3000019801EBE07105984144A0EB0100A0F190
:101B400001000590E00306D45B462146179A0598EC
:101B500000F05FF805441498007820B15A461799B0
:101B6000904705F10105E00323D55B462146179A0E
:101B7000059800F04EF805441BE00498002807DBA8
:101B8000DDE90301884203DD0098405C179901E01C
:101B9000179930205A46904704986D1C401C0490B9
:101BA0000198401E019004D12E205A461799904763
:101BB0006D1CBAF10001AAF1010ADEDC05E017F89C
:101BC000010B5A46179990476D1CB8F10001A8F116
:101BD0000108F4DC5B462146179A0598A4E600004C
:101BE0002D0000002B000000200000002DE9F04136
:101BF000044600251E461746880405D406E03946EB
:101C00002020B04705F10105641EF8D52846BDE83F
:101C1000F0812DE9F041044600251E469046C80398
:101C200001D5302700E02027880405D506E041468D
:101C30003846B04705F10105641EF8D52846BDE8D1
:101C4000F0810A68531C0B601070704770B5074C28
:101C5000054602212046FFF791F80028F9D02946D1
:101C60002046BDE87040FFF790B80000003001400A
:101C700038B501210920FFF717F801214806FEF7C2
:101C8000FBFF4FF48070ADF8000048200B4C8DF83E
:101C9000030069462046FEF737FF6015ADF80000E7
:101CA00018208DF8030069462046FEF72DFF01211C
:101CB0004FF4EA10FEF778FF38BD0000000C014039
:101CC00070B51A4E88B03046FEF7C6FD04A8FEF780
:101CD000F0FE02208DF81800012500248DF819501F
:101CE0001820ADF81A000494059404A93046FEF7B4
:101CF00035FE8DF800508DF80140ADF80440ADF888
:101D00000840ADF80C408DF80250ADF80640ADF833
:101D10000A408DF80E506846FEF7B6FD01220221FA
:101D20003046FEF713FE08B070BD000000640040AE
:101D30002DE9F043234985B08146D1E90001224EC7
:101D4000CDE9000100243078204F0F2830D93D46DE
:101D5000A0466878AA2829D10E212846FEF7BAFEA7
:101D6000AA7BC1B2914221D1E97BB1EB102F1DD1E9
:101D700002A8291989780155641CE4B20C2CF8D307
:101D800002AB07CB07F1140307C303216846FEF734
:101D9000A1FE8DF8030003216846FEF79BFE000AB2
:101DA0008DF804000521684600F034FC86F80080B8
:101DB00014370ECFC9E90012C9F8083005B0BDE8E4
:101DC000F0830000842E000814000020840000200E
:101DD00070B50D4D044640212846FEF70BFFF82054
:101DE000FFF734FF04F0F000FFF730FF2007000E8C
:101DF000FFF72CFF012000F00BFD2846BDE87040E6
:101E00004021FEF7F5BE00000008014070B50D4D01
:101E1000044640212846FEF7EDFEFA20FFF716FFA4
:101E200004F0F000FFF712FF2007000EFFF70EFF8F
:101E3000012000F0EDFC2846BDE870404021FEF78F
:101E4000D7BE00000008014010B50FA1802000F0AF
:101E5000C5F812A1912000F0C1F812A1972000F05E
:101E6000BDF811A1892000F0B9F811A18F2000F070
:101E7000B5F810A1992000F0B1F8BDE810400FA10D
:101E80009F2000F0ABB80000B9FEB9A4B4F3BBFAD0
:101E9000C6F7C8CBBCAFCDC500000000B5E7C1BFD9
:101EA000A3BA000025000000B5E7D1B9A3BA00002D
:101EB00056000000B5E7C1F7A3BA000041000000DA
:101EC00038B501210420FEF7EFFE01210820FEF7BE
:101ED000EBFE4FF44050ADF8000001248DF80240B5
:101EE00048258DF8035069460748FEF70DFE20028D
:101EF000ADF800008DF802408DF8035069460348A4
:101F0000FEF702FE38BD0000000C01400008014051
:101F100010B540210948FEF76BFE3020FFF758FF4F
:101F20000C20FFF755FF0120FFF752FF0220FFF7BB
:101F30004FFFBDE810408020FFF74ABF0008014076
:101F400010B5044601469C2000F00EF8B4F5000FD1
:101F500001DB044901E00349091DBDE81040982058
:101F600000F03CB87C2C00082DE9FC41064600201E
:101F7000164F0C4600906D46019011F1FF4F06D3AD
:101F800081F0004406E02046FEF778F90446394621
:101F90008C42F8DC2046FEF777F902460B460CA18E
:101FA0006846FFF7D9F93046FFF712FF0A48844226
:101FB00007DA2020FFF72AFF03E0C0B2FFF726FF71
:101FC0006D1C28780028F8D1BDE8FC810000C842CB
:101FD00020252E31660000000000204110B50C467F
:101FE000FFF7F6FE03E000BFFFF710FF641C207848
:101FF0000028F9D110BD000038B501210820FEF7F6
:1020000053FE4FF44044ADF8004010208DF803001B
:102010000320064D8DF8020069462846FEF774FD40
:1020200021462846FEF7E6FD38BD0000000C0140C1
:102030001CB5FEF71DFFFFF743FFFFF7DDFFFFF7BE
:1020400017FE00F0C5FAFFF73BFE00F003FB00F0BF
:1020500025F8FEF72DFFFEF763FF00220421112073
:1020600000F070FC084900234FF4C8728860091D15
:102070000220CDE9000105A1074800F0ECFC00F0CA
:10208000DFFB00201CBD0000000000205350494C25
:1020900063645461736B0000DF25000838B54FF4AA
:1020A000C060FEF7DFFD26208DF8000000248DF8CB
:1020B000024001258DF803506846FEF7A1FD272058
:1020C0008DF800008DF802408DF803506846FEF749
:1020D00097FD14208DF800008DF802408DF8035014
:1020E0006846FEF78DFD1C208DF800008DF802403B
:1020F0008DF803506846FEF783FD1D208DF8000023
:102100008DF802408DF803506846FEF779FD38BD22
:102110002DE9F041184C0F460546E6682068001D81
:1021200000F0F0FA38B9206890F82C1001208840AF
:10213000216981432161681C07D137B12168BDE85D
:10214000F041091D0D4800F015BB20683544B5422B
:102150004560216801F1040104D2A06BBDE8F041A3
:1021600000F0F0BA606B00F0EDFAA06A854200D290
:10217000A562BDE8F081000030000020740300205B
:102180002DE9F041054600F001FB2D4CA068401CF4
:10219000A06020682B4F10B1606930B32BE0256040
:1021A000A068012827D1002606EB860007EB8000F7
:1021B00000F0BAFA761C202EF6D3234800F0B4FAC9
:1021C0002148143000F0B0FA1F48283000F0ACFA73
:1021D0001D483C3000F0A8FA1B48503000F0A4FA2B
:1021E000194860631430A06305E02068E96AC06A9A
:1021F000884200D82560606A401C6062E96A01205C
:10220000226988401043206101EB810007EB8000C8
:10221000291D00F0AFFA00F0C7FA606900280CD061
:102220002068E96AC06A884207D208494FF08050A6
:102230000860BFF34F8FBFF36F8FBDE8F0810000E0
:1022400030000020A40000202403002004ED00E062
:1022500070B5114E114C17E000F01CFB3068B8B19E
:1022600000F0B2FC00F092FAF068C568281D00F09A
:1022700049FAA068401EA0606068401E606000F0DF
:1022800093FA284600F039F860680028E4D170BD60
:1022900000F09AFCF8E70000600300203000002006
:1022A0002DE9F041856B164604460027026CFAB111
:1022B0007EB1E068FDF77EFFE168206C091AE160FD
:1022C0002268914202D26168081AE060022E0DD0A5
:1022D0000EE0A068FDF76EFF216CA0680844A060C6
:1022E0006168884204D32068A06001E005B16D1EDA
:1022F0006D1CA5633846BDE8F08110B50446006B3F
:1023000000F05CFA2046BDE8104000F057BA00002B
:1023100010484FF48841420706D0C01D0D4920F0F7
:102320000700411AC1F588410B4A00230144C2E964
:1023300000030839103A21F0070111604B600B606F
:102340000B1AC0E9001393604FF000405360D06057
:1023500070470000880300207C000020074C4FF0ED
:102360008056074DFFF774FF20680128FAD92E60C8
:10237000BFF34F8FBFF36F8FF4E70000A40000207E
:1023800004ED00E02DE9F0479A46DDE90964814655
:102390006FF00303206B03EB82021044089D20F0D2
:1023A0000707002023180A5C83F834200A5C12B166
:1023B000401C1028F6D34FF0000884F84380202DED
:1023C00000D31F25201DE56200F0B9F904F11800C3
:1023D00000F0B5F9C5F120002461A0616462C4F881
:1023E000448084F8488052464946384600F090F8C8
:1023F0002060002E00D03460BDE8F08730B5114970
:1024000000E011460A688242FBD34B685C188442A4
:1024100003D1406818444860084643681C18944239
:1024200009D1084C103C2468A24209D052681A44D1
:1024300042600A6812680260814200D0086030BDC4
:102440000460F9E77C0000200648416B096829B167
:10245000416BC968C9684968816270474FF0FF31B4
:10246000FAE7000030000020BF2080F31188BFF39E
:102470004F8FBFF36F8FFEE72DE9F0410546002730
:1024800000F008FA214E306808B9FFF741FFF06804
:10249000054236D1ADB30835680704D005F0070012
:1024A000C0F10800054465B37068854229D8174813
:1024B000103001460C6801E020460C466168A942D4
:1024C00002D221680029F7D131688C4219D00768FF
:1024D0002168016060680837411B102904D9601920
:1024E00041606560FFF78AFF61687068401A70603C
:1024F000B268904200D2B060F06801430020C4E9A5
:10250000000100F061FB3846BDE8F0816C0000205E
:1025100010B5031F4FF080741C601B1F21F00101D8
:102520001960191F024B0B60143940380A6010BD46
:102530006924000810B5012186B00803FEF7B4FB3A
:102540000020ADF800004FF48271ADF802100121B7
:10255000ADF808104902ADF80A101021ADF80C10C2
:10256000ADF80400ADF80600ADF80E000720064CEB
:10257000ADF8100069462046FEF709FC012120460F
:10258000FEF7F2FB06B010BD0030014038B5012166
:102590000520FEF789FBA020ADF8000003248DF88C
:1025A00002401820094D8DF8030069462846FEF7C1
:1025B000ABFA4020ADF800008DF8024010208DF8F5
:1025C000030069462846FEF79FFA38BD000801401F
:1025D00010B5FFF7DBFFBDE81040FFF7ABBF0EB54E
:1025E000C82000F015F9FFF793FCFFF72DFC6846B3
:1025F000FFF79EFBDDE9015211469420009CFFF796
:10260000B3FC29468C20FFF7AFFC2046FFF798FC6F
:10261000EDE7000070B50D4E0C4605460121304631
:10262000FEF7E8FA02213046FEF7E4FA2246294690
:102630000748FEF731FE01213046FEF7D9FA304651
:10264000BDE870400221FEF7D3BA0000000C014043
:1026500000480040F8B501210D20FEF725FB0121BF
:102660004804FEF709FB4FF4E1312248FEF772FD02
:1026700018268DF8036004241F4FADF80040032591
:102680008DF8025069463846FEF73EFA8DF8034051
:102690000820ADF8000069463846FEF735FA0121FA
:1026A0008804FEF7E9FA4FF416611448FEF752FD6C
:1026B0008DF803602002ADF80000114E8DF8025035
:1026C00069463046FEF720FA8DF803406002ADF807
:1026D000000069463046FEF717FAADF800500120B9
:1026E0008DF8020010208DF8030069463046FEF791
:1026F0000BFAF8BD004400400008014000480040CB
:10270000000C0140D0E9013201699A60D0E901234F
:102710005A604A68824201D182684A60002202619E
:102720000868401E0860704700F108014FF0FF3252
:10273000C0E90112C1600161002101607047002100
:102740000161704730B50B685A1C02D000F10802D5
:1027500002E0026904E02246546825689D42FAD9E5
:1027600053684B6099608A60516008610168491C38
:10277000016030BD42684A6093688B60936859601D
:10278000916008610168491C01607047BF2080F3B7
:102790001188BFF34F8FBFF36F8F02480168491C48
:1027A000016070472C00002003490868401E086043
:1027B00001D180F3118870472C00002070B50028EB
:1027C00018D00D4DA0F108046068E968084211D0E6
:1027D0002268002A0ED18843606000F05BF86068D0
:1027E0006968084468602046FFF708FEBDE870404D
:1027F00000F0EAB970BD00006C0000204FF0E0204E
:102800000249416107210161704700003F19010041
:1028100010B5020009D000F03DF800211046FFF786
:1028200077FC00F0D1F9002807D104494FF080501F
:102830000860BFF34F8FBFF36F8F10BD04ED00E052
:102840001CB510480024CDE90040234680220EA18B
:102850000F4800F000F9012812D1BF2080F3118841
:10286000BFF34F8FBFF36F8F06484FF0FF312C3807
:10287000816201214161C460BDE81C4000F034B8B0
:102880001CBD00005C00002049444C4500000000D5
:102890005D2300080248016B491C0163704700007A
:1028A000300000200E48016B11B10121C161704759
:1028B0000021C16101690B4AB1FA81F1C1F11F0127
:1028C00001EB810102EB810101F108034A685268C2
:1028D0004A609A4201D152684A60D16801607047EB
:1028E00030000020A4000020094810B5016841F420
:1028F0007F010160016841F07F410160FFF77EFFC9
:10290000044900200860FDF70DFC002010BD000008
:1029100020ED00E02C00002010B5BF2080F31188CE
:10292000BFF34F8FBFF36F8F00F0C0F818B10449A9
:102930004FF080500860002080F3118810BD000027
:1029400004ED00E070B50E00054612D005FB06F060
:102950004830FFF791FD040009D004F148012046FA
:102960004EB10160C0E90F56012100F007F8204682
:1029700070BD0020ECE70060F4E7000070B50D4684
:102980000446FFF703FFD4E90F12206801FB0200A1
:1029900060600020A0632068A0600146E06B401EDC
:1029A00000FB0210E0604FF0FF3084F8440084F830
:1029B000450004F110004DB1FFF7B6FE04F124000C
:1029C000FFF7B2FEFFF7F0FE012070BD216900297C
:1029D000F8D000F0C5F80028F4D004494FF080503A
:1029E0000860BFF34F8FBFF36F8FEBE704ED00E09C
:1029F0002DE9F04104461746BF20EFF3118680F31E
:102A00001188BFF34F8FBFF36F8FA26BE06B8242D1
:102A100006D3022B04D0002086F31188BDE8F08194
:102A200094F945501A462046FFF73AFC681C04D03A
:102A30006D1C84F845500120EEE7606A0028FAD04A
:102A400004F1240000F08CF80028F4D0002FF2D01C
:102A500001203860EFE72DE9FF5F8346DDE90E874F
:102A6000994616468A469000FFF706FD05001AD0E3
:102A70004C20FFF701FD040012D025630021CDE9B1
:102A80000241CDE900874B46324651465846FFF792
:102A900079FC2046FFF774FB012004B0BDE8F09FED
:102AA0002846FFF78BFE4FF0FF30F6E72DE9F041A7
:102AB000294C0027206B40B1A069401CA061E0694F
:102AC00000B101273846BDE8F081E668761CE66073
:102AD00008D1606BA16B6163A063206A401C206217
:102AE000FFF7B2FCA06ADFF87480864209D3606BFE
:102AF000006880B1606BC068C568686886420DD2A6
:102B0000A0622068C06A00EB800158F8210001280B
:102B1000D5D90127D3E74FF0FF30F1E7281DFFF7A4
:102B2000F1FDA86A18B105F11800FFF7EBFDE86A9E
:102B30000121226981401143216100EB800108EBF2
:102B40008100291DFFF716FEE86A2168C96A8842DC
:102B5000CDD30127CBE7000030000020A4000020E7
:102B60002DE9F041C068C46804F118000746FFF77A
:102B7000C9FD124D286B012668B11148394600BFC6
:102B8000FFF7F8FDE06A2968C96A884213D9012075
:102B9000EE61BDE8F081201DFFF7B4FDE16A2A690E
:102BA00006FA01F01043286101EB8100054901EBB1
:102BB0008000211DE4E70020EBE70000300000204A
:102BC0004C030020A40000202DE9F04700242646F5
:102BD000FFF7DCFD264D286B401E2863286BE0BB09
:102BE000A968244F0120C1B3A7F52A798046386827
:102BF000E8B1F868C46804F11800FFF783FD201DF0
:102C0000FFF780FDE06A2A6908FA00F111432961A3
:102C100000EB800109EB8100211DFFF7ABFDE06AAD
:102C20002968C96A8842E2D3C5F81C80DFE70CB185
:102C3000FFF70AFCAC694CB14FEA0807FFF736FF13
:102C400000B1EF61641EF9D10020A861E86920B1EC
:102C5000094901263007086000E003E0BFF34F8F09
:102C6000BFF36F8FFFF7A0FD3046BDE8F08700008F
:102C7000300000204C03002004ED00E0B3E400002D
:102C8000B7C50000C1814001C0804101C080410042
:102C9000C1814001C0804100C1814000C18140012B
:102CA000C0804101C0804100C1814000C18140011C
:102CB000C0804100C1814001C0804101C08041000D
:102CC000C1814001C0804100C1814000C1814001FB
:102CD000C0804100C1814001C0804101C0804100ED
:102CE000C1814000C1814001C0804101C0804100DC
:102CF000C1814001C0804100C1814000C1814001CB
:102D0000C0804101C0804100C1814000C1814001BB
:102D1000C0804100C1814001C0804101C0804100AC
:102D2000C1814000C1814001C0804101C08041009B
:102D3000C1814001C0804100C1814000C18140018A
:102D4000C0804100C1814001C0804101C08041007C
:102D5000C1814001C0804100C1814000C18140016A
:102D6000C0804101C0804100C1814000C18140015B
:102D7000C0804100C1814001C0804101C08041004C
:102D8000C1814000C0C101C30302C2C60607C70516
:102D9000C5C404CC0C0DCD0FCFCE0E0ACACB0BC9C7
:102DA0000908C8D81819D91BDBDA1A1EDEDF1FDDA7
:102DB0001D1CDC14D4D515D71716D6D21213D31177
:102DC000D1D010F03031F133F3F23236F6F737F577
:102DD0003534F43CFCFD3DFF3F3EFEFA3A3BFB3907
:102DE000F9F83828E8E929EB2B2AEAEE2E2FEF2D07
:102DF000EDEC2CE42425E527E7E62622E2E323E1B7
:102E00002120E0A06061A163A3A26266A6A767A5D6
:102E10006564A46CACAD6DAF6F6EAEAA6A6BAB6946
:102E2000A9A86878B8B979BB7B7ABABE7E7FBF7D26
:102E3000BDBC7CB47475B577B7B67672B2B373B1F6
:102E40007170B05090915193535292965657975536
:102E50009594549C5C5D9D5F9F9E5E5A9A9B5B9986
:102E6000595898884849894B8B8A4A4E8E8F4F8D86
:102E70004D4C8C4484854587474686824243834136
:102E80008180400055AAFF0000000000AC2E000821
:102E9000000000208400000080130008302F00088C
:102EA00084000020044B0000901300080000000084
:102EB0000000000000000000000000000000000012
:102EC00000020406080000000001020304010203DE
:102ED0000406070809000000AAAAAAAA0000000028
:102EE00000000000000000000000000000000000E2
:102EF00000000000000000000000000000000000D2
:102F000000000000000000000000000000000000C1
:102F100000000000000000000000000000000000B1
:102F200000000000000000000000000000000000A1
:040000050800019955
:00000001FF
